:100000006F002064000000009404000096040000CB
:1000100000000000000000000000000000000000E0
:1000200000000000000000000000000000000000D0
:100030000C0400000000000040060000000000006A
:100040004006000040060000400600004006000098
:100050004006000040060000400600004006000088
:100060004006000040060000400600004006000078
:100070004006000040060000400600004006000068
:100080004006000040060000400600004006000058
:10009000400600004006000040060000000000008E
:1000A000511126C022C206C4828282441244A24058
:1000B00031018280634E050263C305042E86AA8542
:1000C0007D5515C285466378B6006356C0000606A6
:1000D0008606E36CB6FE014563E4C500918D558D3F
:1000E00085820582F5FA82808682C93F2E858282CA
:1000F0003305A04063D70500B305B040C1B7B305D1
:10010000B0408682653F3305A0408282868263C705
:100110000500634905005D372E858282B305B04036
:10012000E35B05FE3305A040513F3305B0408282BA
:1001300000003D432A876373C3029377F700BDEF46
:10014000ADE5937606FF3D8ABA960CC34CC30CC747
:100150004CC74107E36BD7FE11E28280B306C34070
:100160008A069702000096966780A6002307B700CC
:10017000A306B7002306B700A305B7002305B70001
:10018000A304B7002304B700A303B7002303B700F9
:10019000A302B7002302B700A301B7002301B700F1
:1001A000A300B7002300B700828093F5F50F939664
:1001B0008500D58D93960501D58D61B7939627005F
:1001C0009702000096968682E78086FA9680C1178D
:1001D0001D8F3E96E374C3F8A5B7EFF27FEC1301D1
:1001E00081FD614681450808A93785451305002032
:1001F000EF0010003165EF0040748545414502C2B3
:1002000002C402C6EF00C07EC1474C003715014052
:100210007C8202C6492D854513050002EF00407D12
:100220003715014091474C00130505407C8202C6FA
:100230008564952D85470144938444B685462547BA
:100240003386F40010226315D60005041374F40FEE
:100250008507E397E7FE371702405C4BB70602407D
:10026000717693E717005CCB9C46791637250140E1
:10027000F18F09661306065AD18F9CC6C0C6930734
:10028000C5449CCA93874181DCCA1305054095216A
:1002900085473ECA3ECCB7070E002302810202C842
:1002A0003ECE02D005470544A1479375F70F63146E
:1002B000F7062286372401409D46A14513050440D8
:1002C00009230C0813050440B92185451305044092
:1002D000552185451305044071211305044065210E
:1002E0009304044026856D2175FD130504403724D1
:1002F00001405D21930404402685652175FD370585
:100300000240854521059D2B854513050440712933
:100310001301810259BBB387E40094238547639E90
:10032000F6003725014022869D46130505403AC058
:100330004929024705041374F40F0507B5B7EFF216
:100340003FD60945B12321CD0945912B8566370656
:10035000002001478147938646B6854313068603EE
:1003600093854181A1423385E6000821631F750012
:10037000139317002E9303530300131517003295A0
:1003800085072310650093F7F70F0507E31D57FC5A
:10039000138741818607BA979A232398E18031B366
:1003A000EFF21FD0B7F700E023A00700B707002047
:1003B00003A507018965938505F409337D15B70702
:1003C00000016364F5001385F7FFB7F700E023A48D
:1003D000070088CB2D4798C3B7E700E0056723A047
:1003E000E710054723A6E18223A401827DB903A576
:1003F0008182828003A7C18285476317F70083A7A4
:1004000081823385A740828001458280B7F700E072
:1004100023A20700938781829843050798C383A787
:10042000018391C3829773002030EFF27FC771116F
:10043000054523AA0182F521452271651305052092
:10044000F925B93F593B6537AA8413844183C53DDB
:100450001840954763F4E70023200400493F2AC071
:100460002685493F11CD83A7818311460247850721
:100470006375F6002320040011A01CC0BA84C1BF1C
:100480001C4015476384E70023ACF18295471CC0EC
:100490002687EDB701A0B707EFBE37E700E09387E7
:1004A00007083CC701A0EFF2BFBF371402401C4051
:1004B0003707FFF8611193E717001CC05C40414506
:1004C000F98F5CC01C403707F7FE7D17F98F1CC001
:1004D0001C403707FCFF7D17F98F1CC05C4041773B
:1004E0007D17F98F5CC0B7079F001CC435291C4CD1
:1004F0003706020093E707021CCCB717014003A799
:100500000740938607401377F7F023A0E74003A73F
:1005100007401367070823A0E74089479CCA02C029
:1005200002C21C4C37070140A16693E717001CCCA0
:100530005C43D58F5CC31C404167B7160240D98F1E
:100540001CC009679C42F18F3EC2824785073EC0AE
:10055000924781E78247E397E7FEB71702409C4343
:100560001397E7006358070685473EC21247854741
:100570006310F706B72702409843C176FD16719BBA
:1005800098C398431367170098C3B7170240D8431E
:10059000D8C3D843758FD8C3D843C166558FD8C345
:1005A0009843B7060001558F98C398439316670088
:1005B000E3DD06FED843B7160240719BD8C3D8438B
:1005C00013672700D8C32147DC42B18BE39EE7FEC7
:1005D0002101E1BC02C259BFEFF29FAC37170240C4
:1005E0005C43370400209146B18B130404016385FA
:1005F000D700A1466380D704B7376E0193870760A1
:100600001CC0B7160240DC420840918313F7F70084
:10061000B707002093870700BA978C23DC4293F535
:10062000F50F93F707083357B50099E3413C2A8744
:1006300018C0A5BC5C43B777DC02938707C0C9B775
:1006400001A0970100209381611F138181FC130594
:10065000000A970500209385E59A170600201306E7
:10066000669A63FAC5008322050023A05500110590
:100670009105E3EAC5FE170500001305A54F970590
:10068000002093852598170600201306269B63FA01
:10069000C5008322050023A0550011059105E3EA5A
:1006A000C5FE1705002013056599938501846377BE
:1006B000B500232005001105E36DB5FEB72200004B
:1006C00093820288739002308D4273904280970229
:1006D00000009382229393E2320073905230EFF045
:1006E0009FDC97020000938282D4739012347300CF
:1006F0002030B727014093870740631DF500EFF2D4
:100700003F9A8545130500201926814513050020D1
:10071000FD2C61BA82805C413707F1FF1307F7EFC8
:100720007D8FDC419441A207D58FD98F5CC11C45D8
:1007300037F7F1FF1307D77FD4457D8F9C49D58FBD
:1007400094458606D58FD98F1CC55C55370710FF99
:100750007D177D8FDC29FD1793F7F70FD207D98F0F
:100760005CD582801C4589C593E717001CC5828033
:10077000F99BEDBF1C4589C593E707101CC5828016
:1007800093F7F7EFE5BF1C4593E787001CC5828010
:1007900008450D81058982801C4593E747001CC5EB
:1007A000828008450981058982801C4591C53707EB
:1007B0005000D98F1CC582803707B0FF7D17F98F95
:1007C000D5BFA54763F8B704138765FF93171700D4
:1007D0008322C500BA971D433313F3001343F3FF7D
:1007E00033735300B397F600B3E767005CC59947CE
:1007F00063E3C7047D16931726003E965859FD47BC
:10080000B397C70093C7F7FFF98FB395C500DD8D88
:100810004CD982809397150003230501AE971D479D
:100820003317F7001347F7FF33776700B397F600E6
:100830005D8F18C96DBFB14763E2C7026516931794
:1008400026003E961859FD47B397C70093C7F7FF98
:10085000F98FB395C500DD8D0CD982804D16131725
:10086000260054553A96FD47B397C70093C7F7FF44
:10087000F58FB395C500DD8D4CD582801C4189C5AF
:1008800093E717001CC1828041677917F98FDDBF9C
:10089000B70702409C437D8D3335A0008280B707A7
:1008A0000240C8C38280944593F7060193F2F60094
:1008B00081C7DC41B3E2F20083D3050093F7F30F65
:1008C000A5C303230500611122C226C0814713047A
:1008D00080029304800405473316F70033F7C30002
:1008E0006312E602939527003D473317B70013477D
:1008F000F7FF33736700B395B20033E36500639D80
:10090000860050C985072147E397E7FC124423205E
:100910006500824421018280E39696FE10C9DDB70E
:10092000828023AEA1828280371702401C430E05CD
:1009300093F777F05D8D08C38280B7160240DC42E2
:1009400041771307F77FF98F5D8DC8C28280EFF280
:100950002FF5371702405C4391462A84B18B63859B
:10096000D700A1466380D708B7376E019387076029
:100970001CC0B7160240DC42918313F7F700B7079B
:10098000002093878702BA978C23DC42184093F5A6
:10099000F50F93F707083355B70081E73A85EFF075
:1009A000EFF148C008C448C4B7170240DC438D4685
:1009B000AD83FD8B13D737008A07F18BD98F13F6E0
:1009C000370113F7370063F4C600138747FFB707F3
:1009D000002093874701BA978C23EFF02FEE08C8C9
:1009E0006FF0AFEC5C43B777DC02938707C049B781
:1009F00099C5371702401C4F5D8D08CF8280B7170D
:100A00000240984F1345F5FF798D88CF828099C5B4
:100A1000371702405C475D8D48C78280B717024098
:100A2000D8471345F5FF798DC8C78280EFF24FE7AD
:100A30001629F577FD17F58FF621DA252111D58FC7
:100A40001EA95625FD779387379FF58FD6212A84D7
:100A50002EC0D58F9625D58FB625D58F5EA55E295C
:100A6000C207C18393F7F7CF5D8F5AA94800C535F8
:100A7000B74701409387078082456312F406C24757
:100A80005A24139517003E9542070E0541873E955F
:100A90008C41635807048605EFF04FE2930540064A
:100AA0002AC0EFF0AFE1824793144500930540065A
:100AB0003E85EFF06FE35E24C207C18763D507026E
:100AC0000E059305400613052503EFF02FDF1D8962
:100AD000C98CC204C18006A461016FF00FDDB2476A
:100AE00045B78A0555BF1205930540061305250332
:100AF000EFF0CFDC3D89E9BF91C55E250967D98F4D
:100B00005EA582805A25F977FD17F98FD5BFEFF2E0
:100B10002FD92A8411651111854513050502C93D98
:100B2000930700027C80371501408D473EC28A85BD
:100B3000E147130505403EC4BD3322C6374401409A
:100B4000B70708006C00130504803ECA02C8231CC6
:100B50000100E93D854513050480793F71016FF07F
:100B6000CFD40000000001010000000001000000DF
:100B7000010203040506070801020304050607082D
:100B8000006CDC020204060804080C10081018208F
:100B90001020304020406080010203040506070851
:080BA000010203040506070829
:00000001FF
