:100000006F00D07A00000000F80D0000FA0D00002B
:1000100000000000000000000000000000000000E0
:1000200000000000000000000000000000000000D0
:100030005804000000000000AA0F000000000000AB
:10004000AA0F0000AA0F0000AA0F0000AA0F0000CC
:10005000AA050000AA0F0000AA0F0000AA0F0000C6
:10006000AA0F0000AA0F0000AA0F0000AA0F0000AC
:10007000AA0F0000AA0F0000AA0F0000AA0F00009C
:10008000AA0F0000AA0F0000AA0F0000AA0F00008C
:10009000AA0F0000AA0F0000AA0F00000000000035
:1000A000511126C022C206C4828282441244A24058
:1000B000310182802A86014593F6150091C232955E
:1000C00085810606F5F9828000000000634E050276
:1000D00063C305042E86AA857D5515C285466378BF
:1000E000B6006356C00006068606E36CB6FE014500
:1000F00063E4C500918D558D85820582F5FA828075
:100100008682C93F2E8582823305A04063D70500D1
:10011000B305B040C1B7B305B0408682653F330533
:10012000A0408282868263C70500634905005D376F
:100130002E858282B305B040E35B05FE3305A04007
:10014000513F3305B040828200003D432A876373EC
:10015000C3029377F700BDEFADE5937606FF3D8AC6
:10016000BA960CC34CC30CC74CC74107E36BD7FE10
:1001700011E28280B306C3408A0697020000969679
:100180006780A6002307B700A306B7002306B700C1
:10019000A305B7002305B700A304B7002304B700E5
:1001A000A303B7002303B700A302B7002302B700DD
:1001B000A301B7002301B700A300B7002300B700D5
:1001C000828093F5F50F93968500D58D9396050162
:1001D000D58D61B793962700970200009696868288
:1001E000E78086FA9680C1171D8F3E96E374C3F8A8
:1001F000A5B7B7070020054723A0E70482808547FD
:1002000063EAA700B707002023A0A704B7070020D0
:1002100023A2B7048280EFF2BFE83704002003274F
:100220004404814729CF03A5818093848180092CD0
:100230001307104E85476374A704370700208347D0
:1002400007009306F00F1304440413070700639A92
:10025000D7021C40860793F7F70F1CA389E7FD57C9
:10026000232004001CA3B7070020938717008823CE
:100270001335150088A3652BC92288C085473E85A4
:100280002DB5FD17C9BFEFF2BFE1370400201304FD
:1002900004041C4089C705476388E70039B5A53FBA
:1002A00075FD85471CC0DDBF01455123C5BFEFF279
:1002B0003FDF511102C002C2231401009387018164
:1002C000014701440546A9468C436399C5006C006B
:1002D000A2950504238AE5FE1374F40F0507910720
:1002E000E314D7FE1DC003A5818393848183892AEB
:1002F00089679387077163FAA70085476319F4003C
:100300000C800145ED3D152A88C0310179BB9387EA
:10031000C18098237C0001453E97834547FFC53542
:100320009387C18098236315870023800700E1BF6E
:10033000050798A3C9BF0A0593870181AA97884337
:100340007D15133515008280EFF29FD5B7F700E0D9
:1003500023A00700B707002003A58701D165938577
:1003600005888D3B7D15B70700016364F500138593
:10037000F7FFB7F700E023A4070088CB2D4798C309
:10038000B7E700E0056723A0E710054723A6E1864D
:1003900023A401869387018423A0070023920700EA
:1003A00023A407002396070023A80700239A070029
:1003B00023AC0700239E070023A007022392070215
:1003C000EDB103C6C18329479386C1836317E60253
:1003D000938701841386870285459843631AB70083
:1003E000DA237D1742074183DAA319E323A007002C
:1003F000A107E394C7FE238006008280914763E74C
:10040000A702EFF2FFC92547138401849317350033
:100410006366B7003E942320040041B92E85A945A8
:100420003E944D3985474AA01CC0C5BF82800E0549
:1004300093870184AA978843828003A5818682805E
:1004400003A7C18685476317F70083A78186338595
:10045000A740828001458280B7F700E023A2070011
:10046000938781869843050798C39387C183982310
:10047000050798A373002030EFF29FC27165130542
:10048000052023AE0186EF1080179387418923A0B2
:10049000070023A2070023A4070023A6070023A820
:1004A000070021B1EFF2DFBF03C781879307F00A8E
:1004B0004111138401876314F70C0545AD3D630DAD
:1004C000050A09458D3D6309050A0D45AD354DC544
:1004D00003C50189B1260145192E93175500898F4F
:1004E0008A070C403E950E05F5362AC605450126BD
:1004F00093175500898F4C408A073E950E05D93ECB
:100500002AC405453D2401452D249307F5D88A07C3
:100510001383770083A7C1871384818A93D417003C
:10052000939724000840A697939447009D8C1AC285
:10053000013F2AC01937124308C0931713009A9736
:100540008E079A978607138641898E041384418902
:100550008245A246324763D3070081471CC223125B
:100560000400232304002325E4002327D400268548
:1005700095362AA8410115BE0145512CA9BF938487
:1005800041889C203D47638DE7001307F00FE394FB
:10059000E7F4DC401CC09C445CC02380040025BF01
:1005A0000145A12C0545912CCDBF9387C187984368
:1005B000050798C373002030EFF29FAE03C7018890
:1005C0007111AA87138401889384218809EF2AC0B6
:1005D000374501409305A00A1305058023800400D8
:1005E000EF10E00082471820BA978C239C203747F1
:1005F000014013050780AE979CA0EF00507F1C20A0
:10060000CD460145850793F7F70F1CA037470140FA
:1006100063F1F6028C2013050780EF00507D374709
:10062000014013050780A945EF00707C05452300B4
:10063000040011019DBCEFF2BFA62A84374501409A
:1006400013050580EF00307B9387018B9843854627
:100650001375F50F6305D70209CB89466307D704E5
:100660008D46630DD704014589B41307A00AE31C26
:10067000E5FE94C3A3800188A3810188EDB71386AA
:10068000118818229386418BBA9688A29386318866
:100690008C2205071377F70F2E9588A218A2BD4666
:1006A000E3F3E6FC094798C37DBF03C731886314B1
:1006B000A7000D47CDBF23A0070075B723A00700F3
:1006C000A947E312F5FA41469385418B2285EF0055
:1006D0007078054551BFEFF2BF9C71111145813B08
:1006E0009384418C1384C18A09E989658547938580
:1006F000057111459CA01CA011339C200547639BEC
:10070000E700138541893EC0453D82476314F500EB
:100710002380040018208547631AF7001385418859
:10072000193F8547E31CF5FE2300040011016FF01B
:10073000DF9706059387018EAA978A238280B707E1
:10074000002023A2A7008280EFF29F9571118945B6
:1007500037150140EF00B03341C9E14401448545FC
:10076000371501400546EF00303389453715014004
:100770000604EF00D03111C10504FD140146854582
:100780003715014093F4F40FEF001031E9F8B70783
:10079000002083A447008147B334900085040546B8
:1007A0008545371501403EC0EF00102F01468545B5
:1007B00037150140EF00502E8247370700201307FE
:1007C0004700850793F7F70FE39B97FC9317840087
:1007D00063D50700B70700FF5D8C1C431397270004
:1007E0009387018FBA9780C311016FF01F8C0A05A0
:1007F0009387018FAA97884382800A051387018F08
:100800002A9718439387818EAA9798C38280EFF224
:100810003F89D14511E181450545B9296FF0FF8830
:10082000EFF21F88AA85054581296FF01F88EFF236
:100830003F87954511E1814519453D296FF0FF86B8
:1008400003A5018D856793878772AA9794238547AF
:100850001387018D639FF606EFF29F849384418D89
:100860003386A4000C229D47711193161500138442
:10087000818C63E1B70436C0A52C82461387018DB5
:1008800010439387818DBE968AA2931616003694E4
:10089000B6979E231620B294B6971EA09C2085077B
:1008A0009CA01C438946850763E2F6021CC3110124
:1008B0006FF0AFFF36949387018EB6971620230012
:1008C0000600231004008D8296A3E1BF23200700B9
:1008D000F9BF1C438946850763E4F6001CC3828088
:1008E000232007008280EFF2AFFB993FB13D6FF00C
:1008F000CFFBEFF2EFFA130181FD61468145080855
:10090000EFF0BF84854513050020EF0070263165A8
:10091000EF00B01A854511453714014002C202C4E8
:1009200002C6EF00F0249147130504804C007C823E
:1009300002C6EF00100E85451145EF007023894770
:10094000130504804C007C8202C6EF00900C8545A4
:1009500013050002EF00D021C147130504404C00ED
:100960007C8202C68564EF00D00A814701449384EB
:100970008472854625473386F40010226315D6001D
:1009800005041374F40F8507E397E7FE3717024059
:100990005C4BB7060240717693E717005CCB9C4630
:1009A000791637250140F18F09661306065AD18F53
:1009B0009CC6C0C69307C5449CCA9387C190DCCA35
:1009C00013050540EF00806985473ECA3ECCB70756
:1009D0000E002302810202C83ECE02D00147054428
:1009E000B387E400942385479375F70F639FF60060
:1009F0003725014022869D46130505403AC0EF0089
:100A00000073024705041374F40F0507A147E319A7
:100A1000F7FC2286372401409D46A145130504407A
:100A2000EF00E0700C0813050440EF008065854579
:100A300013050440EF00C06A854513050440EF002C
:100A4000206913050440EF00C06A93040440268522
:100A5000EF00C06A6DFD1305044037240140EF002C
:100A6000606A930404402685EF00606A6DFD3705D7
:100A7000024085452105EF00207785451305044098
:100A8000EF006069130181026FF02FE2EFF24FE196
:100A90000945EF00A07639C90945EF000077856662
:100AA000014781479386867285431386818F93859C
:100AB000C190A1423385E6000821631F750013939E
:100AC00017002E9303530300131517003295850763
:100AD0002310650093F7F70F0507E31D57FC1387F5
:100AE000C1908607BA979A232394E1906FF0EFDBC9
:100AF0009D4763E9A700931715001385818F3E95E5
:100B00000A21828001458280EFF28FD913074006C7
:100B10002A8403D52193930740066363B700AE8709
:100B200093F5F70FEFF00FD993054006EFF00FDACA
:100B30004205416793870192418113070706954655
:100B400098C3EAA363E98602239407008547631DDF
:100B5000F4009385019237050040EF00F00BA145AA
:100B600037050040EF003019854537050040EF009C
:100B7000F0166FF08FD309479AA799476314F402D0
:100B8000373401408545130504C0EF00D013938529
:100B90000192130504C0EF003008A145130504C0FD
:100BA000EF007015373501408545130505C0C1B705
:100BB000EFF20FCFAE87B7060020960503A486019B
:100BC0009D8D8A053111BE952AC28E0522853EC0B3
:100BD00002C402C623180100EFF0CFCF9304F5FF43
:100BE000C1668247124763E4D4009384F6FFBE8552
:100BF000138514003AC0EFF0EFCBAA852285EFF001
:100C00006FCD7D15C16702476364F5001385F7FF5B
:100C10001314050193171700938601934180B6972B
:100C200082A319C78547630BF70251016FF0EFC725
:100C30000565854513050580EF0080733735014054
:100C40006086648423170100231501002308010036
:100C50002C00130505C0EF004077C1BF8545054551
:100C6000EF00E0722C0060866484231701002315D6
:100C7000010037050040C5B79D4763E7A700EFF2C5
:100C80002FC259356FF06FC28280EFF26FC15111E0
:100C900002C002C202C40144856405049D47631179
:100CA000F402373501408545130505C0EF003000DB
:100CB000854537050040EF00807F31016FF0EFBEC2
:100CC00093874473A2979C230547E398E7FC614709
:100CD0003AC40D473AC2630DF40099476307F40222
:100CE0009305C0030545E935A9452285713775B7D8
:100CF000854513050002AD2D37150140A1478A85B2
:100D0000130505407C803123E1BF854545458D2590
:100D1000B7070140D8438A85371501401377F7F3A9
:100D2000D8C3D8431367070CD8C3930700087C8047
:100D3000CD218565938505FA01459D3D8145194580
:100D4000E133A1BFEFF2CFB57111054523AA01929E
:100D5000892BF522EFF04FDFEFF0AFC9EFF07FB94D
:100D60002D37EFF06FF10145EFF07F9DEFF0EFECE5
:100D7000AA8413844193EFF0CFE4EFF0DFB6393368
:100D80001C401547636DF70405678A071307C7738F
:100D9000BA979C4382871CC0BA84F1BFEFF0BF931F
:100DA000EFF0AFE92AC02685EFF08FE9A54763FB96
:100DB000A70283A78193914602478507E3FDF6FCCE
:100DC00023200400D1BFEFF0EFEDD9BFEFF0BFB1AA
:100DD000C1BFEFF0CFCDE9B7EFF0EFCAD1B7232015
:100DE00004007DBF1C4015476384E70023ACF192EB
:100DF00095471CC026874DB701A0B707EFBE37E760
:100E000000E0938707083CC701A0EFF26FA93714F1
:100E100002401C403707FFF8611193E717001CC020
:100E20005C404145F98F5CC01C403707F7FE7D17D9
:100E3000F98F1CC01C403707FCFF7D17F98F1CC0C1
:100E40005C4041777D17F98F5CC0B7079F001CC4D9
:100E5000A1291C4C3706020093E707021CCCB717E8
:100E6000014003A70740938607401377F7F023A0BC
:100E7000E74003A707401367070823A0E740894717
:100E80009CCA02C002C21C4C37070140A16693E70E
:100E900017001CCC5C43D58F5CC31C404167B71660
:100EA0000240D98F1CC009679C42F18F3EC2824725
:100EB00085073EC0924781E78247E397E7FEB71771
:100EC00002409C431397E7006359070685473EC2DB
:100ED000124785476310F706B72702409843C1764B
:100EE000FD16719B98C398431367170098C3B717F3
:100EF0000240D843D8C3D843758FD8C3D843C166FE
:100F0000558FD8C39843B7060001558F98C39843AF
:100F100093166700E3DD06FED843B7160240719BC7
:100F2000D8C3D84313672700D8C32147DC42B18B0D
:100F3000E39EE7FE21016FF04F9702C251BFEFF22F
:100F40002F96371702405C43370400209146B18B3F
:100F5000130484016385D700A1466382D704B737A1
:100F60006E01938707601CC0B7160240DC42084040
:100F7000918313F7F700B707002093878700BA978C
:100F80008C23DC4293F5F50F93F707083357B50030
:100F900081E7EFF02F942A8718C06FF00F915C4320
:100FA000B777DC02938707C07DBF01A097010020BF
:100FB00093814189138101FC1305000A97F5FF1FF6
:100FC0009385450417F6FF1F1306C60363FAC50091
:100FD0008322050023A0550011059105E3EAC5FE13
:100FE000170500001305457797F5FF1F93858501C9
:100FF00017F6FF1F1306060563FAC50083220500D6
:1010000023A0550011059105E3EAC5FE17F5FF1F62
:1010100013054503938501946377B50023200500EC
:101020001105E36DB5FEB72200009382028873902C
:1010300002308D427390428097F2FFFF938282FCD0
:1010400093E2320073905230EFF03FDC97020000E1
:10105000938282CF7390123473002030B7270140FF
:1010600093870740631EF500EFF28F8385451305D4
:1010700000202D2E8145130500200D2E6FF0EF82EC
:1010800082805C413707F1FF1307F7EF7D8FDC416A
:101090009441A207D58FD98F5CC11C4537F7F1FF6A
:1010A0001307D77FD4457D8F9C49D58F94458606FD
:1010B000D58FD98F1CC55C55370710FF7D177D8FE5
:1010C000DC29FD1793F7F70FD207D98F5CD5828003
:1010D0001C4589C593E717001CC58280F99BEDBFAD
:1010E0001C4589C593E707101CC5828093F7F7EF6D
:1010F000E5BF1C4593E787001CC5828008450D812C
:10110000058982801C4593E747001CC582800845FD
:101110000981058982801C4591C537075000D98F08
:101120001CC582803707B0FF7D17F98FD5BFA54753
:1011300063F8B704138765FF931717008322C50070
:10114000BA971D433313F3001343F3FF3373530074
:10115000B397F600B3E767005CC5994763E3C7043C
:101160007D16931726003E965859FD47B397C70042
:1011700093C7F7FFF98FB395C500DD8D4CD98280F9
:101180009397150003230501AE971D473317F7000A
:101190001347F7FF33776700B397F6005D8F18C9E1
:1011A0006DBFB14763E2C7026516931726003E96EE
:1011B0001859FD47B397C70093C7F7FFF98FB39549
:1011C000C500DD8D0CD982804D16131726005455AD
:1011D0003A96FD47B397C70093C7F7FFF58FB395CE
:1011E000C500DD8D4CD582801C4189C593E7170071
:1011F0001CC1828041677917F98FDDBFB7070240B4
:101200009C437D8D3335A0008280B7070240C8C360
:101210008280944593F7060193F2F60081C7DC4182
:10122000B3E2F20083D3050093F7F30FA5C30323C2
:101230000500611122C226C0814713048002930475
:10124000800405473316F70033F7C3006312E60244
:10125000939527003D473317B7001347F7FF3373C4
:101260006700B395B20033E36500639D860050C903
:1012700085072147E397E7FC124423206500824459
:1012800021018280E39696FE10C9DDB78280084571
:101290006D8D3335A000828019C20CC982804CC983
:1012A000828023AEA1928280371702401C430E0534
:1012B00093F777F05D8D08C38280B7160240DC4259
:1012C00041771307F77FF98F5D8DC8C28280EFE207
:1012D0003FDD371702405C4391462A84B18B63851A
:1012E000D700A1466380D708B7376E0193870760A0
:1012F0001CC0B7160240DC42918313F7F700B70712
:10130000002093870703BA978C23DC42184093F59B
:10131000F50F93F707083355B70081E73A85EFE0FB
:101320007FDB48C008C448C4B7170240DC438D4681
:10133000AD83FD8B13D737008A07F18BD98F13F656
:10134000370113F7370063F4C600138747FFB70769
:1013500000209387C701BA978C23EFE0BFD708C856
:101360006FE0BFD45C43B777DC02938707C049B70F
:1013700099C5371702401C4F5D8D08CF8280B71783
:101380000240984F1345F5FF798D88CF828099C52B
:10139000371702405C4F5D8D48CF8280B7170240FF
:1013A000D84F1345F5FF798DC8CF828099C537177F
:1013B00002405C475D8D48C78280B7170240D8471E
:1013C0001345F5FF798DC8C782801E21373701404C
:1013D000130707C0C207C1836306E5003707004053
:1013E0006316E500BA2193F7F7F8D98FFA2193F73E
:1013F000F7CFC207C183D98F1EA1DE215EB59E2122
:101400001EB5B7370140938707C06314F5009C25CC
:101410001EB985475EA982801E3165771307F7CF15
:10142000C207C183BD9BC207C1831EB11E315621B5
:1014300003D38500C20713960601162DC18393F7C7
:10144000F7FD758F96214182A206558FB62142077E
:101450004183B3E666009206D58FB7360140C207D6
:10146000938606C0C183631ED502B62593F7F7F7AE
:1014700003D3C5009206D58FD621C207C183920639
:1014800093F7F7FBD58FFD769386F63FF18EF22525
:10149000C207C183336666000A06D18E1396060121
:1014A000418252A11AADFA2118DD1EB182801E219F
:1014B00089C593E717001EA18280C207C183F99BEB
:1014C000C207C183CDBF8357450491C52167D98F1A
:1014D0002312F5048280C607C583DDBF1E2189C59E
:1014E00093E707081EA18280C207C18393F7F7F72D
:1014F000C207C183C5BF1A2DFD779387F77FF98F88
:10150000A205CD8FC207C1831EAD8280EFE25FB915
:101510001629F577FD17F58FF621DA252111D58FDC
:101520001EA95625FD779387379FF58FD6212A84EC
:101530002EC0D58F9625D58FB625D58F5EA55E2971
:10154000C207C18393F7F7CF5D8F5AA94800413393
:10155000B74701409387078082456312F406C2476C
:101560005A24139517003E9542070E0541873E9574
:101570008C41635807048605EFE0DFB5930540060C
:101580002AC0EFE03FB5824793144500930540061B
:101590003E85EFE0FFB65E24C207C18763D5070230
:1015A0000E059305400613052503EFE0BFB21D8924
:1015B000C98CC204C18006A461016FE01FAFB247AD
:1015C00045B78A0555BF1205930540061305250347
:1015D000EFE05FB03D89E9BF91C55E250967D98F0E
:1015E0005EA582805A25F977FD17F98FD5BF93F54F
:1015F000F51F4EA182804A211375F51F8280EFE20C
:101600003FAA2A84116511118545130505028D3302
:10161000930700027C80371501408D473EC28A85C2
:10162000E147130505403EC4EFF0BFBE22C6374474
:101630000140B70708006C00130504803ECA02C8C9
:10164000231C0100E13585451305048071377101C4
:101650006FE0BFA5B3C7A5008D8B3307C50081E739
:101660008D4763E7C702AA87637EE50A9421850751
:101670008505A38FD7FEE3EBE7FE828094218507E3
:101680008505A38FD7FEE3EBE7FE024411018280BC
:1016900093763500AA8789CA942185078505A38F8B
:1016A000D7FE93F63700C5BF9376C7FF138606FEB5
:1016B00063F5C706711122C0C04903A3050083A3C7
:1016C0008500C0CB804D23A0670003A3450080CFD9
:1016D000C04D23A2670083A2C50003A30501938523
:1016E0004502C0CF03A4C5FF23A4770023A657005B
:1016F00023A867009387470223AE87FEE3EEC7FA6D
:10170000E3F3D7F890419107910523AEC7FECDBF13
:1017100090419107910523AEC7FEE3EBD7FEE3E7C7
:10172000E7F48280828000000101000000000001D7
:101730000100000000010000000001009C0D0000FD
:10174000C60D0000CC0D0000D20D0000D80D000029
:04175000A00D0000E8
:10175400FF0100000200000001020304050607085F
:101764000102030405060708006CDC0202040608F3
:1017740004080C100810182010203040204060800D
:10178400010203040506070801020304050607080D
:00000001FF
