:100000006F10A00500000000A60E0000A80E000062
:1000100000000000000000000000000000000000E0
:1000200000000000000000000000000000000000D0
:100030009A030000000000005810000000000000BB
:100040005810000058100000581000005810000010
:10005000580500005810000058100000581000000B
:1000600058100000581000005810000058100000F0
:1000700058100000581000005810000058100000E0
:1000800058100000581000005810000058100000D0
:100090005810000058100000581000000000000028
:1000A000511126C022C206C4828282441244A24058
:1000B000310182802A86014593F6150091C232955E
:1000C00085810606F5F9828000000000634E050276
:1000D00063C305042E86AA857D5515C285466378BF
:1000E000B6006356C00006068606E36CB6FE014500
:1000F00063E4C500918D558D85820582F5FA828075
:100100008682C93F2E8582823305A0406347B000B6
:10011000B305B040C1B7B305B0408682653F330533
:10012000A0408282868263C70500634905005D376F
:100130002E858282B305B040E35B05FE3305A04007
:10014000513F3305B040828200002A8311C623004C
:10015000B3007D16050365FE8280B70700200547C2
:1001600023A0E7048280854763EAA700B707002041
:1001700023A0A704B707002023A2B7048280EFF2D0
:100180003FF23704002003274404814731CF03A501
:10019000818093848180F5221307104E8547637513
:1001A000A70437070020834707009306F00F1304C6
:1001B000440413070700639BD7021C40860793F78C
:1001C000F70F1CA389E7FD57232004001CA3B707E2
:1001D00000209387170088231335150088A3EF00AC
:1001E000006B692A88C085473E85C1B5FD17C1BF30
:1001F000EFF21FEB37040020130404041C4089C7EE
:1002000005476388E70055B59D3F75FD85471CC0D0
:10021000DDBF0145EF00A067FDB781C993972500B9
:1002200093850181BE9585479CC18280EFF25FE78F
:100230006111814701473EC23AC093870181014461
:100240000546A1468C436399C5002C00A295050480
:10025000238CE5FE1374F40F05079107E314D7FE12
:100260001DC003A5018393840183212A8967938795
:10027000077163FAA70085476319F4000C800145F4
:10028000DD35ED2888C021010DB59387C180982305
:100290003C0001453E97834587FFF1359387C18038
:1002A00098236315870023800700E1BF050798A303
:1002B000C9BF0A0593870181AA9788437D15133525
:1002C00015008280EFF2DFDDB7F700E023A0070022
:1002D000B707002003A58701B7350C0093850550AB
:1002E000D53B7D15B70700016364F5001385F7FF63
:1002F000B7F700E023A4070088CB2D4798C3B7E7E2
:1003000000E0056723A0E710054723A2E18623A0AC
:1003100001869387818323A007002392070023A4EB
:1003200007002396070023A80700239A070023ACA1
:100330000700239E070023A0070223920702B5B3FC
:1003400003C6418313074006938641836317E60281
:10035000938781831386870285459843631AB70084
:10036000DA237D1742074183DAA319E323A00700AC
:10037000A107E394C7FE23800600828003A50186BF
:10038000828003A7418685476317F70083A701860C
:100390003385A740828001458280B7F700E023A221
:1003A0000700938701869843050798C39387418385
:1003B0009823050798A373002030EFF27FCE938730
:1003C0004188238D07000544938441882285D535D3
:1003D0009307F4FF3315F500BC2C05045D8D1375F0
:1003E000F50FA8ACA147E313F4FE937715008545FC
:1003F00081E7098909C589450145B5337DB1814545
:100400000545E5BF83C7018A1307F00A0545638CDC
:10041000E7001307F00F01456387E700C517B337FF
:10042000F000139517008280EFF29FC771651301EA
:1004300041FD1305052023A8018AEF1060396D46A0
:1004400081451385418811339384018A854505458B
:100450003704024023A0040023A2040023A40400C4
:1004600023A60400EF10E00B13058405EF00B06233
:10047000B7470140130600089386478041478A85A5
:1004800026C232CA8964130600021305840532D0DD
:1004900036C03AC626D202C402C802CC02CE02D46A
:1004A000EF00906813054404EF00F05EB747014089
:1004B000938647804147138341883AC48A856D47B4
:1004C0001305440436C01AC23AC626D202D0EF0041
:1004D000B0651305840505468945EF00B0690546FA
:1004E000130544048945EF00F0681305840585452C
:1004F000EF001067B747014005469305000C1385D0
:100500000780EF10C02B1301C10245B6EFF25FB9AF
:1005100085476315F5000145992E41BE03C5018845
:100520008526E5BFEFF2DFB71384018A1C203D4723
:10053000638FE7001307F00F639AE7005840938733
:10054000818798C31844D8C323000400B9BE01456D
:10055000292605451926CDBF0545EF00306409C998
:1005600083A7018B0545850723A8F18AEF00F06476
:100570001145EF00B0620DC1113523AAA18683A7F2
:10058000C18663F8A700B307F5402398F18623A638
:10059000A1861145EF00706273002030EFF25FB06A
:1005A000511101446358A004130640068146935537
:1005B000F5412A84EF10A0772AC02EC205476303B5
:1005C000E4000584024592459356F441228636C4E0
:1005D000EF106025A246330785003335A700B69596
:1005E0002E957E050583498F630687003A84A944CA
:1005F000FD1481E4228531014DBC0245924593569C
:10060000F441228636C4EF100022A246330785004B
:100610003335A700B6952E959356F5013697B33628
:10062000D700AA96FE060583558FE30587FC3A841A
:10063000C1B7EFF2FFA621110145112C1384818768
:100640000C40493C2AC2054519244C4061341247EC
:100650002AC49307200363F5E7009D450545753ED1
:100660001247C1676355F70022476345F700994574
:10067000054565360545312A9D65938505531D3C25
:100680009305F03FA13493170501C18701458564A7
:100690003EC0012293858438313C9305F03F3D34C0
:1006A000FD779387C7633E95131415002A940E04B3
:1006B0002A941D45F92893858438ED3A9385A47FC3
:1006C00031342AC603A5018B938504770581DD3279
:1006D0002AC803A5818606046D31AA854245DD3A04
:1006E00093170501C1833EC8513923A4A1866356DF
:1006F0000400894501451536014402478567938703
:10070000479C63C6E70085450145013E02C002459E
:10071000A2854D329305803E553A03D70187930554
:1007200020061306B7F942064182AA8693844188BF
:1007300063EBC50405831307C7F99AAC8247138797
:10074000240054C3DEA0924780C01CC7A2475CC7E8
:10075000C2473707002083552700BEA8B24713952C
:100760001700EFF0BF961D3D83D6C18A9A2CC8C8EA
:1007700093F7F60F63F4E6009377F70F2380F18881
:1007800061016FF09F922ACA8D4501457934D246A6
:1007900075B706059387C18CAA978A238280B7070D
:1007A000002023A2A7008280EFF29F8F711189455C
:1007B00037150140EF00D04841C9E144014491455B
:1007C000371501400546EF0050488945371501406F
:1007D0000604EF00F04611C10504FD1401469145E1
:1007E0003715014093F4F40FEF003046E9F8B707EE
:1007F000002083A447008147B33490008504054658
:100800009145371501403EC0EF0030440146914507
:1008100037150140EF007043824737070020130768
:100820004700850793F7F70FE39B97FC9317840026
:1008300063D50700B70700FF5D8C1C4313972700A3
:100840009387C18DBA9780C311016FF01F860A0587
:100850009387C18DAA97884382800A051387C18D2B
:100860002A9718439387418DAA9798C38280EFF205
:100870003F83D14511E181450545B9296FF0FF82DC
:10088000EFF21F82AA85054581296FF01F82EFF2E2
:100890003F81954511E1814519453D296FF0FF8064
:1008A00003A5C18B8967938747DAAA979423854765
:1008B0001387C18B639FF606EFF28FFE9384018C42
:1008C0003386A4000C229D477111931615001384E2
:1008D000418B63E1B70436C0A52C82461387C18BD8
:1008E00010439387418CBE968AA2931616003694C5
:1008F000B6979E231620B294B6971EA09C2085071B
:100900009CA01C438946850763E2F6021CC31101C3
:100910006FF0AFF936949387C18CB69716202300F9
:100920000600231004008D8296A3E1BF2320070058
:10093000F9BF1C438946850763E4F6001CC3828027
:10094000232007008280EFF2AFF5993FB13D6FF0B1
:10095000CFF5EFF2EFF4130181FD61468145080800
:10096000EFF0AFFE854513050020EF00703D3165C7
:10097000EF00D02F854511453714014002C202C453
:1009800002C6EF00F03B9147130504804C007C82C7
:1009900002C6EF00302385451145EF00703A8947C4
:1009A000130504804C007C8202C6EF00B02185450F
:1009B00013050002EF00D038C147130504404C0076
:1009C0007C8202C68964EF00F01F81470144938452
:1009D00044DA854625473386F40010226315D60095
:1009E00005041374F40F8507E397E7FE37170240F9
:1009F0005C4BB7060240717693E717005CCB9C46D0
:100A0000791637250140F18F09661306065AD18FF2
:100A10009CC6C0C69307C5449CCA9387818FDCCA15
:100A200013050540EF00606E85473ECA3ECCB70710
:100A30000E002302810202C83ECE02D001470544C7
:100A4000B387E400942385479375F70F639FF600FF
:100A50003725014022869D46130505403AC0EF0028
:100A6000E077024705041374F40F0507A147E31963
:100A7000F7FC2286372401409D46A145130504401A
:100A8000EF00C0750C0813050440EF00606A85454F
:100A900013050440EF00A06F854513050440EF00E7
:100AA000006E13050440EF00A06F930404402685F8
:100AB000EF00A06F6DFD1305044037240140EF00E7
:100AC000406F930404402685EF00406F6DFD3705AD
:100AD000024085452105EF00B00885451305044017
:100AE000EF00406E130181026FF02FDCEFF24FDB5D
:100AF0000945EF00500939C90945EF00B009896679
:100B000001478147938646DA85431386418E938554
:100B1000818FA1423385E6000821631F750013937E
:100B200017002E9303530300131517003295850702
:100B30002310650093F7F70F0507E31D57FC138794
:100B4000818F8607BA979A23239AE18E6FF0EFD5AB
:100B50009D4763E9A700931715001385418E3E95C5
:100B60000A21828001458280EFF28FD3130740066D
:100B70002A8403D5E191930740066363B700AE87EB
:100B800093F5F70FEFF00FD393054006EFF00FD476
:100B9000420541679387C190418113070706954637
:100BA00098C3EAA363E98602239407008547631D7F
:100BB000F4009385C19037050040EF00F022A14575
:100BC00037050040EF003030854537050040EF0025
:100BD000F02D6FF08FCD09479AA799476314F4025F
:100BE000373401408545130504C0EF00D02A9385B2
:100BF000C190130504C0EF00301FA145130504C0C8
:100C0000EF00702C373501408545130505C0C1B78D
:100C1000EFF20FC9AE87B7060020960503A4860140
:100C20009D8D8A053111BE952AC28E0522853EC052
:100C300002C402C623180100EFF0CFC99304F5FFE8
:100C4000C1668247124763E4D4009384F6FFBE85F1
:100C5000138514003AC0EFF0EFC5AA852285EFF0A6
:100C60006FC77D15C16702476364F5001385F7FF01
:100C700013140501931717009386C1914180B6970D
:100C800082A319C78547630BF70251016FF0EFC1CB
:100C90000565854513050580EF00900A373501404D
:100CA00060866484231701002315010023080100D6
:100CB0002C00130505C0EF00500EC1BF854505454A
:100CC000EF00F0092C0060866484231701002315CF
:100CD000010037050040C5B79D4763E7A700EFF265
:100CE0002FBC59356FF06FBC8280EFF26FBB511192
:100CF00002C002C202C40144896405049D47631115
:100D0000F402373501408545130505C0EF00301763
:100D1000854537050040EF00901631016FF0EFB8C0
:100D2000938704DBA2979C230547E398E7FC614780
:100D30003AC40D473AC2630DF40099476308F402C0
:100D40009305C0030545E935A9452285713775B777
:100D5000854513050002EF00A07E37150140A1472D
:100D60008A85130505407C80B12DD9BF8545454551
:100D7000EF00007DB7070140D8438A853715014051
:100D80001377F7F3D8C3D8431367070CD8C3930777
:100D900000087C80052D8565938505FA01458D3D0C
:100DA00081451945D13391BFEFF28FAF814505459C
:100DB00023A00192EFF02FBB6FF02FAFEFF24FAEF9
:100DC000EFF04FE423A0A19289476306F50001C923
:100DD0008547630CF500EFF04FDE6FF00FAD054572
:100DE000EFF0CFF2EFF00FF4FDB70145EFF00FF2A7
:100DF000DDB7EFF2EFAA7111054523A20192992DFB
:100E0000F522EFF02FCCEFF04FB5EFF09FB4F13DAE
:100E1000EFF08FE1513F0145EFF07F98EFF00FD6F3
:100E2000AA8413844192EFF0AFD1EFF0DFB17D39A6
:100E30001C401547636CF70409678A07130787DBB3
:100E4000BA979C4382871CC0BA84F1BF853FEFF0FC
:100E5000EFD22AC02685EFF0CFD2A54763FBA702C9
:100E600083A78192914602478507E3FEF6FC232083
:100E70000400D9BFEFF0EFFBD9BFEFF0DFACC1BF8B
:100E8000EFF0CFBAE9B7EFF0AFB6D1B72320040047
:100E90007DBF1C4015476384E70023A4F19295476A
:100EA0001CC0268755B701A0B707EFBE37E700E0A3
:100EB000938707083CC701A0EFF28F9E37140240CA
:100EC0001C403707FFF8611193E717001CC05C4016
:100ED0004145F98F5CC01C403707F7FE7D17F98F3D
:100EE0001CC01C403707FCFF7D17F98F1CC05C40FD
:100EF00041777D17F98F5CC0B7079F001CC4B12BE9
:100F00001C4C3706020093E707021CCCB7170140C0
:100F100003A70740938607401377F7F023A0E74025
:100F200003A707401367070823A0E74089479CCA27
:100F300002C002C21C4C37070140A16693E71700AC
:100F40001CCC5C43D58F5CC31C404167B716024084
:100F5000D98F1CC009679C42F18F3EC2824785072A
:100F60003EC0924781E78247E397E7FEB71702400A
:100F70009C431397E7006359070685473EC2124713
:100F800085476310F706B72702409843C176FD16E0
:100F9000719B98C398431367170098C3B717024013
:100FA000D843D8C3D843758FD8C3D843C166558FAB
:100FB000D8C39843B7060001558F98C3984393163A
:100FC0006700E3DD06FED843B7160240719BD8C325
:100FD000D84313672700D8C32147DC42B18BE39E77
:100FE000E7FE21016FF06F8C02C251BFEFF24F8B11
:100FF000371702405C43370400209146B18B13043D
:1010000084016385D700A1466382D704B7376E0198
:10101000938707601CC0B7160240DC4208409183EA
:1010200013F7F700B707002093878700BA978C2340
:10103000DC4293F5F50F93F707083357B50081E7C6
:10104000EFF04F892A8718C06FF02F865C43B7777F
:10105000DC02938707C07DBF01A097F1FF1F93813A
:10106000617E138101FC1305000A97F5FF1F93852C
:1010700065F917F6FF1F1306E6F863FAC500832229
:10108000050023A0550011059105E3EAC5FE1715DB
:101090000000130525E497F5FF1F9385A5F617F6C5
:1010A000FF1F130626FA63FAC5008322050023A05A
:1010B000550011059105E3EAC5FE17F5FF1F13055D
:1010C00065F8938501936377B5002320050011052A
:1010D000E36DB5FEB7220000938202887390023060
:1010E0008D427390428097F2FFFF9382A2F193E2C8
:1010F000320073905230EFF03FDC97020000938291
:1011000082CF7390123473002030B7270140938749
:101110000740631EF500EFE2BFF885451305002088
:10112000B12981451305002091296FE01FF88280C5
:101130005C413707F1FF1307F7EF7D8FDC419441E6
:10114000A207D58FD98F5CC11C4537F7F1FF130774
:10115000D77FD4457D8F9C49D58F94458606D58F02
:10116000D98F1CC55C55370710FF7D177D8FDC2993
:10117000FD1793F7F70FD207D98F5CD582801C45F6
:1011800089C593E717001CC58280F99BEDBF1C45FC
:1011900089C593E707101CC5828093F7F7EFE5BF79
:1011A0001C4593E787001CC5828008450D81058991
:1011B00082801C4593E747001CC582800845098151
:1011C000058982801C4591C537075000D98F1CC501
:1011D00082803707B0FF7D17F98FD5BFA54763F829
:1011E000B704138765FF931717008322C500BA97CA
:1011F0001D433313F3001343F3FF33735300B397CB
:10120000F600B3E767005CC5994763E3C7047D1642
:10121000931726003E965859FD47B397C70093C7CA
:10122000F7FFF98FB395C500DD8D4CD98280939778
:10123000150003230501AE971D473317F700134729
:10124000F7FF33776700B397F6005D8F18C96DBF5E
:10125000B14763E2C7026516931726003E961859F8
:10126000FD47B397C70093C7F7FFF98FB395C50044
:10127000DD8D0CD982804D161317260054553A96F1
:10128000FD47B397C70093C7F7FFF58FB395C50028
:10129000DD8D4CD582801C4141677917F98F1CC1C7
:1012A000232005002322050023240500B707024060
:1012B00023260500138787006317E500D8431367CB
:1012C000F700D8C382801387C7016316E500D843AF
:1012D0001367070FFDB7138707036318E500D843AB
:1012E0008566938606F0558FE9BF1387470463151B
:1012F000E500D843BD66C5BF138787056316E500C3
:10130000D843B7060F00C5B71387C7066316E500B5
:10131000D843B706F000C1BF13870708E314E5FA06
:10132000D843B706000FC1B71841E177BD07945104
:101330007D8F9C45D58F9449D58FD449D58F944DB9
:10134000D58FD44DD58FD451D58F9455D58FD98F76
:101350001CC1DC455CC19C411CC5DC415CC5828074
:101360001C4189C593E717001CC18280416779172A
:10137000F98FDDBF1C4101C6DD8D0CC1828093C594
:10138000F5FFFD8DDDBFB70702409C437D8D3335F2
:10139000A0008280B7070240C8C38280B70701401F
:1013A0001387074083A70740584B698F09C77D8D76
:1013B0003335A000828001458280B707014023AA0F
:1013C000A7408280944593F7060193F2F60081C707
:1013D000DC41B3E2F20083D3050093F7F30FA5C31A
:1013E00003230500611122C226C081471304800235
:1013F0009304800405473316F70033F7C3006312E4
:10140000E602939527003D473317B7001347F7FFD0
:1014100033736700B395B20033E36500639D8600C4
:1014200050C985072147E397E7FC12442320650054
:10143000824421018280E39696FE10C9DDB7828046
:1014400008456D8D3335A000828019C20CC9828099
:101450004CC9828023A6A1928280371702401C4388
:101460000E0593F777F05D8D08C38280B7160240B2
:10147000DC4241771307F77FF98F5D8DC8C2828008
:10148000EFE21FC2371702405C4391462A84B18BBA
:101490006385D700A1466380D708B7376E0193876D
:1014A00007601CC0B7160240DC42918313F7F700B7
:1014B000B707002093870703BA978C23DC421840B4
:1014C00093F5F50F93F707083355B70081E73A8591
:1014D000EFE05FC048C008C448C4B7170240DC430F
:1014E0008D46AD83FD8B13D737008A07F18BD98FDB
:1014F00013F6370113F7370063F4C600138747FF6D
:10150000B70700209387C701BA978C23EFE09FBCF1
:1015100008C86FE09FB95C43B777DC02938707C0C8
:1015200049B799C5371702405C4B5D8D48CB828027
:10153000B7170240D84B1345F5FF798DC8CB828091
:1015400099C5371702401C4F5D8D08CF8280B717B1
:101550000240984F1345F5FF798D88CF828099C559
:10156000371702405C4F5D8D48CF8280B71702402D
:10157000D84F1345F5FF798DC8CF828099C53717AD
:1015800002405C475D8D48C78280B7170240D8474C
:101590001345F5FF798DC8C782801E21373701407A
:1015A000130707C0C207C1836306E5003707004081
:1015B0006316E500BA2193F7F7F8D98FFA2193F76C
:1015C000F7CFC207C183D98F1EA1DE215EB59E2150
:1015D0001EB5B7370140938707C06314F5009C25FB
:1015E0001EB985475EA982801E3165771307F7CF44
:1015F000C207C183BD9BC207C1831EB11E315621E4
:1016000003D38500C20713960601162DC18393F7F5
:10161000F7FD758F96214182A206558FB6214207AC
:101620004183B3E666009206D58FB7360140C20704
:10163000938606C0C183631ED502B62593F7F7F7DC
:1016400003D3C5009206D58FD621C207C183920667
:1016500093F7F7FBD58FFD769386F63FF18EF22553
:10166000C207C183336666000A06D18E139606014F
:10167000418252A11AADFA2118DD1EB182801E21CD
:1016800089C593E717001EA18280C207C183F99B19
:10169000C207C183CDBF8357450491C52167D98F48
:1016A0002312F5048280C607C583DDBF1E2189C5CC
:1016B00093E707081EA18280C207C18393F7F7F75B
:1016C000C207C183C5BF1A2DFD779387F77FF98FB6
:1016D000A205CD8FC207C1831EAD8280EFE25F9C61
:1016E0001629F577FD17F58FF621DA252111D58F0B
:1016F0001EA95625FD779387379FF58FD6212A841B
:101700002EC0D58F9625D58FB625D58F5EA55E299F
:10171000C207C18393F7F7CF5D8F5AA948008D3375
:10172000B74701409387078082456312F406C2479A
:101730005A24139517003E9542070E0541873E95A2
:101740008C41635807048605EFE0DF989305400657
:101750002AC0EFE03F988247931445009305400666
:101760003E85EFE0FF995E24C207C18763D507027B
:101770000E059305400613052503EFE0BF951D896F
:10178000C98CC204C18006A461016FE01F92B247F8
:1017900045B78A0555BF1205930540061305250375
:1017A000EFE05F933D89E9BF91C55E250967D98F59
:1017B0005EA582805A25F977FD17F98FD5BF5E297E
:1017C00001C6DD8D4EA9828093C5F5FFFD8DDDBF7D
:1017D000EFE21F8D2A84116511118545130505025D
:1017E0008533930700027C80371501408D473EC248
:1017F0008A85E147130505403EC4EFF0BFBC22C611
:1018000037440140B70708006C00130504803ECA46
:1018100002C8231C0100D9358545130504806937AA
:1018200071016FE09F88797106D622D426D202C05A
:101830002A8763CE051263DD06000245B337C00078
:10184000B306D0401345F5FF2AC09D8E3306C04035
:10185000B2843A84AE826399060E63F7C516C166F8
:101860006363D624B7060001B336D600B306D04072
:10187000E19AE106B353D60017050000130585551C
:101880001E95082193030002AA963385D340638CEA
:10189000D300B392A500B356D700B314A600B3E2A9
:1018A00056003314A70093D70401BE8516853EC2A7
:1018B00016C8EFE03F82139704014183AA852AC42A
:1018C0003A853AC6EFE00FFFC2429245AA861685D6
:1018D00036C8EFE0FF82C246420513570401498F24
:1018E000637BD700A24726971386F7FF63649700B0
:1018F0006367D74232C49245158F3A853ACAEFE002
:101900006FFDAA852AC8324542044180EFE08FFA74
:10191000524792452A863A8532C2EFE06FFE9247DF
:101920004205498CC246637BF40026941387F6FF78
:1019300063659400F9166363F400BA86A247014711
:10194000C20733E5D70029A063FDD5020147014551
:101950008247BA8581CBB337A000B305E0409D8DA7
:101960003305A040B2502254925445618280B3376F
:10197000A000B305B0409D8DFD573307A0403EC089
:101980005DBDC16763E8F620B7070001B3B7F60095
:10199000B307F040E19BE107B3D2F6001705000062
:1019A0001305454316950821930200023E95B3871F
:1019B000A2403EC26396A21E63E4B634B337C700AA
:1019C00013C51700014769B76305060EC166637149
:1019D000D63213350610134515000E05B352A60076
:1019E000970600009386063F969694229303000282
:1019F000AA96B382D340639DD30C935706013EC28F
:101A000093170601C183B386C5403EC4054792457E
:101A100036853ACA36C8EFE0EFEBA2452AC6EFE0BA
:101A20006FE9C24692452A86368532C8EFE04FED0F
:101A30004246420593560401C98E524763FBC600D5
:101A4000B247A6969385F7FF63E4960063E5C62C3C
:101A50002EC692453386C64032853ACA32C8EFE078
:101A60006FE7A2452AC44204EFE0CFE44246924524
:101A7000AA82328516C2EFE0AFE892474205418064
:101A8000498CA2465247637BF40026941386F6FFE6
:101A900063659400F9166363F400B286B247C20727
:101AA00033E5D70075B59336061093C616008E063B
:101AB000D1B38142970600009386C6319696942250
:101AC000014593030002AA96B382D340E387D3F281
:101AD000B314560093D7040133D6D500B393550001
:101AE000B356D700B3E67600BE853285331457006F
:101AF0003EC232CA36C6EFE0EFDD139704014183E0
:101B0000AA852AC83A853AC4EFE0CFDA5246924510
:101B1000AA86328536CAEFE0AFDEB246420513D759
:101B20000601D246498F637DD700C24726971386A8
:101B3000F7FF636E971C637CD71CF9173EC8269786
:101B40009245158F3A853ACAEFE0CFD8AA852ACCBC
:101B50002245EFE02FD652479245AA823A8516CA0F
:101B6000EFE00FDA3486D2424205C98E624663FB4B
:101B70005600A6961307F6FF63E7961863F5561806
:101B80007916A696C247B38656409395070133E768
:101B9000C500B5BD93B7061093C717008E07EDBB00
:101BA00092473354A60033D3A500B396F600558C64
:101BB000B352A700BE8693540401B397F500B3E770
:101BC000F2001A853ACEA6853317D6003EC41ACC49
:101BD0003AC8EFE02FD0131704014183AA852AC623
:101BE0003A853ACAEFE00FCD6243AA86A6851A85E8
:101BF00036CCEFE0EFD0A247E2464205C183C98F61
:101C0000724763FED700B245A2971386F5FF63E2E1
:101C1000871063F0D7101386E5FF32C6A297958F21
:101C2000A6853E853AD03ECEEFE0CFCAAA852ACC23
:101C30005245EFE02FC8F247AA86A6853E85B684B6
:101C4000EFE00FCC348442056246C98E025763FB35
:101C50009600A2969307F6FF63E9860A63F7960A51
:101C60007916A296B24741639302F3FFC207D18F60
:101C7000424633F45700B3849640B37256009356ED
:101C8000060193D3070136C422859685EFE08FC203
:101C90002AC6A2452285EFE0EFC12A8496851E85DB
:101CA000EFE04FC1AA82A2451E85EFE0AFC0B24669
:101CB0001694C182A29663F356001A9513D60601B4
:101CC0002A9663E3C4026385C4003E85014749B197
:101CD000B24541667D16F18E6D8E9245C206B29672
:101CE0003317B700E373D7FE1385F7FF01478DB1B4
:101CF000B70600016379D602935206014145CDB182
:101D000001470545B1B13A86B5BD3E86A1BF32C88F
:101D100005BD32C629B7F9173EC6A6961DBBF917F1
:101D20003EC42697C9BE93528601614555B921111B
:101D30002A8332852E86B68206CA22C826C61A870C
:101D4000AA868147814581431AC032C22AC433061C
:101D5000770013F316003384F5001355F7018582DD
:101D6000B334E600860763050300B283B3858400BD
:101D70000607C98FE9FE124602432245AE8709C60F
:101D8000B285EFE02FB3AA97638702001A85968584
:101D9000EFE04FB2AA97D2404244B2441E85BE85BE
:101DA00061018280010100000000000101000000CB
:101DB00000010000000001004C0E0000740E000045
:101DC0007A0E0000800E0000860E00004E0E00000D
:101DD00000010202030303030404040404040404D2
:101DE00005050505050505050505050505050505A3
:101DF0000606060606060606060606060606060683
:101E00000606060606060606060606060606060672
:101E10000707070707070707070707070707070752
:101E20000707070707070707070707070707070742
:101E30000707070707070707070707070707070732
:101E40000707070707070707070707070707070722
:101E50000808080808080808080808080808080802
:101E600008080808080808080808080808080808F2
:101E700008080808080808080808080808080808E2
:101E800008080808080808080808080808080808D2
:101E900008080808080808080808080808080808C2
:101EA00008080808080808080808080808080808B2
:101EB00008080808080808080808080808080808A2
:101EC0000808080808080808080808080808080892
:101ED000FF01C9040200000001020304050607080F
:101EE0000102030405060708006CDC020204060870
:101EF00004080C100810182010203040204060808A
:101F00000102030405060708010203040506070889
:00000001FF
