:100000006F00903A00000000F4090000F6090000BB
:1000100000000000000000000000000000000000E0
:1000200000000000000000000000000000000000D0
:10003000A203000000000000A60B0000000000006A
:10004000A60B0000A60B0000A60B0000A60B0000EC
:10005000A60B0000A60B0000A60B0000A60B0000DC
:10006000A60B0000A60B0000A60B0000A60B0000CC
:10007000A60B0000A60B0000A60B0000A60B0000BC
:10008000A60B0000A60B0000A60B0000A60B0000AC
:10009000A60B0000A60B0000A60B0000000000004D
:1000A000511126C022C206C4828282441244A24058
:1000B000310182802A86014593F6150091C232955E
:1000C00085810606F5F9828000000000634E050276
:1000D00063C305042E86AA857D5515C285466378BF
:1000E000B6006356C00006068606E36CB6FE014500
:1000F00063E4C500918D558D85820582F5FA828075
:100100008682C93F2E8582823305A04063D70500D1
:10011000B305B040C1B7B305B0408682653F330533
:10012000A0408282868263C70500634905005D376F
:100130002E858282B305B040E35B05FE3305A04007
:10014000513F3305B040828200003D432A876373EC
:10015000C3029377F700BDEFADE5937606FF3D8AC6
:10016000BA960CC34CC30CC74CC74107E36BD7FE10
:1001700011E28280B306C3408A0697020000969679
:100180006780A6002307B700A306B7002306B700C1
:10019000A305B7002305B700A304B7002304B700E5
:1001A000A303B7002303B700A302B7002302B700DD
:1001B000A301B7002301B700A300B7002300B700D5
:1001C000828093F5F50F93968500D58D9396050162
:1001D000D58D61B793962700970200009696868288
:1001E000E78086FA9680C1171D8F3E96E374C3F8A8
:1001F000A5B7B7070020054723A0E70482808547FD
:1002000063EAA700B707002023A0A704B7070020D0
:1002100023A2B7048280EFF2BFE83704002003274F
:100220004404814729CF03A5818093848180B12A2A
:100230001307104E85476374A704370700208347D0
:1002400007009306F00F1304440413070700639A92
:10025000D7021C40860793F7F70F1CA389E7FD57C9
:10026000232004001CA3B7070020938717008823CE
:100270001335150088A3C52A312288C085473E85DD
:100280002DB5FD17C9BFEFF2BFE1370400201304FD
:1002900004041C4089C705476388E70039B5A53FBA
:1002A00075FD85471CC0DDBF0145752AC5BFEFF24E
:1002B0003FDF511102C002C2231401009387018164
:1002C000014701440546A9468C436399C5006C006B
:1002D000A2950504238AE5FE1374F40F0507910720
:1002E000E314D7FE1DC003A5818393848183712805
:1002F00089679387077163FAA70085476319F4003C
:100300000C800145ED3DBD2888C0310179BB938744
:10031000C18098237C0001453E97834547FFC53542
:100320009387C18098236315870023800700E1BF6E
:10033000050798A3C9BFEFF2BFD6B7F700E023A027
:100340000700B707002003A58701A965938505C4A9
:1003500051337D15B70700016364F5001385F7FF7E
:10036000B7F700E023A4070088CB2D4798C3B7E771
:1003700000E0056723A0E710054723A0E18423AE32
:10038000018225B303A5C183828003A70184854729
:100390006317F70083A7C1833385A7408280014597
:1003A0008280B7F700E023A207009387C1839843B8
:1003B000050798C373002030B707002023A2A700C9
:1003C0008280EFF2FFCD7111894537150140EF00B2
:1003D000D02B41C9E144014485453715014005460C
:1003E000EF00502B8945371501400604EF00F02936
:1003F00011C10504FD14014685453715014093F4EC
:10040000F40FEF003029E9F8B707002083A4470074
:100410008147B33490008504054685453715014072
:100420003EC0EF0030270146854537150140EF00FB
:10043000702682473707002013074700850793F788
:10044000F70FE39B97FC9317840063D50700B7076A
:1004500000FF5D8C1C431397270093874186BA9752
:1004600080C3110199B1EFF2BFC3954511E18145F8
:10047000194519291DB903A5C184856793870724E8
:10048000AA97942385471387C184639DF606EFF2EC
:100490003FC1938401853386A4000C229D477111CE
:1004A000931615001384418463E0B70436C0912C81
:1004B00082461387C184104393874185BE968AA2E2
:1004C000931616003694B6979E231620B294B697CC
:1004D0001EA09C2085079CA01C438D46850763E1D8
:1004E000F6021CC31101D1B636949387C185B69725
:1004F000162023000600231004008D8296A3E9BF76
:100500008947C5B71C438D46850763E4F6001CC3C5
:1005100082808947EDBFEFF2BFB8B13F5D3571B65C
:10052000EFF21FB8130181FD61468145080831399A
:10053000854513050020EF0070233165EF00B017EB
:100540008545414502C202C402C6EF003022C147C0
:100550004C00371501407C8202C6EF00500B8545E8
:1005600013050002EF0090203715014091474C0021
:10057000130505407C8202C68564EF00500985475B
:10058000014493840424854625473386F4001022D1
:100590006315D60005041374F40F8507E397E7FE8F
:1005A000371702405C4BB7060240717693E717009D
:1005B0005CCB9C46791637250140F18F09661306FE
:1005C000065AD18F9CC6C0C69307C5449CCA938760
:1005D0000188DCCA13050540EF00006885473ECA64
:1005E0003ECCB7070E002302810202C83ECE02D0E5
:1005F00005470544A1479375F70F631EF70622864A
:10060000372401409D46A14513050440EF00E071E9
:100610000C0813050440EF0080668545130504406F
:10062000EF00C06B854513050440EF00206A1305F9
:100630000440EF00C06B930404402685EF00C06BBC
:100640006DFD1305044037240140EF00606B9304F7
:1006500004402685EF00606B6DFD3705024085453F
:100660002105EF002078854513050440EF00606AFE
:10067000130181021DBCB387E40094238547639F67
:10068000F6003725014022869D46130505403AC0F5
:10069000EF00A069024705041374F40F050799BF22
:1006A000EFF21FA00945EF00207539C90945EF0099
:1006B00080758566014781479386062485431386A6
:1006C000C18693850188A1423385E6000821631F16
:1006D0007500139317002E9303530300131517008F
:1006E000329585072310650093F7F70F0507E31D83
:1006F00057FC138701888607BA979A23239EE186C1
:100700006DB29D4763E9A700931715001385C18655
:100710003E950A21828001458280EFF27F9813077F
:1007200040062A8403D5618A930740066363B700B5
:10073000AE8793F5F70FEFF0FF97930540067932F8
:100740004205416793874189418113070706954612
:1007500098C3EAA363E98602239407008547631DD3
:10076000F4009385418937050040EF00B00AA145A8
:1007700037050040EF00F017854537050040EF00D2
:10078000B0156FF09F9209479AA799476314F40236
:10079000373401408545130504C0EF00901293855E
:1007A0004189130504C0EF00F006A145130504C0FC
:1007B000EF003014373501408545130505C0C1B73A
:1007C000EFF21F8EAE87B7060020960503A48601C0
:1007D0009D8D8A053111BE952AC28E0522853EC0A7
:1007E00002C402C623180100EFF0DF8E9304F5FF68
:1007F000C1668247124763E4D4009384F6FFBE8546
:10080000138514003AC0EFF0FF8AAA852285EFF025
:100810007F8C7D15C16702476364F5001385F7FF80
:1008200013140501931717009386418A4180B697E8
:1008300082A319C78547630BF70251016FF0FF864A
:100840000565854513050580EF0040723735014089
:10085000608664842317010023150100230801002A
:100860002C00130505C0EF000076C1BF8545054586
:10087000EF00A0712C00608664842317010023150B
:10088000010037050040C5B79D4763E7A700EFF2B9
:100890003F8161356FF07F818280EFF27F8051115F
:1008A00002C002C202C40144856405049D4763116D
:1008B000F402373501408545130505C0EF00E07EA1
:1008C000854537050040EF00407E31016FF0EFFDB8
:1008D0009387C424A2979C230547E398E7FC6147CC
:1008E0003AC40D473AC2630DF40099476307F40216
:1008F0009305C0030545E935A9452285713775B7CC
:100900008545130500029D2537150140A1478A85BD
:10091000130505407C80E529E1BF85454545B9259E
:10092000B7070140D8438A85371501401377F7F39D
:10093000D8C3D8431367070CD8C3930700087C803B
:10094000F9218565938505FA01459D3D8145194548
:10095000E933A1BFEFF2CFF47111054523A4018A59
:100960003D2BE12A716513050520EF001008EFF01B
:100970009F9CEFF01F886D360D370145353CEFF039
:100980007FA0AA841384818A7936193B1C401547BD
:100990006365F70405678A0713074725BA979C43E1
:1009A00082871CC0BA84CDB7BD36EFF0BF9D2AC088
:1009B0002685EFF09F9D914663F4A60283A7C18A26
:1009C00002478507E3FFF6FC23200400E1BFEFF0B8
:1009D0001F8EE1BFEFF03F8BC9BF23200400F1B7AA
:1009E0001C4015476384E70023A6F18A95471CC085
:1009F00026874DBF01A0B707EFBE37E700E093871A
:100A000007083CC701A0EFF2AFE9371402401C40D1
:100A10003707FFF8611193E717001CC05C404145A0
:100A2000F98F5CC01C403707F7FE7D17F98F1CC09B
:100A30001C403707FCFF7D17F98F1CC05C404177D5
:100A40007D17F98F5CC0B7079F001CC4A1291C4CFF
:100A50003706020093E707021CCCB717014003A733
:100A60000740938607401377F7F023A0E74003A7DA
:100A700007401367070823A0E74089479CCA02C0C4
:100A800002C21C4C37070140A16693E717001CCC3B
:100A90005C43D58F5CC31C404167B7160240D98FB9
:100AA0001CC009679C42F18F3EC2824785073EC049
:100AB000924781E78247E397E7FEB71702409C43DE
:100AC0001397E7006359070685473EC212478547DB
:100AD0006310F706B72702409843C176FD16719B55
:100AE00098C398431367170098C3B7170240D843B9
:100AF000D8C3D843758FD8C3D843C166558FD8C3E0
:100B00009843B7060001558F98C398439316670022
:100B1000E3DD06FED843B7160240719BD8C3D84325
:100B200013672700D8C32147DC42B18BE39EE7FE61
:100B300021016FF08FD702C251BFEFF26FD6371786
:100B400002405C43370400209146B18B13048401BA
:100B50006385D700A1466382D704B7376E019387B8
:100B600007601CC0B7160240DC420840918313F7AF
:100B7000F700B707002093878700BA978C23DC42E1
:100B800093F5F50F93F707083357B50081E7EFF0BA
:100B90006FD42A8718C06FF04FD15C43B777DC025F
:100BA000938707C07DBF01A097010020938181C971
:100BB000138101FC1305000A97F5FF1F93858544F7
:100BC00017F6FF1F1306064463FAC50083220500CB
:100BD00023A0550011059105E3EAC5FE17050000A5
:100BE0001305056997F5FF1F9385C54117F6FF1F8C
:100BF0001306464563FAC5008322050023A055006D
:100C000011059105E3EAC5FE17F5FF1F130585439E
:100C10009385418B6377B500232005001105E36DB3
:100C2000B5FEB722000093820288739002308D4295
:100C30007390428097F2FFFF9382C23C93E23200AE
:100C400073905230EFF03FDC970200009382C2D0E5
:100C50007390123473002030B72701409387074008
:100C6000631EF500EFF2CFC38545130500202D2E3E
:100C70008145130500200D2E6FF02FC382805C414B
:100C80003707F1FF1307F7EF7D8FDC419441A2078F
:100C9000D58FD98F5CC11C4537F7F1FF1307D77F7C
:100CA000D4457D8F9C49D58F94458606D58FD98FA5
:100CB0001CC55C55370710FF7D177D8FDC29FD179C
:100CC00093F7F70FD207D98F5CD582801C4589C571
:100CD00093E717001CC58280F99BEDBF1C4589C5B1
:100CE00093E707101CC5828093F7F7EFE5BF1C451B
:100CF00093E787001CC5828008450D8105898280A5
:100D00001C4593E747001CC5828008450981058979
:100D100082801C4591C537075000D98F1CC5828041
:100D20003707B0FF7D17F98FD5BFA54763F8B70424
:100D3000138765FF931717008322C500BA971D43D9
:100D40003313F3001343F3FF33735300B397F600E9
:100D5000B3E767005CC5994763E3C7047D16931743
:100D600026003E965859FD47B397C70093C7F7FF33
:100D7000F98FB395C500DD8D4CD98280939715000E
:100D800003230501AE971D473317F7001347F7FFFD
:100D900033776700B397F6005D8F18C96DBFB14711
:100DA00063E2C7026516931726003E961859FD4761
:100DB000B397C70093C7F7FFF98FB395C500DD8DD3
:100DC0000CD982804D161317260054553A96FD47CC
:100DD000B397C70093C7F7FFF58FB395C500DD8DB7
:100DE0004CD582801C4189C593E717001CC18280C5
:100DF00041677917F98FDDBFB70702409C437D8DAE
:100E00003335A0008280B7070240C8C38280944572
:100E100093F7060193F2F60081C7DC41B3E2F200DA
:100E200083D3050093F7F30FA5C3032305006111D6
:100E300022C226C081471304800293048004054720
:100E40003316F70033F7C3006312E60293952700C9
:100E50003D473317B7001347F7FF33736700B39568
:100E6000B20033E36500639D860050C985072147C2
:100E7000E397E7FC1244232065008244210182802D
:100E8000E39696FE10C9DDB7828008456D8D333537
:100E9000A000828019C20CC982804CC9828023A81C
:100EA000A18A8280371702401C430E0593F777F022
:100EB0005D8D08C38280B7160240DC42417713077C
:100EC000F77FF98F5D8DC8C28280EFF26F9D371773
:100ED00002405C4391462A84B18B6385D700A146CA
:100EE0006380D708B7376E01938707601CC0B716B9
:100EF0000240DC42918313F7F700B7070020938785
:100F00000703BA978C23DC42184093F5F50F93F74B
:100F100007083355B70081E73A85EFF0AF9B48C02B
:100F200008C448C4B7170240DC438D46AD83FD8B2F
:100F300013D737008A07F18BD98F13F6370113F7D0
:100F4000370063F4C600138747FFB7070020938775
:100F5000C701BA978C23EFF0EF9708C86FF0EF94B2
:100F60005C43B777DC02938707C049B799C5371749
:100F700002401C4F5D8D08CF8280B7170240984F0A
:100F80001345F5FF798D88CF828099C537170240C8
:100F90005C4F5D8D48CF8280B7170240D84F134514
:100FA000F5FF798DC8CF828099C5371702405C471D
:100FB0005D8D48C78280B7170240D8471345F5FFBB
:100FC000798DC8C782801E2137370140130707C0BB
:100FD000C207C1836306E500370700406316E500DA
:100FE000BA2193F7F7F8D98FFA2193F7F7CFC20711
:100FF000C183D98F1EA1DE215EB59E211EB5B737F4
:101000000140938707C06314F5009C251EB98547EE
:101010005EA982801E3165771307F7CFC207C183AF
:10102000BD9BC207C1831EB11E31562103D385006B
:10103000C20713960601162DC18393F7F7FD758F2E
:1010400096214182A206558FB62142074183B3E61D
:1010500066009206D58FB7360140C207938606C058
:10106000C183631ED502B62593F7F7F703D3C500F6
:101070009206D58FD621C207C183920693F7F7FB5C
:10108000D58FFD769386F63FF18EF225C207C18398
:10109000336666000A06D18E13960601418252A17C
:1010A0001AADFA2118DD1EB182801E2189C593E791
:1010B00017001EA18280C207C183F99BC207C183AA
:1010C000CDBF8357450491C52167D98F2312F504FD
:1010D0008280C607C583DDBF1E2189C593E7070847
:1010E0001EA18280C207C18393F7F7F7C207C183AD
:1010F000C5BF1A2DFD779387F77FF98FA205CD8F96
:10110000C207C1831EAD8280EFE29FF91629F577F1
:10111000FD17F58FF621DA252111D58F1EA9562549
:10112000FD779387379FF58FD6212A842EC0D58FE0
:101130009625D58FB625D58F5EA55E29C207C183BA
:1011400093F7F7CF5D8F5AA948004133B747014065
:101150009387078082456312F406C2475A24139589
:1011600017003E9542070E0541873E958C41635816
:1011700007048605EFE01FF6930540062AC0EFE05E
:101180007FF5824793144500930540063E85EFE0C6
:101190003FF75E24C207C18763D507020E0593059A
:1011A000400613052503EFE0FFF21D89C98CC20438
:1011B000C18006A461016FE05FEFB24745B78A05C1
:1011C00055BF12059305400613052503EFE09FF078
:1011D0003D89E9BF91C55E250967D98F5EA58280EB
:1011E0005A25F977FD17F98FD5BFEFE27FEB2A84F7
:1011F000116511118545130505028D3B930700020A
:101200007C80371501408D473EC28A85E147130532
:1012100005403EC4ED3E22C637440140B7070800F2
:101220006C00130504803ECA02C8231C0100E93D7E
:10123000854513050480793F71016FE01FE70000C9
:10124000000001010000000001000000000100009A
:1012500000000100AA090000AA090000A809000076
:0C126000CE090000D4090000AA0900001B
:10126C00FF0100000200000001020304050607084C
:10127C000102030405060708006CDC0202040608E0
:10128C0004080C10081018201020304020406080FA
:10129C0001020304050607080102030405060708FA
:00000001FF
