:100000006F10E01E000000003A1000003C100000DD
:1000100000000000000000000000000000000000E0
:1000200000000000000000000000000000000000D0
:100030007E04000000000000EC1100000000000041
:10004000EC110000EC110000EC110000EC110000BC
:1000500086050000EC110000EC110000EC1100001E
:10006000EC110000EC110000EC110000EC1100009C
:10007000EC110000EC110000EC110000EC1100008C
:10008000EC110000EC110000EC110000EC1100007C
:10009000EC110000EC110000EC1100000000000069
:1000A000511126C022C206C4828282441244A24058
:1000B000310182802A86014593F6150091C232955E
:1000C00085810606F5F9828000000000634E050276
:1000D00063C305042E86AA857D5515C285466378BF
:1000E000B6006356C00006068606E36CB6FE014500
:1000F00063E4C500918D558D85820582F5FA828075
:100100008682C93F2E8582823305A04063D70500D1
:10011000B305B040C1B7B305B0408682653F330533
:10012000A0408282868263C70500634905005D376F
:100130002E858282B305B040E35B05FE3305A04007
:10014000513F3305B040828200003D432A876373EC
:10015000C3029377F700BDEFADE5937606FF3D8AC6
:10016000BA960CC34CC30CC74CC74107E36BD7FE10
:1001700011E28280B306C3408A0697020000969679
:100180006780A6002307B700A306B7002306B700C1
:10019000A305B7002305B700A304B7002304B700E5
:1001A000A303B7002303B700A302B7002302B700DD
:1001B000A301B7002301B700A300B7002300B700D5
:1001C000828093F5F50F93968500D58D9396050162
:1001D000D58D61B793962700970200009696868288
:1001E000E78086FA9680C1171D8F3E96E374C3F8A8
:1001F000A5B7B7070020054723A0E70482808547FD
:1002000063EAA700B707002023A0A704B7070020D0
:1002100023A2B7048280EFF2BFE83704002003274F
:100220004404814731CF03A5818093848180252CAC
:100230001307104E85476375A704370700208347CF
:1002400007009306F00F1304440413070700639B91
:10025000D7021C40860793F7F70F1CA389E7FD57C9
:10026000232004001CA3B7070020938717008823CE
:100270001335150088A3EF00807BDD2288C08547F9
:100280003E8525B5FD17C1BFEFF29FE13704002081
:10029000130404041C4089C705476388E70031B58F
:1002A0009D3F75FD85471CC0DDBF0145EF002078EF
:1002B000FDB781C99397250093850181BE95854738
:1002C0009CC18280EFF2DFDD6111814701473EC2B0
:1002D0003AC09387018101440546A1468C43639946
:1002E000C5002C00A2950504238CE5FE1374F40FC1
:1002F00005079107E314D7FE1DC003A5018393846E
:100300000183952289679387077163FAA700854760
:100310006319F4000C800145DD35992288C0210164
:1003200069B39387C18098233C0001453E9783457C
:1003300087FFF1359387C180982363158700238059
:100340000700E1BF050798A3C9BF0A05938701818C
:10035000AA9788437D15133515008280EFF25FD48C
:10036000B7F700E023A00700B707002003A5870127
:10037000B7350C0093850550B13B7D15B7070001DB
:100380006364F5001385F7FFB7F700E023A40700C7
:1003900088CB2D4798C3B7E700E0056723A0E71097
:1003A000054723A2E18623A001869387818323A0AA
:1003B00007002392070023A407002396070023A821
:1003C0000700239A070023AC0700239E070023A001
:1003D000070223920702D1B903C6418313074006DF
:1003E000938641836317E60293878183138687028E
:1003F00085459843631AB700DA237D174207418386
:10040000DAA319E323A00700A107E394C7FE238022
:1004100006008280914763EEA702EFF27FC81307C0
:10042000300613848183931735006366B7003E94CA
:10043000232004009DB93E942E85232004009305BB
:1004400040064939420541814AA06DD585471CC007
:10045000D5B782800E0593878183AA9788438280CF
:1004600003A50186828003A7418685476317F700AD
:1004700083A701863385A740828001458280B7F734
:1004800000E023A20700938701869843050798C3DD
:10049000938741839823050798A373002030EFF2D8
:1004A0003FC093878189238D070005449384818908
:1004B0002285613D9307F4FF3315F500BC2C05043C
:1004C0005D8D1375F50FA8ACA147E313F4FE937788
:1004D0001500854581E7098909C589450145053329
:1004E000E9B681450545E5BF83C781881307F00A52
:1004F0000545638BE7001307F00F01456386E700AE
:100500003D476383E70009458280EFF27FB971655B
:100510001305052023A00188EF1000356D468145A5
:10052000138581891D319387818823A0070023A229
:10053000070023A4070023A6070085BEEFF25FB6DD
:1005400085476315F5000145D12985B603C50187A7
:10055000E5BFEFF2FFB4138481881C203D47638F11
:10056000E7001307F00F639AE700584093878186EE
:1005700098C31844D8C32300040005BE014569216F
:1005800005455921CDBF0545EF00D06C09C99387BA
:10059000018898430545050798C3EF00906D114504
:1005A000EF00506B0DC16D3D23AEA186938741874F
:1005B00098436377A7003307E540239CE18688C30F
:1005C0001145EF00106B73002030EFF27FAD03C7D1
:1005D00041887111AA87138441889384618809EF47
:1005E0002AC0374501409305A00A130505802380E2
:1005F0000400EF10602682471820BA978C239C20B5
:100600003747014013050780AE979CA0EF10C02428
:100610001C20E9460145850793F7F70F1CA03747D3
:10062000014063F1F6028C2013050780EF10C02211
:100630003747014013050780A945EF10E021054524
:1006400023000400110195B4EFF29FA52A843745D9
:10065000014013050580EF10A0209387C18B9843BC
:1006600085461375F50F6305D70209CB89466307E5
:10067000D7048D46630DD704014505BC1307A00AB6
:10068000E31CE5FE94C3A3820188A3830188EDB730
:100690001386518818229386018CBA9688A2938675
:1006A00071888C2205071377F70F2E9588A218A260
:1006B000BD46E3F3E6FC094798C37DBF03C77188D5
:1006C0006314A7000D47CDBF23A0070075B723A073
:1006D0000700A947E312F5FA41469385018C22856C
:1006E000EF10C075054551BFEFF29F9B7111114589
:1006F00095339384018D1384818B09E9896585473E
:100700009385057111459CA01CA029339C200547A9
:10071000639BE700138581893EC0453D8247631492
:10072000F5002380040018208547631AF70013851D
:100730008188193F8547E31CF5FE23000400110161
:100740006FF0BF96EFF2DF95511101446353A0069D
:100750008146130640069355F5412A84EF106067E1
:1007600085462A87AE876303D4000584A9441353C2
:10077000F4419A8622863A85BE851AC43AC03EC2A2
:10078000EF10E0132243B306850033B5A6009A9517
:100790002E951356F501B29633B6C6002A967E06FC
:1007A0008582D18E63878600FD1436840247924786
:1007B000DDFC228531016FF05F8FEFF27F8E31110A
:1007C00001452D2C138481860C40EFF0BF902AC088
:1007D00005452D244C40EFF0FF8F02472AC29307B6
:1007E000200363F5E7009D450545E1340247C167F5
:1007F0006355F70012476345F70099450545553C99
:1008000005453D2A9D6593850553EFF0BF8A930505
:10081000F03FEFF0BF8B13140501014515228567EA
:1008200093858738EFF01F899305F03FEFF01F8A1B
:10083000FD779387C7633E9593171500AA978E0798
:10084000AA971D4593941700E528856793858738F7
:10085000EFF05F8685679385A77FEFF03F872AC417
:1008600003A501888567938507770581EFF09F844D
:100870009387418B2AC688434184F5363247AA853F
:100880003A85EFF03F8593170501C1833EC6C93E07
:100890009387418B88C363D6040089450145113C89
:1008A000814485679387479C63C6870085450145DA
:1008B00009340144A6852285EFF0CFFF9305803EE1
:1008C000EFF0DF8083D68187930520061387B6F982
:1008D000420741832A869387818963EAE50496AFBC
:1008E000024723A3C70084C323A5E7001247C2A37E
:1008F00023A7E7003247BAAB37070020A24783554A
:10090000270013951700EFF06FFC2D3D9387818929
:10091000C8CB9A2F83D6418993F7F60F63F4E6008C
:100920009377F70F2388F18651016FF00FF82AC8EB
:100930008D450145EFF0FF979387818942464DB77A
:1009400006059387C18EAA978A238280B707002065
:1009500023A2A7008280EFF2AFF471118945371509
:100960000140EF00703941C9E14401449145371518
:1009700001400546EF00F03889453715014006046F
:10098000EF00903711C10504FD140146914537155C
:10099000014093F4F40FEF00D036E9F8B7070020D8
:1009A00083A447008147B3349000850405469145F0
:1009B000371501403EC0EF00D03401469145371550
:1009C0000140EF001034824737070020130747002B
:1009D000850793F7F70FE39B97FC9317840063D584
:1009E0000700B70700FF5D8C1C4313972700938710
:1009F000C18FBA9780C311016FF02FEB0A0593875F
:100A0000C18FAA97884382800A051387C18F2A97CE
:100A100018439387418FAA9798C38280EFF24FE8DB
:100A2000D14511E18145054581296FF00FE8EFF2CD
:100A30002FE7954511E1814519453D296FF0EFE616
:100A400003A5C18D8967938707F1AA9794238547EA
:100A50001387C18D639FF606EFF28FE49384018EB6
:100A60003386A4000C229D47711193161500138440
:100A7000418D63E1B70436C0A52C82461387C18D32
:100A800010439387418EBE968AA293161600369421
:100A9000B6979E231620B294B6971EA09C20850779
:100AA0009CA01C438946850763E2F6021CC3110122
:100AB0006FF0AFDF36949387C18EB6971620230070
:100AC0000600231004008D8296A3E1BF23200700B7
:100AD000F9BF1C438946850763E4F6001CC3828086
:100AE000232007008280EFF2AFDB993FAD356FF036
:100AF000CFDBEFF2EFDA130181FD61468145080893
:100B0000EFF0AFE4854513050020EF00102D3165AF
:100B1000EF005021854511453714014002C202C43F
:100B200002C6EF00902B9147130504804C007C8295
:100B300002C6EF00B01485451145EF00102A894721
:100B4000130504804C007C8202C6EF0030138545FB
:100B500013050002EF007028C147130504404C0044
:100B60007C8202C68964EF0070118147014493843E
:100B700004F1854625473386F40010226315D6001C
:100B800005041374F40F8507E397E7FE3717024057
:100B90005C4BB7060240717693E717005CCB9C462E
:100BA000791637250140F18F09661306065AD18F51
:100BB0009CC6C0C69307C5449CCA93878191DCCA72
:100BC00013050540EF00A06D85473ECA3ECCB70730
:100BD0000E002302810202C83ECE02D00147054426
:100BE000B387E400942385479375F70F639FF6005E
:100BF0003725014022869D46130505403AC0EF0087
:100C00002077024705041374F40F0507A147E31981
:100C1000F7FC2286372401409D46A1451305044078
:100C2000EF0000750C0813050440EF00A06985452E
:100C300013050440EF00E06E854513050440EF0006
:100C4000406D13050440EF00E06E930404402685D8
:100C5000EF00E06E6DFD1305044037240140EF0006
:100C6000806E930404402685EF00806E6DFD37058D
:100C7000024085452105EF00407B85451305044072
:100C8000EF00806D130181026FF02FC2EFF24FC1B0
:100C90000945EF00C07A39C90945EF00207B896614
:100CA00001478147938606F18543138641909385DA
:100CB0008191A1423385E6000821631F75001393DB
:100CC00017002E9303530300131517003295850761
:100CD0002310650093F7F70F0507E31D57FC1387F3
:100CE00081918607BA979A23239AE1906FF0EFBB20
:100CF0009D4763E9A70093171500138541903E9522
:100D00000A21828001458280EFF28FB913074006E5
:100D10002A8403D5E193930740066363B700AE8747
:100D200093F5F70FEFF00FB993054006EFF00FBA08
:100D3000420541679387C192418113070706954693
:100D400098C3EAA363E98602239407008547631DDD
:100D5000F4009385C19237050040EF009012A14541
:100D600037050040EF00D01F854537050040EF00F4
:100D7000901D6FF08FB309479AA799476314F40247
:100D8000373401408545130504C0EF00701A938580
:100D9000C192130504C0EF00D00EA145130504C095
:100DA000EF00101C373501408545130505C0C1B75C
:100DB000EFF20FAFAE87B7060020960503A48601B9
:100DC0009D8D8A053111BE952AC28E0522853EC0B1
:100DD00002C402C623180100EFF0CFAF9304F5FF61
:100DE000C1668247124763E4D4009384F6FFBE8550
:100DF000138514003AC0EFF0EFABAA852285EFF01F
:100E00006FAD7D15C16702476364F5001385F7FF79
:100E100013140501931717009386C1934180B69769
:100E200082A319C78547630BF70251016FF0EFA743
:100E30000565854513050580EF00207A37350140AB
:100E40006086648423170100231501002308010034
:100E50002C00130505C0EF00E07DC1BF85450545A9
:100E6000EF0080792C00608664842317010023152D
:100E7000010037050040C5B79D4763E7A700EFF2C3
:100E80002FA259356FF06FA28280EFF26FA151113E
:100E900002C002C202C40144896405049D47631173
:100EA000F402373501408545130505C0EF00D00633
:100EB000854537050040EF00300631016FF0EF9EA9
:100EC0009387C4F1A2979C230547E398E7FC614709
:100ED0003AC40D473AC2630DF40099476308F4021F
:100EE0009305C0030545E935A9452285713775B7D6
:100EF000854513050002EF00406E37150140A147FC
:100F00008A85130505407C80952BD9BF85454545CD
:100F1000E925B7070140D8438A8537150140137783
:100F2000F7F3D8C3D8431367070CD8C39307000857
:100F30007C80A9238565938505FA0145953D81450A
:100F40001945D93399BF23A001948280EFF24F95C0
:100F5000EFF08FD923A0A19489476306F50001C95A
:100F60008547630CF500EFF08FD36FF00F940545C4
:100F7000EFF0CFDCEFF0EFDDFDB70145EFF00FDC78
:100F8000DDB7EFF2EF917111054523A20194BD2B5E
:100F9000C52AEFF0AFBCEFF0CFA5EFF09FB5F53568
:100FA000EFF0AFD64D370145EFF05F9AEFF04FCB42
:100FB000AA8413844194EFF02FC2EFF0DFB2F9312D
:100FC0001C401547636EF70409678A07130747F249
:100FD000BA979C4382871CC0BA84F1BF853FEFF06B
:100FE0002FC82AC02685EFF00FC8A54763FDA702CA
:100FF00083A78194914602478507E3FEF6FC2320F0
:101000000400D9BFEFF06FFBEFF00FEEC9BFEFF0B8
:101010009FADF1B7EFF00FABD9B7EFF0EFA6C1B7C7
:10102000232004006DBF1C4015476384E70023A400
:10103000F19495471CC0268745B701A0B707EFBEBE
:1010400037E700E0938707083CC701A0EFF24F8520
:10105000371402401C403707FFF8611193E717006F
:101060001CC05C404145F98F5CC01C403707F7FE4F
:101070007D17F98F1CC01C403707FCFF7D17F98FC7
:101080001CC05C4041777D17F98F5CC0B7079F009B
:101090001CC441211C4C3706020093E707021CCCFC
:1010A000B717014003A70740938607401377F7F06F
:1010B00023A0E74003A707401367070823A0E740E2
:1010C00089479CCA02C002C21C4C37070140A16676
:1010D00093E717001CCC5C43D58F5CC31C40416771
:1010E000B7160240D98F1CC009679C42F18F3EC2DF
:1010F000824785073EC0924781E78247E397E7FE34
:10110000B71702409C431397E700635907068547CA
:101110003EC2124785476310F706B727024098433F
:10112000C176FD16719B98C398431367170098C347
:10113000B7170240D843D8C3D843758FD8C3D84314
:10114000C166558FD8C39843B7060001558F98C321
:10115000984393166700E3DD06FED843B7160240B6
:10116000719BD8C3D84313672700D8C32147DC42FB
:10117000B18BE39EE7FE21016FE03FF302C251BF56
:10118000EFE21FF2371702405C433704002091461C
:10119000B18B130484016385D700A1466382D70411
:1011A000B7376E01938707601CC0B7160240DC4258
:1011B0000840918313F7F700B70700209387870053
:1011C000BA978C23DC4293F5F50F93F70708335752
:1011D000B50081E7EFE01FF02A8718C06FE0FFEC51
:1011E0005C43B777DC02938707C07DBF01A097F10E
:1011F000FF1F93812165138101FC1305000A97F5F8
:10120000FF1F938525E017F6FF1F1306A6DF63FA7D
:10121000C5008322050023A0550011059105E3EACE
:10122000C5FE171500001305A5E197F5FF1F93856F
:1012300065DD17F6FF1F1306E6E063FAC50083229B
:10124000050023A0550011059105E3EAC5FE17F539
:10125000FF1F130525DF938501956377B5002320D4
:1012600005001105E36DB5FEB722000093820288E8
:10127000739002308D427390428097F2FFFF938209
:1012800062D893E2320073905230EFF03FDC970265
:101290000000938242CF7390123473002030B7273E
:1012A000014093870740631EF500EFE27FDF85452D
:1012B000130500208D26814513050020A92E6FE01F
:1012C000DFDE82805C413707F1FF1307F7EF7D8F88
:1012D000DC419441A207D58FD98F5CC11C4537F7FB
:1012E000F1FF1307D77FD4457D8F9C49D58F944557
:1012F0008606D58FD98F1CC55C55370710FF7D1723
:101300007D8FDC29FD1793F7F70FD207D98F5CD5B6
:1013100082801C4589C593E717001CC58280F99B14
:10132000EDBF1C4589C593E707101CC5828093F764
:10133000F7EFE5BF1C4593E787001CC58280084591
:101340000D81058982801C4593E747001CC582807A
:1013500008450981058982801C4591C537075000E1
:10136000D98F1CC582803707B0FF7D17F98FD5BF95
:10137000A54763F8B704138765FF93171700832207
:10138000C500BA971D433313F3001343F3FF3373C0
:101390005300B397F600B3E767005CC5994763E372
:1013A000C7047D16931726003E965859FD47B397FC
:1013B000C70093C7F7FFF98FB395C500DD8D4CD9F2
:1013C00082809397150003230501AE971D473317BD
:1013D000F7001347F7FF33776700B397F6005D8F89
:1013E00018C96DBFB14763E2C7026516931726009F
:1013F0003E961859FD47B397C70093C7F7FFF98F7B
:10140000B395C500DD8D0CD982804D1613172600CB
:1014100054553A96FD47B397C70093C7F7FFF58F2A
:10142000B395C500DD8D4CD582801C4189C593E7FD
:1014300017001CC1828041677917F98FDDBFB7079C
:1014400002409C437D8D3335A0008280B707024067
:10145000C8C38280B70701401387074083A70740AE
:10146000584B698F09C77D8D3335A00082800145B7
:101470008280B707014023AAA7408280944593F752
:10148000060193F2F60081C7DC41B3E2F20083D398
:10149000050093F7F30FA5C303230500611122C2D2
:1014A00026C0814713048002930480040547331645
:1014B000F70033F7C3006312E602939527003D4718
:1014C0003317B7001347F7FF33736700B395B200C4
:1014D00033E36500639D860050C985072147E39784
:1014E000E7FC124423206500824421018280E396B8
:1014F00096FE10C9DDB7828008456D8D3335A0009A
:10150000828019C20CC982804CC9828023A6A19412
:101510008280371702401C430E0593F777F05D8DEC
:1015200008C38280B7160240DC4241771307F77F79
:10153000F98F5D8DC8C28280EFE29FB637170240F7
:101540005C4391462A84B18B6385D700A1466380B2
:10155000D708B7376E01938707601CC0B7160240E3
:10156000DC42918313F7F700B70700209387070346
:10157000BA978C23DC42184093F5F50F93F70708D0
:101580003355B70081E73A85EFE0DFB448C008C4BF
:1015900048C4B7170240DC438D46AD83FD8B13D79B
:1015A00037008A07F18BD98F13F6370113F737000D
:1015B00063F4C600138747FFB70700209387C7016E
:1015C000BA978C23EFE01FB108C86FE01FAE5C43F1
:1015D000B777DC02938707C049B799C53717024030
:1015E0001C4F5D8D08CF8280B7170240984F13457E
:1015F000F5FF798D88CF828099C5371702405C4FFF
:101600005D8D48CF8280B7170240D84F1345F5FF54
:10161000798DC8CF828099C5371702405C475D8DB0
:1016200048C78280B7170240D8471345F5FF798D28
:10163000C8C782801E2137370140130707C0C20781
:10164000C1836306E500370700406316E500BA2151
:1016500093F7F7F8D98FFA2193F7F7CFC207C18331
:10166000D98F1EA1DE215EB59E211EB5B737014080
:10167000938707C06314F5009C251EB985475EA9B2
:1016800082801E3165771307F7CFC207C183BD9BE8
:10169000C207C1831EB11E31562103D38500C20784
:1016A00013960601162DC18393F7F7FD758F9621CA
:1016B0004182A206558FB62142074183B3E66600F8
:1016C0009206D58FB7360140C207938606C0C18304
:1016D000631ED502B62593F7F7F703D3C50092062C
:1016E000D58FD621C207C183920693F7F7FBD58F1A
:1016F000FD769386F63FF18EF225C207C1833366ED
:1017000066000A06D18E13960601418252A11AADD7
:10171000FA2118DD1EB182801E2189C593E71700CA
:101720001EA18280C207C183F99BC207C183CDBFBE
:101730008357450491C52167D98F2312F504828010
:10174000C607C583DDBF1E2189C593E707081EA113
:101750008280C207C18393F7F7F7C207C183C5BF71
:101760001A2DFD779387F77FF98FA205CD8FC207DA
:10177000C1831EAD8280EFE2BF921629F577FD1777
:10178000F58FF621DA252111D58F1EA95625FD7773
:101790009387379FF58FD6212A842EC0D58F962523
:1017A000D58FB625D58F5EA55E29C207C18393F775
:1017B000F7CF5D8F5AA948004133B747014093875F
:1017C000078082456312F406C2475A241395170016
:1017D0003E9542070E0541873E958C4163580704AC
:1017E0008605EFE03F8F930540062AC0EFE09F8E0D
:1017F000824793144500930540063E85EFE05F90D5
:101800005E24C207C18763D507020E059305400613
:1018100013052503EFE01F8C1D89C98CC204C1800C
:1018200006A461016FE07F88B24745B78A0555BFBE
:1018300012059305400613052503EFE0BF893D8996
:10184000E9BF91C55E250967D98F5EA582805A25BB
:10185000F977FD17F98FD5BF93F5F51F4EA182805B
:101860004A211375F51F8280EFE29F832A84116558
:1018700011118545130505028D33930700027C8005
:10188000371501408D473EC28A85E1471305054063
:101890003EC4EFF0BFBE22C637440140B707080080
:1018A0006C00130504803ECA02C8231C0100E13508
:1018B000854513050480713771016FE00FFF797161
:1018C00006D622D426D202C02E83AA8763CA051068
:1018D00063DD060082453306C0403337C000B306DF
:1018E000D04093C5F5FF2EC0998EB684B2823E8457
:1018F0001A876397061E6370C310C1666363D6269A
:10190000B70600016369D64893558601E1449706FE
:1019100000009386E662AE969422B6949306000287
:10192000858E99CA3313D300B3D49700B312D6006F
:1019300033E764003394D70093D40201A6853A8537
:1019400016C43AC2EFE0CFFBA24212472AC89397CF
:101950000201C1833A85A68516C63EC2EFE08FF725
:10196000AA852AC41245EFE0EFF4C246935704015A
:101970002247C206D58FB24263FAA7009697930614
:10198000F7FF63E4570063EEA7423687898FA68589
:101990003E853AC816CA3EC6EFE08FF6B247A68526
:1019A0002AC43E85EFE00FF3AA85AA8412454204BB
:1019B0004180EFE02FF0A2464247C206558C637C7F
:1019C000A400D2429387F4FF169463655400F9147F
:1019D0006363A400BE8413150701458D014791A2DE
:1019E000B307A0403337F0003303B0403303E34084
:1019F0007D573AC0F1BD11EA814505453EC41AC282
:101A0000EFE04FEDA2471243AA82416763E2E2147E
:101A10003707000163E5E23893D68201E1441707F6
:101A200000001307E7513697182393060002269704
:101A3000998E6391061493970201C1833303534037
:101A400093D402013EC20547A6851A853ACA16C834
:101A50001AC4EFE0EFEA22432AC6A6851A85EFE012
:101A60006FE792452AC4EFE0EFE4B24693570401D2
:101A7000C242C206D58F524763FBA7002246969703
:101A80009306F6FF63E4570063E0A73436C4898FFA
:101A9000A6853E853ACA16CC3EC8EFE06FE6C2473F
:101AA000A6852AC63E85EFE0EFE29245AA8442046D
:101AB000EFE04FE0B24641805247C206558C637C4E
:101AC000A400E2429387F4FF169463655400F9146E
:101AD0006363A400BE84A24713950701458D91A0BE
:101AE000636FD302416763EDE6043707000163E0EB
:101AF000E62A93D58601614517070000130747447E
:101B00002E970C2313070002AA950D8F6316071258
:101B100063EB6628B3B4C70013C5140019A00147CE
:101B200001458247BA8581CB3305A040B337A00079
:101B3000B305E0409D8DB25022549254456182809D
:101B40001307F00F6374D72693D5860021456DB730
:101B50001307F00F9686E37457EC93D68200A144E6
:101B60007DBD9306F00FB285E3F3C6DA9355860088
:101B7000A14471BBB392D2003356E30093D4020167
:101B80003313D3003394D70033D7E7009397020180
:101B900033676700C183A68532853AC416CA3EC240
:101BA00032C6EFE0EFD532462AC8A6853285EFE08F
:101BB0006FD2AA852AC61245EFE0CFCF2247C24690
:101BC000D24293570701C206D58F324763FBA70065
:101BD00096979306F7FF63E4571E63F2A71E7917E3
:101BE0009697898FA6853E853ACC16CA3EC6EFE009
:101BF0002FD1B2472AC8A6853E85EFE0AFCDAA8592
:101C00002AC61245EFE00FCB42433484B247420369
:101C10003363D300D2426247637BA300169393865B
:101C2000F7FF636A53186378A318F91716934207EE
:101C30003303A3405D8F09BD3355B600B396E6006C
:101C4000C98E13D406013316E600B354B300B3D3E0
:101C5000B7003313E3003ACC1397060141833ECE1D
:101C6000A285B3E7630026853EC232C636CA3AC4AF
:101C7000EFE00FC92AC8A2852685EFE0AFC5AA8587
:101C8000AA842245EFE00FC392474243D24613D6BF
:101C9000070142033366C3006247F247637BA60035
:101CA00036969385F4FF636AD6106378A610F9140C
:101CB0003696098EA28532853ECE3ACC36D032CACF
:101CC000EFE00FC45246A2852AC83285EFE08FC0EC
:101CD000AA852A842245EFE0EFBD42432C82624769
:101CE000131603014D8EF247637CA60082569305BE
:101CF000F4FF3696636FD60A637DA60A791436968A
:101D0000C1661383F6FFB246C204C18CB3F364000C
:101D1000098E33F3660032C493D2040113D4060152
:101D20001E859A85EFE00FB92AC2A2851E85EFE0D5
:101D30006FB8AA839A851685EFE0CFB72A83A2856C
:101D40001685EFE02FB792469A93C182B69363F45B
:101D50006300C166369593D603013695A24663E4C7
:101D6000A6026385A6002685014765BBC1661246AB
:101D7000FD16B3F3D300C203F18EB397E7003387A8
:101D8000D300E3F2E7FE1385F4FF014759BB93D577
:101D90000601414595B393550601C1448DBE93D6C6
:101DA0000201C144ADB901470545A5BBB685014552
:101DB000A1B32E84B1B7B6879DBDAE84DDBD368795
:101DC0000DB579179697D9B69306E6FF36C4969760
:101DD0007DB921112AC236C006CAAA8622C826C6E3
:101DE000328732C4814701450143338666009373CD
:101DF00017003304F50093D2F6010583B33466006F
:101E00008607638503003385840032838606B3E743
:101E1000570061FFAA8789C52245EFE0AFA9AA97BD
:101E2000024711C71245BA85EFE0CFA8AA97D24062
:101E30004244B2441A85BE8561018280B3C7A500C1
:101E40008D8B3307C50081E78D4763E7C702AA87FB
:101E5000637EE50A942185078505A38FD7FEE3EB12
:101E6000E7FE8280942185078505A38FD7FEE3EBEB
:101E7000E7FE02441101828093763500AA8789CA61
:101E8000942185078505A38FD7FE93F63700C5BF3C
:101E90009376C7FF138606FE63F5C706711122C04D
:101EA000C04903A3050083A38500C0CB804D23A0B8
:101EB000670003A3450080CFC04D23A2670083A223
:101EC000C50003A3050193854502C0CF03A4C5FF48
:101ED00023A4770023A6570023A86700938747020F
:101EE00023AE87FEE3EEC7FAE3F3D7F890419107FC
:101EF000910523AEC7FECDBF90419107910523AE5A
:101F0000C7FEE3EBD7FEE3E7E7F4828082800000C0
:101F100001010000000000010100000000010000BC
:101F200000000100DC0F0000041000000E10000093
:101F3000141000001A100000DE0F00000001020261
:101F40000303030304040404040404040505050551
:101F5000050505050505050505050505060606062D
:101F60000606060606060606060606060606060611
:101F700006060606060606060606060607070707FD
:101F800007070707070707070707070707070707E1
:101F900007070707070707070707070707070707D1
:101FA00007070707070707070707070707070707C1
:101FB00007070707070707070707070708080808AD
:101FC0000808080808080808080808080808080891
:101FD0000808080808080808080808080808080881
:101FE0000808080808080808080808080808080871
:101FF0000808080808080808080808080808080861
:102000000808080808080808080808080808080850
:102010000808080808080808080808080808080840
:102020000808080808080808080808080808080830
:0C20300008080808080808080808080844
:10203C00FF01C904020000000102030405060708A1
:10204C000102030405060708006CDC020204060802
:10205C0004080C100810182010203040204060801C
:10206C00010203040506070801020304050607081C
:00000001FF
