:100000006F00700A00000000F2060000F406000015
:1000100000000000000000000000000000000000E0
:1000200000000000000000000000000000000000D0
:100030007202000000000000A408000000000000A0
:10004000A4080000A4080000A4080000A408000000
:10005000A4080000A4080000A4080000A4080000F0
:10006000A4080000A4080000A4080000A4080000E0
:10007000A4080000A4080000A4080000A4080000D0
:10008000A4080000A4080000A4080000A4080000C0
:10009000A4080000A4080000A4080000000000005C
:1000A000511126C022C206C4828282441244A24058
:1000B000310182802A86014593F6150091C232955E
:1000C00085810606F5F9828000000000634E050276
:1000D00063C305042E86AA857D5515C285466378BF
:1000E000B6006356C00006068606E36CB6FE014500
:1000F00063E4C500918D558D85820582F5FA828075
:100100008682C93F2E8582823305A04063D70500D1
:10011000B305B040C1B7B305B0408682653F330533
:10012000A0408282868263C70500634905005D376F
:100130002E858282B305B040E35B05FE3305A04007
:10014000513F3305B040828200003D432A876373EC
:10015000C3029377F700BDEFADE5937606FF3D8AC6
:10016000BA960CC34CC30CC74CC74107E36BD7FE10
:1001700011E28280B306C3408A0697020000969679
:100180006780A6002307B700A306B7002306B700C1
:10019000A305B7002305B700A304B7002304B700E5
:1001A000A303B7002303B700A302B7002302B700DD
:1001B000A301B7002301B700A300B7002300B700D5
:1001C000828093F5F50F93968500D58D9396050162
:1001D000D58D61B793962700970200009696868288
:1001E000E78086FA9680C1171D8F3E96E374C3F8A8
:1001F000A5B7EFF2FFEAB7F700E023A00700B707C3
:10020000002003A507018965938505F4E1357D1577
:10021000B70700016364F5001385F7FFB7F700E047
:1002200023A4070088CB2D4798C3B7E700E00567F4
:1002300023A0E710B7070020054723AEE702B70762
:10024000002023AC070295B5B707002003A587035C
:100250008280B707002003A7C70385476319F7000B
:10026000B707002083A787033385A7408280014515
:100270008280B7F700E023A20700B707002093872A
:1002800087039843050798C383A7818091C382970A
:1002900073002030EFF2DFE083A40181856793874C
:1002A00047F1A69794238547138701816394F60449
:1002B00093864181338696000C229D4786041384E1
:1002C000C18063E0B70405452524138701810C43F1
:1002D0009387818113961500BE943294B2978AA0B9
:1002E00012209E23B2971EA093864181AE969C2237
:1002F00085079CA21C438546850763E0F6021CC364
:100300006DB3269416209387C181A6978D8296A3FC
:100310002310040023000600F1BF23200700CDB7FF
:10032000EFF21FD8853F51B3EFF29FD7130181FD44
:10033000614681450808113D854513050020EF0001
:1003400090113165EF00D0058545414502C202C4D8
:1003500002C6EF005010C1474C00371501407C82A7
:1003600002C6EF00A07A854513050002EF00B00E2B
:100370003715014091474C00130505407C8202C6A9
:100380008564EF00A07885470144938444F1854655
:1003900025473386F40010226315D6000504137434
:1003A000F40F8507E397E7FE371702405C4BB7066B
:1003B0000240717693E717005CCB9C46791637258F
:1003C0000140F18F09661306065AD18F9CC6C0C63C
:1003D0009307C5449CCA93874183DCCA1305054033
:1003E0009D2B85473ECA3ECCB7070E0023028102F3
:1003F00002C83ECE02D005470544A1479375F70FCA
:100400006315F7062286372401409D46A145130552
:100410000440192D0C08130504408D238545130550
:100420000440652B8545130504404523130504400E
:10043000752B9304044026857D2B75FD1305044020
:10044000372401406D2B930404402685752B75FDE0
:100450003705024085452105EF00A0688545130555
:1004600004407D231301810289B1B387E400942302
:100470008547639EF6003725014022869D46130579
:1004800005403AC05523024705041374F40F0507CD
:10049000ADB7EFF2FFC00945B92D31C909459D251A
:1004A000856601478147938646F18543138601821D
:1004B00093854183A1423385E6000821631F7500BF
:1004C000139317002E93035303001315170032954F
:1004D00085072310650093F7F70F0507E31D57FC09
:1004E000138741838607BA979A232398E18275BEC2
:1004F0009D4763E9A70093171500138501823E9578
:100500000A21828001458280EFF29FB93111B7073D
:10051000002083A407012AC002C402C623180100D8
:100520009307C0036383F5082E879605998D8A0586
:10053000BA958E0526853AC2713E1304F5FFC16651
:1005400012476364D4001384F6FFBA8513051400C0
:100550009536AA852685BD3E7D1541676364E50015
:100560001305F7FF8247931405019396170013872D
:1005700081853697C18006A305476396E7028545C6
:100580000545EF00206F2C0037050040648660842D
:100590002317010023150100EF0080718545370501
:1005A0000040EF00207F510109B61304F03113051C
:1005B000703E4DBF994763E1A706EFF27FAE930609
:1005C000400603D7A185AE8763F4B60093074006C3
:1005D00093F5F70F2A843A85F13C93054006FD34E4
:1005E0004167938781841307070698C3EAA323947E
:1005F00007008547631CF40093858184370500401C
:10060000FD2DA14537050040EF00E07B854537050E
:100610000040EF00A07951BC8280EFF27FA8511119
:1006200002C002C202C401448564050499476319EB
:10063000F400854537050040EF00C0753101B5B4C1
:10064000938704F2A2979C230547E390E7FE614756
:100650003AC40D473AC2631EF400854513050002F3
:10066000DD2B37150140A1478A85130505407C80A5
:1006700071299305C0030545413DA94522851D3FCC
:100680006DB7EFF2FFA17111054523AE0184ED298D
:100690006522716513050520EF007002993E6931EE
:1006A000AD3F5D36AA841384C1859D39DD33184082
:1006B000954763F4E7002320040079362AC0268595
:1006C000493E11CD83A70186114602478507637510
:1006D000F6002320040011A01CC0BA84F9B71C4006
:1006E00015476384E70023A0F18695471CC0268741
:1006F000EDB701A0B707EFBE37E700E09387070823
:100700003CC701A0EFF2DF99371402401C403707C5
:10071000FFF8611193E717001CC05C404145F98F59
:100720005CC01C403707F7FE7D17F98F1CC01C40CA
:100730003707FCFF7D17F98F1CC05C4041777D17A0
:10074000F98F5CC0B7079F001CC491211C4C370671
:10075000020093E707021CCCB717014003A707402C
:10076000938607401377F7F023A0E74003A70740DD
:100770001367070823A0E74089479CCA02C002C24A
:100780001C4C37070140A16693E717001CCC5C4363
:10079000D58F5CC31C404167B7160240D98F1CC07F
:1007A00009679C42F18F3EC2824785073EC092474F
:1007B00081E78247E397E7FEB71702409C43139710
:1007C000E7006359070685473EC212478547631015
:1007D000F706B72702409843C176FD16719B98C370
:1007E00098431367170098C3B7170240D843D8C37C
:1007F000D843758FD8C3D843C166558FD8C39843A3
:10080000B7060001558F98C3984393166700E3DD40
:1008100006FED843B7160240719BD8C3D84313676E
:100820002700D8C32147DC42B18BE39EE7FE2101BC
:100830006FF0BF8702C251BFEFF29F8637170240A9
:100840005C43370400209146B18B13040401638597
:10085000D700A1466382D704B7376E01938707603C
:100860001CC0B7160240DC420840918313F7F70022
:10087000B707002093870700BA978C23DC4293F5D3
:10088000F50F93F707083357B50081E7EFF09F8422
:100890002A8718C06FF07F815C43B777DC029387AB
:1008A00007C07DBF01A097010020938121F913812A
:1008B00081FC1305000A97F5FF1F9385A57417F6B1
:1008C000FF1F1306267463FAC5008322050023A0C8
:1008D000550011059105E3EAC5FE17050000130553
:1008E000E56497F5FF1F9385E57117F6FF1F130663
:1008F000E67463FAC5008322050023A055001105A4
:100900009105E3EAC5FE17F5FF1F130525739385CF
:1009100081866377B500232005001105E36DB5FEE0
:10092000B722000093820288739002308D42739048
:10093000428097F2FFFF9382E26C93E23200739061
:100940005230EFF03FDC970200009382C2D37390E5
:10095000123473002030B727014093870740631E8D
:10096000F500EFF2EFF38545130500201D268145C4
:1009700013050020392E6FF04FF382805C4137075A
:10098000F1FF1307F7EF7D8FDC419441A207D58F6C
:10099000D98F5CC11C4537F7F1FF1307D77FD445CA
:1009A0007D8F9C49D58F94458606D58FD98F1CC5E0
:1009B0005C55370710FF7D177D8FDC29FD1793F7F6
:1009C000F70FD207D98F5CD582801C4589C593E784
:1009D00017001CC58280F99BEDBF1C4589C593E7B4
:1009E00007101CC5828093F7F7EFE5BF1C4593E71E
:1009F00087001CC5828008450D81058982801C45C1
:100A000093E747001CC582800845098105898280DB
:100A10001C4591C537075000D98F1CC58280370708
:100A2000B0FF7D17F98FD5BFA54763F8B7041387CB
:100A300065FF931717008322C500BA971D43331330
:100A4000F3001343F3FF33735300B397F600B3E798
:100A500067005CC5994763E3C7047D1693172600BA
:100A60003E965859FD47B397C70093C7F7FFF98FD4
:100A7000B395C500DD8D4CD9828093971500032373
:100A80000501AE971D473317F7001347F7FF33777C
:100A90006700B397F6005D8F18C96DBFB14763E279
:100AA000C7026516931726003E961859FD47B3975F
:100AB000C70093C7F7FFF98FB395C500DD8D0CD93B
:100AC00082804D161317260054553A96FD47B3976A
:100AD000C70093C7F7FFF58FB395C500DD8D4CD5E3
:100AE00082801C4189C593E717001CC18280416741
:100AF0007917F98FDDBFB70702409C437D8D3335F1
:100B0000A0008280B7070240C8C38280944593F753
:100B1000060193F2F60081C7DC41B3E2F20083D311
:100B2000050093F7F30FA5C303230500611122C24B
:100B300026C08147130480029304800405473316BE
:100B4000F70033F7C3006312E602939527003D4791
:100B50003317B7001347F7FF33736700B395B2003D
:100B600033E36500639D860050C985072147E397FD
:100B7000E7FC124423206500824421018280E39631
:100B800096FE10C9DDB7828023A2A1868280371726
:100B900002401C430E0593F777F05D8D08C38280F9
:100BA000B7160240DC4241771307F77FF98F5D8D5E
:100BB000C8C28280EFF2CFCE371702405C43914625
:100BC0002A84B18B6385D700A1466380D708B737E5
:100BD0006E01938707601CC0B7160240DC42918308
:100BE00013F7F700B707002093878702BA978C2383
:100BF000DC42184093F5F50F93F707083355B7001B
:100C000081E73A85EFF00FCD48C008C448C4B71754
:100C10000240DC438D46AD83FD8B13D737008A0736
:100C2000F18BD98F13F6370113F7370063F4C60041
:100C3000138747FFB707002093874701BA978C2394
:100C4000EFF04FC908C86FF04FC65C43B777DC02BE
:100C5000938707C049B799C5371702401C4F5D8D70
:100C600008CF8280B7170240984F1345F5FF798D62
:100C700088CF828099C5371702405C4F5D8D48CF81
:100C80008280B7170240D84F1345F5FF798DC8CF42
:100C9000828099C5371702405C475D8D48C78280C6
:100CA000B7170240D8471345F5FF798DC8C7828032
:100CB0001E2137370140130707C0C207C1836306EF
:100CC000E500370700406316E500BA2193F7F7F80F
:100CD000D98FFA2193F7F7CFC207C183D98F1EA10D
:100CE000DE215EB59E211EB5B7370140938707C050
:100CF0006314F5009C251EB985475EA982801E31CC
:100D000065771307F7CFC207C183BD9BC207C183B5
:100D10001EB11E31562103D38500C207139606016A
:100D2000162DC18393F7F7FD758F96214182A20698
:100D3000558FB62142074183B3E666009206D58FF0
:100D4000B7360140C207938606C0C183631ED50231
:100D5000B62593F7F7F703D3C5009206D58FD621B2
:100D6000C207C183920693F7F7FBD58FFD76938672
:100D7000F63FF18EF225C207C183336666000A068C
:100D8000D18E13960601418252A11AADFA2118DDC7
:100D90001EB182801E2189C593E717001EA18280A3
:100DA000C207C183F99BC207C183CDBF1E2189C57C
:100DB00093E707081EA18280C207C18393F7F7F764
:100DC000C207C183C5BF1A2DFD779387F77FF98FBF
:100DD000A205CD8FC207C1831EAD8280EFF24FAC5A
:100DE0001629F577FD17F58FF621DA252111D58F14
:100DF0001EA95625FD779387379FF58FD6212A8424
:100E00002EC0D58F9625D58FB625D58F5EA55E29A8
:100E1000C207C18393F7F7CF5D8F5AA94800593BAA
:100E2000B74701409387078082456312F406C247A3
:100E30005A24139517003E9542070E0541873E95AB
:100E40008C41635807048605EFF0CFA89305400650
:100E50002AC0EFF02FA8824793144500930540065F
:100E60003E85EFF0EFA95E24C207C18763D5070274
:100E70000E059305400613052503EFF0AFA51D8968
:100E8000C98CC204C18006A461016FF00FA2B247F1
:100E900045B78A0555BF120593054006130525037E
:100EA000EFF04FA33D89E9BF91C55E250967D98F52
:100EB0005EA582805A25F977FD17F98FD5BFEFF22D
:100EC0002F9E2A8411651111854513050502613392
:100ED000930700027C80371501408D473EC28A850A
:100EE000E147130505403EC4153122C63744014091
:100EF000B70708006C00130504803ECA02C8231C13
:100F00000100E93D854513050480793F71016FF0CB
:100F1000CF99000000000101000000000100000066
:080F20000001000000000000C8
:100F28000102030405060708010203040506070871
:100F3800006CDC020204060804080C1008101820D3
:100F48001020304020406080010203040506070895
:080F580001020304050607086D
:00000001FF
