:100000006F10A05500000000061400000814000046
:1000100000000000000000000000000000000000E0
:1000200000000000000000000000000000000000D0
:10003000C20300000000000058150000000000008E
:1000400058150000581500005815000058150000FC
:100050000E07000058150000581500005815000044
:1000600058150000581500005815000058150000DC
:1000700058150000581500005815000058150000CC
:1000800058150000581500005815000058150000BC
:100090005815000058150000581500000000000019
:1000A000511126C022C206C4828282441244A24058
:1000B000310182802A86014593F6150091C232955E
:1000C00085810606F5F9828000000000634E050276
:1000D00063C305042E86AA857D5515C285466378BF
:1000E000B6006356C00006068606E36CB6FE014500
:1000F00063E4C500918D558D85820582F5FA828075
:100100008682C93F2E8582823305A0406347B000B6
:10011000B305B040C1B7B305B0408682653F330533
:10012000A0408282868263C70500634905005D376F
:100130002E858282B305B040E35B05FE3305A04007
:10014000513F3305B040828200002A8309CA83836D
:100150000500230073007D16050385056DFA828076
:100160002A8311C62300B3007D16050365FE828035
:10017000B7070020054723A8E7048280854763EA84
:10018000A700B707002023A8A704B707002023A6CD
:10019000B7048280EFF2DFF0B704002003A5C404A7
:1001A00031CD370400200325840401249967938707
:1001B000771A63F4A70437070020834717009306D4
:1001C000F00F639ED70283A7C404860793F7F70F47
:1001D000A300F70091E7FD5723A60404A300F7004E
:1001E000B707002003C50700133515002380A700BB
:1001F000EF005056452A2324A40405457DB5FD177C
:10020000F1B7EFF2FFE9370400208327040589C71F
:1002100005476389E70051BDB53F75FD8547232834
:10022000F404D5BF0145EF00F052F5B789C9B7070F
:1002300000208A059387C705AE97054798C382803B
:1002400089C9B70700208A059387C705AE9723A001
:1002500007008280EFF2DFE46111B707002002C0DF
:1002600002C29387C705014701440546A1468C4356
:10027000639AC500930584008A950504238CE5FEE6
:100280001374F40F05079107E313D7FE15C003A5F8
:10029000C180212AE1679387076A63FBA70085472E
:1002A000631AF4000C800145D13DED2823A6A180FE
:1002B0002101E5BB03C7018101459307870033870F
:1002C0002700834587FF5D3D03C7018163158700D4
:1002D00023880180D9BF05072388E180F9B7B707D4
:1002E00000200A059387C705AA9788437D15133513
:1002F00015008280EFF2DFDAB7F700E023A00700F5
:10030000B707002003A50702B7350C0093850550F9
:10031000D1337D15B70700016364F5001385F7FF3E
:10032000B7F700E023A4070088CB2D4798C3B7E7B1
:1003300000E0056723A0E710054723AEE18423A072
:1003400001869387418323A0070023A2070023A4EB
:10035000070023A6070023A8070023AA070023AC51
:10036000070023AE070023A0070223A2070235BB24
:1003700003C741869307300663F5E70293874183FD
:1003800013868702854598436318B700D8437D17C5
:10039000D8C319E323A00700A107E396C7FE238271
:1003A0000186828003A50186828003A7C1858547D7
:1003B0006317F70083A701863385A7408280014534
:1003C0008280B7F700E023A2070083A70186850794
:1003D00023A0F18683C7418685072382F1867300B7
:1003E0002030EFF2FFCB9387C18B238D07000544AC
:1003F0009384C18B2285E5359307F4FF3315F5000F
:10040000BC2C05045D8DA8ACA147E315F4FE71B9C1
:10041000EFF21FC91385818DEF00C07083C7818DF6
:100420001307F00A0545638CE7001307F00F014539
:100430006387E700C517B337F00013951700B5B110
:1004400023A4018E828003D5818B6F00103CEFF2D4
:100450003FC51384818D1C201307F00C638BE702CA
:100460001307F00F638CE7003D476393E7020145F4
:10047000EF00102D0545EF00B02C09A85840B70734
:1004800000209387470098C31844D8C32300040072
:1004900029B9B707EFBE37E700E0938707083CC7E5
:1004A000C5BFEFF2FFBF1386C18B8307A6013111D1
:1004B0003EC883D7818B8D65938505953EC683178E
:1004C0006601138581863EC4831746013EC21C4ADD
:1004D0003EC05C46184654421042EF10106C930523
:1004E000000413858186D92B5101C1B6EFF25FBBA1
:1004F000511101446358A0041306400681469355E8
:10050000F5412A84EF20603C2AC02EC205476303D0
:10051000E4000584024592459356F441228636C490
:10052000EF10306AA246330785003335A700B69531
:100530002E957E050583498F630687003A84A9447A
:10054000FD1481E4228531018DB602459245935612
:10055000F441228636C4EF10D066A24633078500E8
:100560003335A700B6952E959356F5013697B336D9
:10057000D700AA96FE060583558FE30587FC3A84CB
:10058000C1B7EFF2FFB12111014537040020EF00A0
:10059000B019130444000C40353E2AC20545EF0053
:1005A000B0184C40053E12472AC4930720039D45CE
:1005B000054563FAE7129D391247C1676346F71292
:1005C00099450545A5310545EF00B00A9D65938520
:1005D0000553CD342AC00145EF00B00985649385E9
:1005E0008438C93C9305F03FD534FD779387C763C2
:1005F0003E95131415002A940E042A941D45EF000D
:100600005007938584387D349385A47FC134914508
:100610002AC80945353103A5818A060479332AC6DB
:1006200003A5818E9385047705816934B2455D34D5
:100630002AC68D3B23A4A18A89450145635E040A2D
:10064000F53601440247B71727009387A7A363D75E
:10065000E70A9305F03F3A85953C2AC08545014558
:10066000C536024622859355F4419356F641EF2054
:10067000C0251306803E8146EF10B05403D7018B8E
:100680002ACA9306D7FCC206C18213064009938486
:10069000C18B636AD606130777FA8D4501459AAC7C
:1006A000453682473707002083552700DCC0D247F4
:1006B00080C09CC49247DCC4A2479CC8B247DEA855
:1006C000C24713951700193415350397840183D752
:1006D000418EEAA863D5E70093170701C183239CE5
:1006E000F18A6101D9B2A93E2247C167E35AF7EC0A
:1006F00099450545B136C1BDA136A9B78545014526
:10070000353602C0B9BF8D4501450D3659BF054587
:10071000EF10001E09C983A7818E0545850723A414
:10072000F18EEF10801E1145EF10801C0DC59D3914
:1007300023AAA18A83A7C18A63FCA700B307F54057
:100740009306301F63E4F6002398F18A23A6A18A5A
:100750001145EF10801B73002030EFF27F941301DE
:1007600081FD614681450808EFF09F9F854513058F
:100770000020EF1060393165EF10602C8545114580
:100780003714014002C202C402C6EF10E03791479D
:10079000130504804C007C8202C6EF10C01785450B
:1007A0001145EF1060368947130504804C007C82A8
:1007B00002C6EF104016854513050002EF10C03445
:1007C000C147130504404C007C8202C60D64EF1043
:1007D0008014814781441304049785462547338656
:1007E000870010226315D600850493F4F40F850763
:1007F000E397E7FE371702405C4BB706024071767D
:1008000093E717005CCB9C46791637250140F18FA2
:1008100009661306065AD18F9CC6C4C69307C54401
:100820009CCA93870190DCCA13050540EF00D05D98
:1008300085473ECA3ECCB7070E002302910202C88C
:100840003ECE02D081440546B307940098238547E5
:100850006310F702372501409D4693F5F40F130509
:10086000054032C0EF007067024605061376F60FAA
:100870008504A147E39AF4FC372401409D46A14535
:1008800013050440EF0070650C0813050440EF00E9
:10089000105A854513050440EF00505F8545130548
:1008A0000440EF00B05D13050440EF00505F930477
:1008B00004402685EF00505F6DFD1305044037248A
:1008C0000140EF00F05E930404402685EF00F05EE7
:1008D0006DFD3705024085452105EF0030788545DF
:1008E00013050440EF00F05D130181026FF0EFFB90
:1008F000EFF20FFB0945EF00307839C90945EF00E9
:1009000090788D651386C18E014781479386C18E8D
:1009100093850597854313850190A1423303B70062
:1009200003430300631C7300139317002A930353BC
:100930000300850793F7F70F2310660005070906E4
:10094000E31E57FC860713870190BA979E239EAA41
:100950006FF0AFF59D4763E8A70006059387C18E4A
:10096000AA978A23828001458280EFF26FF3116596
:10097000111185451305050202C002C202C402C658
:1009800002C802CA02CCEF102018930700027C8034
:10099000371401408D473EC28A85E1471305044064
:1009A0003EC4EF005077930700047C808A8591470E
:1009B000130504403EC4EF001076F1673744014050
:1009C000938707203EC66C00B7070C001305048010
:1009D0003ECAB704024002C8231C0100EF10602C7D
:1009E000138544048545EF007067138584058545AC
:1009F000EF00D066854513050480EF106037710164
:100A00006FF0AFEAEFF2CFE9130141FD1306C00228
:100A100081450A85EFF0CFF485450545EF10E00CE0
:100A20003704024013054404EF00B0569387819ABF
:100A30003EC2C1473EC4B7440140930700081307B4
:100A400000048A85938444803ECA130544048D675C
:100A50003AC63ED226C002C802CC02CE02D002D490
:100A6000EF00505C13058405EF00B0529387819628
:100A7000130700048A851305840526C03EC23AC6C2
:100A800002C402D0EF00105A1301C1026FF0EFE16F
:100A9000EFF20FE1853F37440140C13D130504806B
:100AA000054693050004EF10E02D05469305000868
:100AB00013050480EF10002D6FF02FDF3DC1EFF222
:100AC0002FDE2A84AE84A1CD0965EF00F05A6DDDDA
:100AD0000965EF00505B2686A2851385819AEFF0A9
:100AE000CFE60965EF00305A37040240814513050F
:100AF0004404EF00B0561385819AEF107064AA8702
:100B00008545130544045CC1EF005055374501404D
:100B100005469305000813050580EF10A0266FF029
:100B2000CFD8828003C741968547631CF70093871F
:100B30004195982318A1D84358C19847DE2718C576
:100B40005EA58280EFF2CFD571112AC009E501457B
:100B500011016FF08FD5AE84FDD937050200EF008B
:100B6000B05175D537070240130587058145EF0061
:100B7000F04E3707024013058705EF00704F13044E
:100B80000004098C420441803707024005E0130548
:100B9000870523820196930700045CC18545EF0019
:100BA000F04B37050200EF00104E55B70547238282
:100BB000E196636794009387F4FF139407014180E3
:100BC0000245938581962286EFF02FD8824713063F
:100BD00000048145B3848700138581962380040037
:100BE000EFF00FD837050240130585059307000481
:100BF0005CC18545EF00904637050200EF00B04824
:100C00001375F40FB1B741112AC222C626C432C0EF
:100C10000147814681470145814263C7B2000145D2
:100C20003244A244410182801244330354000544FB
:100C3000830303006309850413040003639383049F
:100C40009383420063DFB30283041300130480071D
:100C50006399840283042300130470036393840262
:100C60008304330013043003639D840003044300B2
:100C70001303E002631764002A87AA86AA879E826C
:100C80000545850259BF138403FD9374F40F25466F
:100C9000636C9600139726003697620406076184FA
:100CA000B306E4000547F1BF1306B0030145639D99
:100CB000C30061DB0246139527008507329514C1F6
:100CC0003A850147814675BF1306E002E39BC3FAEC
:100CD0004DDB0246138717008A07B29794C39387A8
:100CE000620063D7B7048306130093070003639180
:100CF000F6048306230093078007639BF6028306AE
:100D00003300930780036397F6028306430093073B
:100D100040036391F60283065300B547639CF600D7
:100D200083066300A9476397F60091476309F700BC
:100D3000BA8741BFBA8781460147014599B7054542
:100D4000C5B5EFF2EFB5411193050004138541914C
:100D5000D53B0DC5AA850A861385419102C002C202
:100D600002C402C64D3519C9024793874195124600
:100D7000A24698A33247D0C394C7DAA741016FF0C7
:100D8000CFB2EFF2EFB11301C1FD8545414502C479
:100D900002C602C8EF0050579304800409472C0094
:100DA0003715014026C83AC6EF00F036C14609475C
:100DB0002C003715014036C83AC6EF00D035014740
:100DC00081478545130510023AC03EC202CA02CCD3
:100DD00002CE02D0EF00505326C8B714014005449C
:100DE0002C00138504406084EF00F03291472C0002
:100DF000138504407C84EF00103281450D45EF00DF
:100E0000503A2146480832CE22CA22D002CCEF0006
:100E1000102889450D45EF00D0389147C146480854
:100E20003ECA36CE22D002CCEF0070269306401187
:100E300009470A857480588122C2EF0010391307D0
:100E40000002788461473AC82C000D47138504409E
:100E50003AC6EF00502C1307000491472C0013856D
:100E6000044078843EC8EF00102B130141026FF05C
:100E7000CFA306059387819FAA978A238280B7070D
:100E8000002023A6A7008280EFF28FA1711189456F
:100E900037150140EF00902F49C5614481449145C9
:100EA000371501400546EF00302F894537150140C1
:100EB0008604EF00B02D11C185047D1401469145D3
:100EC000371501401374F40FEF00102D69F8370740
:100ED00000208327C700B337F000850705469145FA
:100EE000371501403EC0EF00302B014691453715C4
:100EF0000140EF00702A824705041374F40F37078E
:100F00000020E39D87FCB7078000E58F81C7B70706
:100F100000FFDD8C0327C7009387019F0A07BA975C
:100F200084C311016FF06F980A059387019F33877F
:100F3000A7009387819EAA979C4308431D8D8280BA
:100F40000A051387019F2A9718439387819EAA97C2
:100F500098C3828001C5A945194505A4B73701404A
:100F6000938707C023AC07028280EFF26F9303A53B
:100F700041A18D6793870797AA9798238547711199
:100F80006317F704938601A03306D5000C229D4712
:100F9000131715001384C1A063E7B7043AC0EFF03C
:100FA0007F9B0247938741A03E970AA303A741A1D5
:100FB000131617003294B2979E231220B2971EA0E8
:100FC000938601A0B307D7009823050798A383A7AA
:100FD00041A1094785076373F700814723AAF1A060
:100FE00011016FF08F8C3A949387819FBA971A20E2
:100FF00023000600231004000D839AA3C9BFEFF25B
:101000002F8AA53751356FF04F8AEFF26F8903A70A
:1010100001A2814711CB13074006AA876374A7007A
:1010200093074006C207C183139527003E9583A509
:1010300081A11305451FEFF0EF8789659385057141
:10104000EFF04F8923AEA1A0B707004088DF6FF013
:10105000CF85EFF2EF84B707002003A407029305C2
:1010600020030545B120B1650547938505352285E7
:1010700023A0E1A2EFF00F867D15C1676364F50040
:101080001385F7FF050593151500AA958E05AA95FA
:1010900086052285EFF00F847D15C1676364F50036
:1010A0001385F7FF23ACA1A0014585376FE0FFFF53
:1010B000EFE21FFFB707002083A7070231112AC202
:1010C0003EC0939755008D8F02458A07AE972E84B8
:1010D0009395370002C402C623180100EFE09FFF7A
:1010E0009304F5FFC167124763E4F4009384F7FFAC
:1010F000A285138514003AC2EFE0DFFBAA85024502
:10110000EFE05FFD1304F5FFC16712476364F4006D
:101110001384F7FF420493171700138641A34180FD
:10112000B29782A319C78547630BF70251016FE09D
:10113000DFF70565854513050580EF00F01C3735A1
:1011400001406086648423170100231501002308F1
:1011500001002C00130505C0EF00B020C1BF85457C
:101160000545EF00501C2C006086648423170100A5
:101170002315010037050040C5B79D4763E7A70A5F
:10118000EFE21FF2130740062A8403D561A3AE875E
:101190006374B7009307400693F5F70FEFE09FF1F4
:1011A00093054006EFE09FF2420541674181130736
:1011B0000706938741A2954623A2E1A2EAA363E929
:1011C0008602239407008547631DF400938541A29E
:1011D00037050040EF00D01DA14537050040EF0066
:1011E000F02A854537050040EF00B0286FE0FFEB9F
:1011F00009479AA799476314F4023734014085459B
:10120000130504C0EF009025938541A2130504C087
:10121000EF00101AA145130504C0EF003027373541
:1012200001408545130505C0C1B78280EFE25FE745
:1012300051118D6402C002C202C401449384C49758
:10124000B30794009C2305476395E70A61473AC4B6
:101250000D473AC2630EF40099476301F404930505
:1012600020030545B13522858D45013F0504C9BFE1
:10127000854513050002EF00300937150140A147ED
:101280008A85130505407C80792593052003054553
:1012900005358D450545D53509445DB78545454539
:1012A000EF009006B7070140D8438A853715014003
:1012B0001377F7F3D8C3D8431367070CD8C3930742
:1012C00000087C80892D9305803E0145D5338145FA
:1012D00019456535373501408545130505C0EF00D3
:1012E0007016854537050040EF00D01531016FE0DD
:1012F000DFDB05049D47E315F4F4E9BF81450545AF
:1013000023AC01A26FE09FE7EFE29FD9EFF04F908F
:1013100023ACA1A289476306F50011C98547630E76
:10132000F500EFF00F8CEFF0CF976FE01FD8054579
:10133000EFF06F91EFF0AF91EDB70145EFF0AF90A7
:10134000CDB7EFE2FFD57111054523A001A49D2D76
:101350004D22EFE03FFAEFF0DFA2EFE07FE1EFF0A8
:10136000CFBFE935EFF0CF8DEFF08FF2413FEFF0D7
:101370005FCE0145EFF0BFB0EFF0CF822A84EFE0FF
:101380003FFFEFF0DFC7EFF0AFD683A701A415470B
:10139000636EF7040D678A0713074798BA979C4353
:1013A00082879D37EFF00F802AC02285EFE0FFFF94
:1013B0009307300663FFA70283A7C1A391460247A4
:1013C000850763F3F600814723A0F1A43A8445BF63
:1013D000EFF02F9BC1BFEFF09FC2E9B7EFE09FE7AF
:1013E000EFF03F96C1B7EFE0DFE16DBF23A001A4AE
:1013F00055BF83A701A415476384E70023AEF1A27C
:1014000022879547D1B701A0B707EFBE37E700E0C5
:10141000938707083CC701A0EFE29FC8371402403A
:101420001C403707FFF8414593E717001CC05C409C
:10143000F98F5CC01C403707F7FE7D17F98F1CC081
:101440001C403707FCFF7D17F98F1CC05C404177BB
:101450007D17F98F5CC0B7079F001CC4C12B1C4CC3
:1014600093E707021CCCB7170140938707409843C6
:101470001377F7F098C398431367070898C3094791
:1014800098CBB7F7FF1F03C5477D9307F00F6304A1
:10149000F5007D89612BB72702409843C176FD1680
:1014A000719B98C398431367170098C3B7170240FE
:1014B000D843D8C3D843758FD8C3D843B7060001E3
:1014C000D8C39843558F98C3B70600029843758FC9
:1014D00075DFD843B7160240719BD8C3D843136752
:1014E0002700D8C32147DC42B18BE39EE7FE6FE0C3
:1014F000DFBB371702405C43A146B18B6394D7042E
:101500005C433775DC02130505C0B7160240D842AC
:10151000B70700209387070111833D8BBA979C235F
:10152000D84293F5F70F13770708B357F50005E393
:10153000EFE21FB7EFE01FBA370700202320A70212
:101540006FE0BFB637356E01130505607DBF370705
:1015500000202320F702828001A097F1FF1F9381D2
:10156000E12E138181FB1305000A97F5FF1F938578
:1015700065A917F6FF1F1306E6A863FAC5008322C4
:10158000050023A0550011059105E3EAC5FE1715D6
:1015900000001305655197F5FF1F9385A5A617F663
:1015A000FF1F1306A6AA63FAC5008322050023A025
:1015B000550011059105E3EAC5FE17F5FF1F130558
:1015C000E5A8938581A46377B50023200500110564
:1015D000E36DB5FE896293820288739002308D427A
:1015E0007390428097F2FFFF9382C2A193E2320090
:1015F00073905230EFF05FE2970200009382A2D422
:101600007390123473002030B7270140938707404E
:10161000631EF500EFE2DFA88545130500201D23BA
:10162000814513050020392B6FE03FA88280584187
:10163000B707F1FF9387F7EF7D8FDC419441A20755
:10164000D58FD98F5CC11845B7F7F1FF9387D77F46
:10165000D4457D8F9C49D58F94458606D58FD98FEB
:101660001CC55855B70710FFFD177D8FDC29FD17E6
:1016700093F7F70FD207D98F5CD582801C4589C5B7
:1016800093E717001CC58280F99BEDBF1C4589C5F7
:1016900093E707101CC5828093F7F7EFE5BF1C4561
:1016A00093E787001CC5828008450D8105898280EB
:1016B0001C4593E747001CC58280084509810589C0
:1016C00082801C4591C537075000D98F1CC5828088
:1016D0003707B0FF7D17F98FD5BFA54763F7B7046C
:1016E000138765FF93171700BA970323C5001D479B
:1016F0003317F7001347F7FF33776700B397F60008
:10170000D98F5CC5994763E3C7047D1693172600FC
:101710003E965859FD47B397C70093C7F7FFF98F17
:101720003396C5005D8E50D9828013971500032330
:1017300005012E979D47B397E70093C7F7FFB3F7CF
:101740006700B396E600DD8E14C96DBFB14763E252
:10175000C7026516931726003E961859FD47B397A2
:10176000C70093C7F7FFF98F3396C5005D8E10D978
:1017700082804D161317260054553297FD47B397B4
:10178000E70093C7F7FFF58FB395E500DD8D4CD5E6
:1017900082801C4141677917F98F1CC12320050005
:1017A0002322050023240500B70702402326050055
:1017B000138787006317E500D8431367F700D8C382
:1017C00082801387C7016316E500D8431367070FAC
:1017D000FDB7138707036318E500D8438566938632
:1017E00006F0558FE9BF138747046315E500D8431A
:1017F000BD66C5BF138787056316E500D843B706E6
:101800000F00C5B71387C7066316E500D843B706B0
:10181000F000C1BF13870708E314E5FAD843B70601
:10182000000FC1B71841E177BD0794517D8F9C45EA
:10183000D58F9449D58FD449D58F944DD58FD44D1C
:10184000D58FD451D58F9455D58FD98F1CC1DC45F8
:101850005CC19C411CC5DC415CC582801C4189C5C2
:1018600093E717001CC1828041677917F98FDDBFAC
:101870004841420541818280B70702409C437D8DEB
:101880003335A0008280B7070240C8C38280584128
:101890000C415045B7070140938707403E9793C6D8
:1018A000F5FF39C29043758E90C3D043F18ED4C3F7
:1018B0001443CD8E14C3184190479346F7FF758E9D
:1018C00090C7D047F18ED4C7144541466399C600EE
:1018D0009447D98E94C7D447558FD8C78280B6977E
:1018E0009443558F98C382801C43F58F1CC382801C
:1018F000B7070140938707409443DC4B2A877D8DCF
:1019000001C5F98E3335D0008280B7070140938737
:101910000740C8CB8280944593F7060113F3F60085
:1019200081C7DC413363F30083D2050093F7F20FE4
:10193000A9CF0C41611122C226C0814793038002C6
:101940003D449304800405473317F70033F6E20063
:101950006310C7026397760258C91396270033179E
:10196000C4001347F7FF6D8F3316C300B365E6005D
:1019700085072147E399E7FC12440CC18244210109
:101980008280E39C96FC18C9C9BF82801C4533F550
:10199000F5003335A000828019C20CC982804CC981
:1019A000828037070140144786058D47B397B700FB
:1019B00093C7F7FFF58F1CC71C473315B5005D8D26
:1019C00008C7828023A2A1A4828003A741A48547DF
:1019D00014216310F7021C31639CE7023C219A0733
:1019E00093E707F837E700E093F7F70F3697230000
:1019F000F740054793D756003317D700544189CE97
:101A0000938707048A07B7E600E0B69798C38280F9
:101A1000EDF33C219A07F9B793870706B7E600E094
:101A20008A07B69798C30F100000828037170240CC
:101A30001C430E0593F777F05D8D08C38280B716BF
:101A40000240DC4241771307F77FF98FC98FDCC270
:101A50008280EFE2EFE4371702405C43A1462A841C
:101A6000B18B639FD7065C43B777DC02938707C0CF
:101A70001CC0371602405442370700201307870363
:101A80009182BD8A3697082358429375F50F1377D4
:101A9000070833D5A70001E73E85EFE0AFE348C074
:101AA00008C448C4B7170240DC438D46AD83FD8BA4
:101AB00013D737008A07F18BD98F13F6370113F745
:101AC000370063F4C600138747FFB70700209387EA
:101AD0004702BA978C23EFE0EFDF08C86FE0EFDC36
:101AE000B7376E019387076061B799C53717024012
:101AF0005C4BC98F5CCB8280B7170240D84B134533
:101B0000F5FF798DC8CB828099C5371702401C4FED
:101B1000C98F1CCF8280B7170240984F1345F5FF3D
:101B2000798D88CF828099C5371702405C4FC98F65
:101B30005CCF8280B7170240D84F1345F5FF798DEF
:101B4000C8CF828099C5371702405C47C98F5CC7F0
:101B50008280B7170240D8471345F5FF798DC8C773
:101B600082801E2137370140130707C0C207C18397
:101B70006306E500370700406316E500BA2193F7D6
:101B8000F7F8D98FFA2193F7F7CFC207C183D98F1E
:101B90001EA1DE215EB59E211EB5B7370140938799
:101BA00007C06314F5009C251EB985475EA9828095
:101BB0001E31E5769386F6CFC207C183BD9BC2076F
:101BC000C1831EB11E3152211A2D03D38500C207D5
:101BD000758F9621C18393F7F7FDA206558FB62125
:101BE00042064207B3E666009206D58FB73601403B
:101BF000C207938606C041824183C183631ED5021A
:101C0000B62593F7F7F703D3C5009206D58FD621F3
:101C1000C207C183920693F7F7FBD58FFD769386B3
:101C2000F63FF18EF225C207C183336666000A06CD
:101C3000D18E13960601418252A11AADFA2118DD08
:101C40001EB182801E2189C593E717001EA18280E4
:101C5000C207C183F99BC207C183CDBF8357450427
:101C600091C52167D98F2312F5048280C607C583E9
:101C7000DDBF1E2189C593E707081EA18280C20728
:101C8000C18393F7F7F7C207C183C5BF1E2D7D77C8
:101C90001307F77FF98FA205CD8FC207C1831EAD51
:101CA0008280EFE2EFBF1629F577FD17FD8EFE214A
:101CB000DA252111D58F1EA95625FD779387379FE9
:101CC000FD8EDE212A84AE84D58F9625D58FB6254C
:101CD000D58F5EA55E29C207C18393F7F7CFD98F51
:101CE0005EA94800EFF0FFD6B74701409387078011
:101CF0006313F406C247139517005A243E950E0548
:101D00003E9593170701C1878C4063D80704860569
:101D1000EFE04FBC930540062AC0EFE0AFBB82471F
:101D200093144500930540063E85EFE06FBD5E24A9
:101D3000C207C18763D507020E0593054006130548
:101D40002503EFE02FB91D89C98CC204C18006A408
:101D500061016FE08FB5B24779BF8A0555BF1205A3
:101D60009305400613052503EFE0CFB63D89E9BF93
:101D70005E2589C50967D98F5EA5828079777D1731
:101D8000F98FDDBF5E2901C6CD8F5EA9828093C524
:101D9000F5FFED8FDDBF93F5F51F4EA182800A217F
:101DA0006D8D3335A0008280EFE28FAF61112EC2BE
:101DB00032C0014482476358F402B7440140B74738
:101DC00001409305000413850780D13F6DD99247E8
:101DD00013850480B3868700838506000504C20549
:101DE000C181553FC1BF024521016FE00FAC4111D8
:101DF00006C62EC00DCD1841AA8705C358417D5592
:101E000011CB8546631BD70098472300070023A208
:101E100007000545B240410182809847824614A3DD
:101E20009847050798C7D8437D17D8C3DDB705463F
:101E30008A859D3FF9BF011122CC2EC206CE26CA4B
:101E40002A84814793050002634506029245BE95A8
:101E5000838505008DE563D8C70263D4E702198E38
:101E60001305000293F526002AC089C501E79305F2
:101E700000032EC0858A814495EAB2840DA08507AF
:101E8000F1B71D8EF1BF0146E1BF824522853AC8F8
:101E900032C63EC4A93FA24732464247FD14E3463C
:101EA00090FEB284635306008144058E63C7E70247
:101EB000A68792463387974036978305070095EDAE
:101EC000B28463449004635306000146F2406244C6
:101ED000D2443305F600056182801D8FBA879305D1
:101EE0000003228532C83EC63AC41137B2472247A2
:101EF0004246FD17EDF7BA9465BF228532C63EC44F
:101F0000FD35A247324685076DB78245228532C42A
:101F10003EC2F13DFD142246924765B7397106DE97
:101F200022DC26DA3EC232833A8689ED9246930756
:101F3000000301476C08FC86FD3DF2506254D25408
:101F400021618280AA843684AE8791CA29470144E0
:101F50006317E30063D50500B307B0400544864628
:101F6000A309010213073103938666FC36C49A85E0
:101F70003E8532CA3AC81AC63EC0EFE06F98A54601
:101F8000824732434247524663D4A600A246369562
:101F9000130505039306F7FFA30FA7FE9A853E8559
:101FA00032CC3ACA1AC83EC636C0EFE0AF92B2474A
:101FB00042435247624663FD670409CC29CE9247EB
:101FC000898BB1CB9305D002268532C4EFF03FE276
:101FD00022467D169247918B85C7064793071006C8
:101FE00032C49305000326856311F704EFF03FE048
:101FF000930580072685EFF09FDF224609047916B6
:102000001647924682452685EFF0FFE2229535B7C6
:10201000AA870247A9BF82469307D0020144A38F33
:10202000F6FE9307E7FF3EC075B7EFF05FDC930560
:102030008005C9B70145828001458280130181FD79
:1020400022D026CE06D22AC4AE82328402C6814471
:102050008385020091EDA24789C781453E85EFF057
:102060001FD9925002542685F244130181028280C6
:10207000930750026389F500224516C88504EFF0E6
:102080001FD7C24205A08387120013871200639DE9
:10209000B7002245930550023AC8EFF05FD542479A
:1020A0008504BA8285026DB7DDD79306B0026389D5
:1020B000D70463C8F600930630026386D7048147CD
:1020C00005A09306D002638AD70093060003E39825
:1020D000D7FE13872200894721A013872200854756
:1020E000830607001306B0026383C6046341D60269
:1020F00013063002638BC602BA820145A54681A051
:10210000138722006DBF138722009147D1BF1306AA
:10211000D0026389C60013060003E39FC6FC93E761
:10212000270031A005078547C1BF93E74700050792
:10213000E1B713162500329506053A958502038608
:102140000200130706FD9375F70FE3F4B6FE1307BD
:10215000E0029946631EE60085028146A545038696
:102160000200130606FD1377F60F63F5E50236C687
:10217000038702001306A006630DC70A6343E60245
:102180001306C0046307C70A13068006630CC7085A
:1021900081452DA813972600BA968606B296850229
:1021A0007DBF130640076306C7081306A007630236
:1021B000C7081306C0068145631AC70003861200CC
:1021C0008D456314E6008502914585020386020071
:1021D000930300061307100663C4C300130710041B
:1021E0009303700663C4C3069303500663557618C1
:1021F0009303700463C1C30493055004635DB61672
:1022000013073004E310E6EA18409303440016CAAB
:10221000230CE1001EC8A30C01000147BE862A86DC
:102220002C0841A8038612008145E311E6FA8902D1
:1022300071BF8502B1BF93063006E307D6FC63CEBB
:10224000C606930680056303D602A9BD9306300730
:102250006304D60463CBC6029306F0066304D60E6D
:102260009306000793E74700E31ED6E29146639189
:10227000D50C930384000C40504016CA3AC23EC0AD
:102280001EC8AA870147C146B9A093065007630A32
:10229000D6069306800745BF18408D669303440019
:1022A0009385C69911C3BA85324716CA1EC8BE8621
:1022B0002A862245EFF03FB815A091466395D502D6
:1022C000930384000C40504016CA3AC23EC01EC858
:1022D000AA870547A9462245EFF0DFD5C243AA9455
:1022E0001E84D242C1B3B2460C4016C836C23AC0B0
:1022F00011042A87854629462245EFF03FC2AA9459
:1023000049B39146639DD500930384000C4050402F
:1023100016CA3AC23EC01EC8AA87014765BFB24668
:102320000C4016C836C23AC011042A878146E1B76C
:10233000B24616C80C40414636C23AC011042A873C
:1023400081465DBF9146639ED500930384000C4097
:10235000504016CA3AC23EC01EC8AA870147A146CD
:102360009DBFB2460C4016C836C23AC011042A8737
:102370008146214651B70C401306840040403AC2C2
:102380002A87224532C83EC02286B687A94616CA89
:10239000EFF09FCAAA944244A9B7130141FD32CE7F
:1023A0003ED42AC67008FD57480006CC36D03AD233
:1023B00002C23EC432C0EFF07FC8E2401301C10246
:1023C0008280797106D622D426D202C02A8763CEB3
:1023D000051263DD06000245B337C000B306D040E6
:1023E0001345F5FF2AC09D8E3306C040B2843A845F
:1023F000AE826399060E63F7C516C1666363D62481
:10240000B7060001B336D600B306D040E19AE10624
:10241000B353D60017050000130505591E95082172
:1024200093030002AA963385D340638CD300B39202
:10243000A500B356D700B314A600B3E25600331478
:10244000A70093D70401BE8516853EC216C8EFD0FB
:102450007FC8139704014183AA852AC43A853AC6E6
:10246000EFD05FC5C2429245AA86168536C8EFD026
:102470003FC9C246420513570401498F637BD70009
:10248000A24726971386F7FF636497006367D742D6
:1024900032C49245158F3A853ACAEFD0BFC3AA8598
:1024A0002AC8324542044180EFD0DFC052479245EE
:1024B0002A863A8532C2EFD0BFC492474205498C82
:1024C000C246637BF40026941387F6FF636594008D
:1024D000F9166363F400BA86A2470147C20733E5E1
:1024E000D70029A063FDD502014701458247BA857F
:1024F00081CBB337A000B305E0409D8D3305A040EC
:10250000B2502254925445618280B337A000B30583
:10251000B0409D8DFD573307A0403EC05DBDC167F3
:1025200063E8F620B7070001B3B7F600B307F04041
:10253000E19BE107B3D2F600170500001305C5467D
:1025400016950821930200023E95B387A2403EC231
:102550006396A21E63E4B634B337C70013C51700F1
:10256000014769B76305060EC1666371D63213353C
:102570000610134515000E05B352A600970600007D
:10258000938686429696942293030002AA96B3827B
:10259000D340639DD30C935706013EC293170601A7
:1025A000C183B386C5403EC40547924536853ACAC5
:1025B00036C8EFD03FB2A2452AC6EFD0BFAFC24661
:1025C00092452A86368532C8EFD09FB342464205EF
:1025D00093560401C98E524763FBC600B247A696C4
:1025E0009385F7FF63E4960063E5C62C2EC69245FB
:1025F0003386C64032853ACA32C8EFD0BFADA24555
:102600002AC44204EFD01FAB42469245AA823285CB
:1026100016C2EFD0FFAE924742054180498CA246D8
:102620005247637BF40026941386F6FF636594009B
:10263000F9166363F400B286B247C20733E5D700E8
:1026400075B59336061093C616008E06D1B3814237
:10265000970600009386463596969422014593038B
:102660000002AA96B382D340E387D3F2B314560094
:1026700093D7040133D6D500B3935500B356D70092
:10268000B3E67600BE853285331457003EC232CAA7
:1026900036C6EFD03FA4139704014183AA852AC808
:1026A0003A853AC4EFD01FA152469245AA86328598
:1026B00036CAEFD0FFA4B246420513D70601D24670
:1026C000498F637DD700C24726971386F7FF636E55
:1026D000971C637CD71CF9173EC826979245158F27
:1026E0003A853ACAEFD01F9FAA852ACC2245EFD05F
:1026F0007F9C52479245AA823A8516CAEFD05FA0C6
:102700003486D2424205C98E624663FB5600A696C5
:102710001307F6FF63E7961863F556187916A69621
:10272000C247B38656409395070133E7C500B5BD50
:1027300093B7061093C717008E07EDBB924733542B
:10274000A60033D3A500B396F600558CB352A7006C
:10275000BE8693540401B397F500B3E7F2001A85DF
:102760003ACEA6853317D6003EC41ACC3AC8EFD06D
:102770007F96131704014183AA852AC63A853ACA6F
:10278000EFD05F936243AA86A6851A8536CCEFD038
:102790003F97A247E2464205C183C98F724763FE55
:1027A000D700B245A2971386F5FF63E2871063F066
:1027B000D7101386E5FF32C6A297958FA6853E8572
:1027C0003AD03ECEEFD01F91AA852ACC5245EFD009
:1027D0007F8EF247AA86A6853E85B684EFD05F92AB
:1027E000348442056246C98E025763FB9600A29666
:1027F0009307F6FF63E9860A63F7960A7916A296AD
:10280000B24741639302F3FFC207D18F424633F4CC
:102810005700B3849640B37256009356060193D383
:10282000070136C422859685EFD0DF882AC6A245E7
:102830002285EFD03F882A8496851E85EFD09F871A
:10284000AA82A2451E85EFD0FF86B2461694C182A9
:10285000A29663F356001A9513D606012A9663E3EF
:10286000C4026385C4003E85014749B1B245416653
:102870007D16F18E6D8E9245C206B2963317B70063
:10288000E373D7FE1385F7FF01478DB1B70600014B
:102890006379D602935206014145CDB10147054502
:1028A000B1B13A86B5BD3E86A1BF32C805BD32C6BC
:1028B00029B7F9173EC6A6961DBBF9173EC4269741
:1028C000C9BE93528601614555B921112A833285CB
:1028D0002E86B68206CA22C826C61A87AA868147CD
:1028E000814581431AC032C22AC43306770013F3EC
:1028F00016003384F5001355F7018582B334E600E2
:10290000860763050300B283B38584000607C98F79
:10291000E9FE124602432245AE8709C6B285EFD0D2
:102920006FF9AA97638702001A859685EFD08FF812
:10293000AA97D2404244B2441E85BE85610182807E
:10294000AA879823850775FF3385A7407D15828068
:1029500025643B25643B25643B25643B25643B257E
:10296000643B25643B25643B25642E0D0A00000072
:102970000101000000000001010000000001000052
:1029800000000100A2130000D0130000D6130000C5
:10299000DC130000E6130000A4130000286E756C21
:1029A0006C29000000010202030303030404040471
:1029B00004040404050505050505050505050505CB
:1029C00005050505060606060606060606060606AB
:1029D0000606060606060606060606060606060697
:1029E000060606060707070707070707070707077B
:1029F0000707070707070707070707070707070767
:102A00000707070707070707070707070707070756
:102A10000707070707070707070707070707070746
:102A2000070707070808080808080808080808082A
:102A30000808080808080808080808080808080816
:102A40000808080808080808080808080808080806
:102A500008080808080808080808080808080808F6
:102A600008080808080808080808080808080808E6
:102A700008080808080808080808080808080808D6
:102A800008080808080808080808080808080808C6
:102A900008080808080808080808080808080808B6
:042AA0000808080812
:102AA40001FFC90401000000000000000200000052
:102AB40001020304050607080102030405060708CA
:102AC400006CDC020204060804080C10081018202C
:102AD40010203040204060800102030405060708EE
:082AE4000102030405060708C6
:00000001FF
