:100000006F10403C000000001E1200002012000093
:1000100000000000000000000000000000000000E0
:1000200000000000000000000000000000000000D0
:100030006806000000000000C2130000000000007D
:10004000C2130000C2130000C2130000C21300005C
:10005000E8090000C2130000C2130000C213000030
:10006000C2130000C2130000C2130000C21300003C
:10007000C2130000C2130000C2130000C21300002C
:10008000C2130000C2130000C2130000C21300001C
:10009000C2130000C2130000C213000000000000E1
:1000A000511126C022C206C4828282441244A24058
:1000B000310182802A86014593F6150091C232955E
:1000C00085810606F5F9828000000000634E050276
:1000D00063C305042E86AA857D5515C285466378BF
:1000E000B6006356C00006068606E36CB6FE014500
:1000F00063E4C500918D558D85820582F5FA828075
:100100008682C93F2E8582823305A0406347B000B6
:10011000B305B040C1B7B305B0408682653F330533
:10012000A0408282868263C70500634905005D376F
:100130002E858282B305B040E35B05FE3305A04007
:10014000513F3305B040828200002A8309CA83836D
:100150000500230073007D16050385056DFA828076
:100160002A8311C62300B3007D16050365FE828035
:10017000EFF21FF31165111185451305050202C049
:1001800002C202C402C602C802CA02CCEF10607EDC
:10019000930700027C80371401408D473EC28A8558
:1001A000E147130504403EC4EF10805D930700044F
:1001B0007C808A859147130504403EC4EF10405C63
:1001C000F16737440140938707203EC66C00B707AC
:1001D0000C00130504803ECAB704024002C8231C69
:1001E0000100EF10B012138544048545EF10A04DB7
:1001F000138584058545EF10004D85451305048062
:10020000EF10B01D710155B5EFF29FE9130141FDEB
:100210001306C00281450A85A13785450545EF10C3
:1002200060733704024013054404EF10203DB70704
:100230000020938787083EC2C1473EC4B7440140AF
:1002400093070008130700048A85938444803ECAFC
:10025000130544048D673AC63ED226C002C802CCBC
:1002600002CE02D002D4EF10804213058405EF10B5
:10027000E038B707002093878704130700048A85B6
:100280001305840526C03EC23AC602C402D0EF1050
:1002900000401301C10211BDEFF29FE0B5373744B2
:1002A0000140F93513050480054693050004EF105D
:1002B000101405469305000813050480EF10301351
:1002C000EDB32DC5EFF2DFDD2A84AE84B9CD09652B
:1002D000EF1020416DDD0965EF108041B707002068
:1002E0002686A285138587088D350965EF10404065
:1002F00037040240814513054404EF10C03CB707A2
:10030000002013858708EF20804CAA8785451305B8
:1003100044045CC1EF10203B37450140054693057E
:10032000000813050580EF10900C41B38280EFF2B6
:100330003FD771112AC001E501451101BDB3AE845B
:10034000E5DD37050200EF10C0397DD537070240E3
:10035000130587058145EF10003737070240130565
:100360008705EF10803713040004098C4204418094
:100370003707024011EC13058705930700045CC1A1
:100380008545EF10403437050200EF1060366DB739
:10039000636794009387F4FF13940701418002453B
:1003A000B707002093858704228645338247096575
:1003B000A28533878700230007003E861305057E4C
:1003C000EF105064B7070020130600048145138521
:1003D0008704793337050240130585059307000428
:1003E0005CC18545EF10202E37050200EF1040302C
:1003F0001375F40F99B7054723A4E18882808547D8
:1004000063E6A70023A4A18823A2B1888280EFF22B
:100410003FC903A5418839C903A50188152C930755
:10042000104E63F4A7043707002083471700930694
:10043000F00F639ED70283A74188860793F7F70FD3
:10044000A300F70091E7FD5723A20188A300F7005E
:10045000B707002003C50700133515002380A70048
:10046000EF00207ADD2223A0A18805453DB9FD17C4
:10047000F1B7EFF2FFC283A7818889C70547638977
:10048000E70025B1693775FD854723A4F188D5BFFD
:100490000145EF000077F5B799C58A059387418933
:1004A000AE97054798C3828099C58A05938741898D
:1004B000AE9723A007008280EFF29FBE611102C0B9
:1004C00002C293874189014701440546A1468C43F6
:1004D000639AC500930584008A950504238CE5FE84
:1004E0001374F40F05079107E313D7FE15C003A596
:1004F000C188B92A89679387077163FBA70085477D
:10050000631AF4000C800145DD3D812223A6A188F9
:10051000210161BE03C70189014593078700338725
:100520002700834587FFE13D03C7018963158700E5
:1005300023880188D9BF05072388E188F9B70A0510
:1005400093874189AA9788437D15133515008280CA
:10055000EFF21FB5B7F700E023A00700B7070020B0
:1005600003A50702B7350C0093850550A5367D1508
:10057000B70700016364F5001385F7FFB7F700E0E4
:1005800023A4070088CB2D4798C3B7E700E0056791
:1005900023A0E710054723AEE18C23A0018E9387AB
:1005A000418B23A007002392070023A40700239672
:1005B000070023A80700239A070023AC0700239E07
:1005C000070023A0070223920702C5B403C7418E88
:1005D000930740066317F7029387418B13868702C0
:1005E00085459843631AB700DA237D174207418394
:1005F000DAA319E323A00700A107E394C7FE23822F
:10060000018E82801147AA87636AA702EFF25FA971
:100610001384418B8E073E94130730062320040079
:100620002E856363B70051B49305400665344205D7
:1006300041814AA06DD985471CC0F5B782800E055F
:100640009387418BAA978843828003A5018E82807D
:1006500003A7C18D85476317F70083A7018E3385F4
:10066000A740828001458280B7F700E023A20700FF
:1006700083A7018E850723A0F18E83C7418E85074E
:100680002382F18E73002030EFF29FA19387C193F4
:10069000238D070005449384C19322854D3593072C
:1006A000F4FF3315F500BC2C05045D8D62056185F2
:1006B000A8ACA147E313F4FE93771500854581E7C5
:1006C000098909C5894501451D3BC5B281450545D7
:1006D000E5BFEFF2FF9C930500041385818E8139FD
:1006E00083C781951307F00A0545638CE70013075C
:1006F000F00F01456387E700C517B337F000139586
:1007000017006FF09F9A23A401968280EFF25F9901
:1007100085476316F5000145E9296FF01F9903C568
:100720008193E929DDBFEFF2BF97138481951C20E7
:100730003D476382E7021307F00F639CE7005840D0
:10074000B70700209387470098C31844D8C32300F5
:1007500004006FF09F950145592105454921C5BF0A
:10076000EFF21F941386C1938307A6011301C1FC06
:100770008D653EC8831786019385058048083EC66F
:10078000831766013EC4831746013EC21C4A3EC021
:100790005C46184654421042EF1010294808930551
:1007A00000040536130141036FF03F90EFF25F8FB5
:1007B000511101446358A004130640068146935525
:1007C000F5412A84EF1050792AC02EC205476303F1
:1007D000E4000584024592459356F441228636C4CE
:1007E000EF101027A246330785003335A700B695D2
:1007F0002E957E050583498F630687003A84A944B8
:10080000FD1489E4228531016FF03F8A024592454B
:100810009356F441228636C4EF109023A246330744
:1008200085003335A700B6952E959356F50136977A
:10083000B336D700AA96FE060583558FE30487FCDE
:100840003A847DBFEFF2DF85211101453704002096
:100850004926130444000C40EFF0DF872AC2054507
:100860008D2E4C40EFF01F8712472AC493072003B8
:100870009D45054563F6E71405311247C16763429C
:10088000F7149945054509390545492C9D6593851A
:100890000553EFF03F822AC00145492485649385C2
:1008A0008438EFF03F819305F03FEFF03F82FD7712
:1008B0009387C7633E95131415002A940E042A9457
:1008C0001D45A92C93858438EFF0CFFE9385A47F36
:1008D000EFF0CFFF91452AC80945F93603A581926B
:1008E0000604BD332AC603A5819693850477058146
:1008F000EFF04FFCB245EFF0EFFD2AC6B93323A469
:10090000A192894501456356040C7936014402479A
:10091000B71727009387A7A363DFE70A9305F03F84
:100920003A85EFF0AFFA2AC085450145B53E02464B
:1009300022859355F4419356F641EF10F06113066A
:10094000803E8146EF10D01003D701932ACA930648
:10095000B7F9C206C182130620069384C19363616E
:10096000D60805831307C7F98D4501459AAC2D3E7E
:1009700082473707002083552700DCC0D24780C05C
:100980009CC49247DCC4A2479CC8B247DEA8C247B9
:1009900013951700EFF08FF3113D0397840183D671
:1009A000419613160701EAA8418293F7F60F63F404
:1009B000C6009377F70F238CF19261016FF0EFEE91
:1009C000E5342247C167E35EF7EA99450545E93C0E
:1009D00065BDD93C2DBF854501457D3C02C081BF29
:1009E0008D450145553C69B70545EF00105709C9CC
:1009F00083A781960545850723A4F196EF009057BC
:100A00001145EF0090550DC1893123AAA19283A70A
:100A1000C19263F8A700B307F5402398F19223A68B
:100A2000A1921145EF00105573002030EFF24FE70F
:100A30001301C1FD8545414502C402C602C8EF004D
:100A400050739304800409472C003715014026C8D1
:100A50003AC6EF00F052C14609472C003715014055
:100A600036C83AC6EF00D051014781478545130586
:100A700010023AC03EC202CA02CC02CE02D0EF003F
:100A8000506F26C8B714014005442C00138504405C
:100A90006084EF00F04E91472C00138504407C8465
:100AA000EF00104E81450D45EF0050562146480895
:100AB00032CE22CA22D002CCEF00104489450D4527
:100AC000EF00D0549147C14648083ECA36CE22D0E6
:100AD00002CCEF0070429306401109470A857480EA
:100AE000588122C2EF001055130700027884614735
:100AF0003AC82C000D47138504403AC6EF00504811
:100B00001307000491472C001385044078843EC8E5
:100B1000EF001047130141026FF02FD906059387AC
:100B2000C197AA978A238280B707002023A6A7002F
:100B30008280EFF2EFD67111894537150140EF0041
:100B4000904B49C5614481449145371501400546A4
:100B5000EF00304B8945371501408604EF00B0495E
:100B600011C185047D140146914537150140137468
:100B7000F40FEF00104969F8370700208327C700FA
:100B8000B337F000850705469145371501403EC053
:100B9000EF0030470146914537150140EF007046A0
:100BA000824705041374F40F37070020E39D87FC88
:100BB000B7078000E58F81C7B70700FFDD8C0327EB
:100BC000C700938741970A07BA9784C311016FF052
:100BD000CFCD0A0593874197AA97884382800A055B
:100BE000138741972A9718439387C196AA9798C36A
:100BF0008280D14511E18145054569A6AA85054553
:100C000051A6954511E181451945ADAEEFF24FC9A9
:100C100003A581998D6793870782AA9798238547B3
:100C200071116316F704938641983306D5000C22A0
:100C30009D47131715001384019963E6B7043AC062
:100C400095240247938781983E970AA303A7819929
:100C5000131617003294B2979E231220B2971EA04B
:100C600093864198B307D7009823050798A383A7D5
:100C70008199094785076373F700814723ACF19891
:100C800011016FF08FC23A949387C197BA971A20D7
:100C900023000600231004000D839AA3C9BFEFF2BE
:100CA0002FC0AD3779356FF04FC0EFF26FBF130132
:100CB00081FD614681450808EFF08FCA854513051F
:100CC0000020EF00104B3165EF00103E85451145C7
:100CD0003714014002C202C402C6EF009049914796
:100CE000130504804C007C8202C6EF007029854504
:100CF0001145EF0010488947130504804C007C82A1
:100D000002C6EF00F027854513050002EF0070468C
:100D1000C147130504404C007C8202C60D64EF00FD
:100D20003026814781441304048285462547338653
:100D3000870010226315D600850493F4F40F85070D
:100D4000E397E7FE371702405C4BB7060240717627
:100D500093E717005CCB9C46791637250140F18F4D
:100D600009661306065AD18F9CC6C4C69307C544AC
:100D70009CCA9387019BDCCA13050540EF00606F96
:100D800085473ECA3ECCB7070E002302910202C837
:100D90003ECE02D081440546B30794009823854790
:100DA0006310F702372501409D4693F5F40F1305B4
:100DB000054032C0EF000079024605061376F60FB3
:100DC0008504A147E39AF4FC372401409D46A145E0
:100DD00013050440EF0000770C0813050440EF00F2
:100DE000A06B854513050440EF00E07085451305B1
:100DF0000440EF00406F13050440EF00E0709304DF
:100E000004402685EF00E0706DFD13050440372493
:100E10000140EF008070930404402685EF0080704D
:100E20006DFD3705024085452105EF00D009854558
:100E300013050440EF00806F130181026FF0EFA6ED
:100E4000EFF20FA60945EF00D00939C90945EF00B7
:100E5000300A8D651386C199014781479386C199F0
:100E60009385058285431385019BA1423303B70017
:100E700003430300631C7300139317002A93035367
:100E80000300850793F7F70F23106600050709068F
:100E9000E31E57FC86071387019BBA979E239EAAE1
:100EA0006FF0AFA09D4763E8A70006059387C1993F
:100EB000AA978A23828001458280EFF26F9EB7074E
:100EC000002083A7070231112AC23EC09397550024
:100ED0008D8F02458A07AE972E849395370002C402
:100EE00002C623180100EFF0EF9E9304F5FFC167DF
:100EF000124763E4F4009384F7FFA285138514007E
:100F00003AC2EFF02F9BAA850245EFF0AF9C130485
:100F1000F5FFC16712476364F4001384F7FF4204CE
:100F2000931717001386419D4180B29782A319C77A
:100F30008547630BF70251016FF02F9705658545D3
:100F400013050580EF00F022373501406086648488
:100F50002317010023150100230801002C001305AD
:100F600005C0EF00B026C1BF85450545EF00502202
:100F70002C006086648423170100231501003705C7
:100F80000040C5B79D4763E7A70AEFF26F911307CB
:100F900040062A8403D5619DAE876374B70093072A
:100FA000400693F5F70FEFF0EF9093054006EFF052
:100FB000EF91420541674181130707069387419CE2
:100FC000954623A2E19CEAA363E9860223940700E5
:100FD0008547631DF4009385419C37050040EF0071
:100FE000D023A14537050040EF00F0308545370597
:100FF0000040EF00B02E6FF04F8B09479AA799473A
:101000006314F402373401408545130504C0EF0032
:10101000902B9385419C130504C0EF001020A1453F
:10102000130504C0EF00302D373501408545130509
:1010300005C0C1B78280EFF2AF8651118D6402C046
:1010400002C202C401449384C482B30794009C2367
:1010500005476397E70A61473AC40D473AC2630EF2
:10106000F40099476302F4049305C0030545B135C4
:101070002285A945013F0504C9BF85451305000226
:10108000EF00300F37150140A1478A851305054051
:101090007C80EF00E06E9305C0030545393DA9450E
:1010A0000545CD35094455B785454545EF00700CDC
:1010B000B7070140D8438A85371501401377F7F306
:1010C000D8C3D8431367070CD8C3930700087C80A4
:1010D000452D8565938505FA0145C533814519453B
:1010E0005535373501408545130505C0EF00301CE7
:1010F000854537050040EF00901B31016FE0FFFA96
:1011000005049D47E313F4F4E9BF8145054523AC8D
:10111000019C6FF0CFAEEFE2BFF8EFF08FDB23ACB6
:10112000A19C89476306F5001DC185476307F50249
:10113000EFF08FD51145EFF08FD001E9EFF04FE2DE
:10114000930540061145EFF0EFCB6FE01FF6054524
:10115000EFF0CFDBEFF02FDDE1BF0145EFF00FDB6C
:10116000C1BFEFE2FFF37111054523A0019EC12528
:10117000F522EFF0EFBDEFF07F8BEFF0CFA7EFF0B0
:10118000DFB2553DEFF02FD8EFF00F91BD3F014595
:10119000EFF09F99EFF06FCB2A84EFF02FC3EFF0C1
:1011A0001FB0EFF0FFC983A7019E1547636CF704DA
:1011B0000D678A0713074783BA979C438287A13F2D
:1011C000EFF0AFC82AC02285EFF08FC89307300632
:1011D00063FDA70283A7C19D91460247850763F37C
:1011E000F600814723A0F19E3A8445BFEFF08FE5DA
:1011F000C1BFEFF0DFAAE9B7EFF00FACD1B7EFF066
:101200004FA77DBF23A0019E65BF83A7019E154701
:101210006384E70023AEF19C22879547E1B701A0E4
:10122000B707EFBE37E700E0938707083CC701A088
:10123000EFE21FE7371402401C403707FFF8611147
:1012400093E717001CC05C404145F98F5CC01C400F
:101250003707F7FE7D17F98F1CC01C403707FCFFCE
:101260007D17F98F1CC05C4041777D17F98F5CC0FA
:10127000B7079F001CC405251C4CA1663706020059
:1012800093E707021CCCB7170140938707409843A8
:101290001377F7F098C398431367070898C3094773
:1012A00098CB02C002C21C4C3707014093E71700DD
:1012B0001CCC5C43D58F5CC31C404167B716024011
:1012C000D98F1CC009679C42F18F3EC282478507B7
:1012D0003EC0924781E78247E397E7FEB717024097
:1012E0009C4337070200F98FA5CB85473EC21247C2
:1012F00085476310F706B72702409843C176FD166D
:10130000719B98C398431367170098C3B71702409F
:10131000D843D8C3D843758FD8C3D843C166558F37
:10132000D8C39843B7060001558F98C3B70600028B
:101330009843758F75DFD843B7160240719BD8C3A9
:10134000D84313672700D8C32147DC42B18BE39E03
:10135000E7FE21016FE07FD502C251BF371702407F
:101360005C43A146B18B6394D7045C433775DC02C0
:10137000130505C0B7160240D842B707002093876F
:10138000070111833D8BBA979C23D84293F5F70F41
:1013900013770708B357F50005E3EFE27FD0EFE0DE
:1013A0007FD3370700202320A7026FE01FD03735F7
:1013B0006E01130505607DBF370700202320F7026B
:1013C000828001A097F1FF1F93814148138181FB27
:1013D0001305000A97F5FF1F9385C5C217F6FF1F77
:1013E000130646C263FAC5008322050023A05500F8
:1013F00011059105E3EAC5FE171500001305C55553
:1014000097F5FF1F938505C017F6FF1F130606C447
:1014100063FAC5008322050023A05500110591053C
:10142000E3EAC5FE17F5FF1F130545C29385819EAC
:101430006377B500232005001105E36DB5FE8962D1
:1014400093820288739002308D427390428097F2AB
:10145000FFFF938222BB93E2320073905230EFF091
:101460003FDD97020000938202D073901234730024
:101470002030B727014093870740631EF500EFE255
:101480003FC28545130500201D238145130500201B
:10149000392B6FE09FC182805841B707F1FF9387D6
:1014A000F7EF7D8FDC419441A207D58FD98F5CC1C6
:1014B0001845B7F7F1FF9387D77FD4457D8F9C49B7
:1014C000D58F94458606D58FD98F1CC55855B7073B
:1014D00010FFFD177D8FDC29FD1793F7F70FD2075B
:1014E000D98F5CD582801C4589C593E717001CC540
:1014F0008280F99BEDBF1C4589C593E707101CC589
:10150000828093F7F7EFE5BF1C4593E787001CC582
:10151000828008450D81058982801C4593E747003C
:101520001CC5828008450981058982801C4591C5BA
:1015300037075000D98F1CC582803707B0FF7D1751
:10154000F98FD5BFA54763F7B704138765FF9317D6
:101550001700BA970323C5001D473317F700134739
:10156000F7FF33776700B397F600D98F5CC59947CB
:1015700063E3C7047D16931726003E965859FD472E
:10158000B397C70093C7F7FFF98F3396C5005D8EF9
:1015900050D9828013971500032305012E979D478C
:1015A000B397E70093C7F7FFB3F76700B396E6007A
:1015B000DD8E14C96DBFB14763E2C702651693178C
:1015C00026003E961859FD47B397C70093C7F7FF0B
:1015D000F98F3396C5005D8E10D982804D16131792
:1015E000260054553297FD47B397E70093C7F7FF9E
:1015F000F58FB395E500DD8D4CD582801C414167A8
:101600007917F98F1CC1232005002322050023240C
:101610000500B707024023260500138787006317DC
:10162000E500D8431367F700D8C382801387C7014A
:101630006316E500D8431367070FFDB71387070349
:101640006318E500D8438566938606F0558FE9BF99
:10165000138747046315E500D843BD66C5BF1387EC
:1016600087056316E500D843B7060F00C5B7138793
:10167000C7066316E500D843B706F000C1BF13875D
:101680000708E314E5FAD843B706000FC1B71841BD
:10169000E177BD0794517D8F9C45D58F9449D58FB7
:1016A000D449D58F944DD58FD44DD58FD451D58F66
:1016B0009455D58FD98F1CC1DC455CC19C411CC59C
:1016C000DC415CC582801C4189C593E717001CC1C1
:1016D000828041677917F98FDDBF4841420541811A
:1016E0008280B70702409C437D8D3335A000828005
:1016F000B7070240C8C3828058410C415045B70724
:101700000140938707403E9793C6F5FF39C2904347
:10171000758E90C3D043F18ED4C31443CD8E14C3C1
:10172000184190479346F7FF758E90C7D047F18ECA
:10173000D4C7144541466399C6009447D98E94C7CF
:10174000D447558FD8C78280B6979443558F98C396
:1017500082801C43F58F1CC38280B70701409387AA
:1017600007409443DC4B2A877D8D01C5F98E3335C4
:10177000D0008280B707014093870740C8CB8280A2
:10178000944593F7060113F3F60081C7DC413363F8
:10179000F30083D2050093F7F20FA9CF0C4161113A
:1017A00022C226C08147930380023D4493048004F3
:1017B00005473317F70033F6E2006310C70263975B
:1017C000760258C9139627003317C4001347F7FF52
:1017D0006D8F3316C300B365E60085072147E39993
:1017E000E7FC12440CC1824421018280E39C96FCF8
:1017F00018C9C9BF82801C4533F5F5003335A000F8
:10180000828019C20CC982804CC98280370701408E
:10181000144786058D47B397B70093C7F7FFF58F39
:101820001CC71C473315B5005D8D08C7828023A2F5
:10183000A19E828003A7419E854714216310F70271
:101840001C31639CE7023C219A0793E707F837E7CE
:1018500000E093F7F70F36972300F740054793D73B
:1018600056003317D700544189CE938707048A075F
:10187000B7E600E0B69798C38280EDF33C219A0763
:10188000F9B793870706B7E600E08A07B69798C3CB
:101890000F1000008280371702401C430E0593F79B
:1018A00077F05D8D08C38280B7160240DC42417735
:1018B0001307F77FF98FC98FDCC28280EFE24FFEFA
:1018C000371702405C43A1462A84B18B639FD70639
:1018D0005C43B777DC02938707C01CC03716024011
:1018E000544237070020130787039182BD8A369739
:1018F000082358429375F50F1377070833D5A700CF
:1019000001E73E85EFE00FFD48C008C448C4B717A3
:101910000240DC438D46AD83FD8B13D737008A0729
:10192000F18BD98F13F6370113F7370063F4C60034
:10193000138747FFB707002093874702BA978C2386
:10194000EFE04FF908C86FE04FF6B7376E019387A5
:10195000076061B799C5371702405C4BC98F5CCBF4
:101960008280B7170240D84B1345F5FF798DC8CB5D
:10197000828099C5371702401C4FC98F1CCF8280C7
:10198000B7170240984F1345F5FF798D88CF8280B5
:1019900099C5371702405C4FC98F5CCF8280B7175B
:1019A0000240D84F1345F5FF798DC8CF828099C585
:1019B000371702405C47C98F5CC78280B717024067
:1019C000D8471345F5FF798DC8C782801E21373768
:1019D0000140130707C0C207C1836306E50037074C
:1019E00000406316E500BA2193F7F7F8D98FFA2182
:1019F00093F7F7CFC207C183D98F1EA1DE215EB551
:101A00009E211EB5B7370140938707C06314F500C8
:101A10009C251EB985475EA982801E31E576938696
:101A2000F6CFC207C183BD9BC207C1831EB11E3161
:101A300052211A2D03D38500C207758F9621C183C9
:101A400093F7F7FDA206558FB62142064207B3E68B
:101A500066009206D58FB7360140C207938606C04E
:101A600041824183C183631ED502B62593F7F7F700
:101A700003D3C5009206D58FD621C207C183920633
:101A800093F7F7FBD58FFD769386F63FF18EF2251F
:101A9000C207C183336666000A06D18E139606011B
:101AA000418252A11AADFA2118DD1EB182801E2199
:101AB00089C593E717001EA18280C207C183F99BE5
:101AC000C207C183CDBF8357450491C52167D98F14
:101AD0002312F5048280C607C583DDBF1E2189C598
:101AE00093E707081EA18280C207C18393F7F7F727
:101AF000C207C183C5BF1E2D7D771307F77FF98FFE
:101B0000A205CD8FC207C1831EAD8280EFE24FD9FF
:101B10001629F577FD17FD8EFE21DA252111D58FC7
:101B20001EA95625FD779387379FFD8EDE212A84D7
:101B3000AE84D58F9625D58FB625D58F5EA55E2927
:101B4000C207C18393F7F7CFD98F5EA94800EFF0A2
:101B5000FFD6B7470140938707806313F406C24757
:101B6000139517005A243E950E053E9593170701CD
:101B7000C1878C4063D807048605EFE0AFD5930595
:101B800040062AC0EFE00FD5824793144500930525
:101B900040063E85EFE0CFD65E24C207C18763D5FD
:101BA00007020E059305400613052503EFE08FD2CB
:101BB0001D89C98CC204C18006A461016FE0EFCE0B
:101BC000B24779BF8A0555BF120593054006130534
:101BD0002503EFE02FD03D89E9BF5E2589C5096760
:101BE000D98F5EA5828079777D17F98FDDBF5E2959
:101BF00001C6CD8F5EA9828093C5F5FFED8FDDBF55
:101C000093F5F51F4EA182800A216D8D3335A0001A
:101C10008280EFE2EFC861112EC232C001448247D8
:101C20006358F402B7440140B747014093050004EC
:101C300013850780D13F6DD9924713850480B38601
:101C40008700838506000504C205C181553FC1BFD9
:101C5000024521016FE06FC5411106C62EC00DCDB2
:101C60001841AA8705C358417D5511CB8546631B92
:101C7000D70098472300070023A207000545B2407C
:101C8000410182809847824614A39847050798C768
:101C9000D8437D17D8C3DDB705468A859D3FF9BF78
:101CA000011122CC2EC206CE26CA2A848147930572
:101CB0000002634506029245BE95838505008DE5C9
:101CC00063D8C70263D4E702198E1305000293F5A7
:101CD00026002AC089C501E7930500032EC0858A26
:101CE000814495EAB2840DA08507F1B71D8EF1BF3E
:101CF0000146E1BF824522853AC832C63EC4A93FAB
:101D0000A24732464247FD14E34690FEB284635335
:101D100006008144058E63C7E702A6879246338793
:101D2000974036978305070095EDB284634490048D
:101D3000635306000146F2406244D2443305F60084
:101D4000056182801D8FBA8793050003228532C802
:101D50003EC63AC41137B24722474246FD17EDF757
:101D6000BA9465BF228532C63EC4FD35A2473246CD
:101D700085076DB78245228532C43EC2F13DFD1410
:101D80002246924765B7397106DE22DC26DA3EC26A
:101D900032833A8689ED92469307000301476C0827
:101DA000FC86FD3DF2506254D25421618280AA84A7
:101DB0003684AE8791CA294701446317E30063D58F
:101DC0000500B307B04005448646A3090102130786
:101DD0003103938666FC36C49A853E8532CA3AC87A
:101DE0001AC63EC0EFE0CFB1A54682473243424714
:101DF000524663D4A600A246369513050503930602
:101E0000F7FFA30FA7FE9A853E8532CC3ACA1AC8BF
:101E10003EC636C0EFE00FACB2474243524762467F
:101E200063FD670409CC29CE9247898BB1CB93051A
:101E3000D002268532C4EFF03FE222467D1692475B
:101E4000918B85C706479307100632C4930500039C
:101E500026856311F704EFF03FE0930580072685A0
:101E6000EFF09FDF22460904791616479246824515
:101E70002685EFF0FFE2229535B7AA870247A9BF72
:101E800082469307D0020144A38FF6FE9307E7FF33
:101E90003EC075B7EFF05FDC93058005C9B701451B
:101EA000828001458280130181FD22D026CE06D298
:101EB0002AC4AE82328402C681448385020091ED39
:101EC000A24789C781453E85EFF01FD99250025441
:101ED0002685F244130181028280930750026389B0
:101EE000F500224516C88504EFF01FD7C24205A0B1
:101EF0008387120013871200639DB7002245930564
:101F000050023AC8EFF05FD542478504BA82850295
:101F10006DB7DDD79306B0026389D70463C8F600B6
:101F2000930630026386D704814705A09306D0024A
:101F3000638AD70093060003E398D7FE1387220035
:101F4000894721A0138722008547830607001306CF
:101F5000B0026383C6046341D60213063002638B6A
:101F6000C602BA820145A54681A0138722006DBF33
:101F7000138722009147D1BF1306D0026389C600A0
:101F800013060003E39FC6FC93E7270031A0050773
:101F90008547C1BF93E747000507E1B71316250042
:101FA000329506053A95850203860200130706FD61
:101FB0009375F70FE3F4B6FE1307E0029946631E2C
:101FC000E60085028146A54503860200130606FD4C
:101FD0001377F60F63F5E50236C603870200130692
:101FE000A006630DC70A6343E6021306C004630735
:101FF000C70A13068006630CC70881452DA81397EE
:102000002600BA968606B29685027DBF1306400763
:102010006306C7081306A0076302C7081306C006B5
:102020008145631AC700038612008D456314E600DC
:10203000850291458502038602009303000613077B
:10204000100663C4C300130710049303700663C42F
:10205000C30693035006635576189303700463C157
:10206000C30493055004635DB61613073004E310F0
:10207000E6EA18409303440016CA230CE1001EC888
:10208000A30C01000147BE862A862C0841A80386BE
:1020900012008145E311E6FA890271BF8502B1BFE2
:1020A00093063006E307D6FC63CEC606930680058A
:1020B0006303D602A9BD930630076304D60463CB3D
:1020C000C6029306F0066304D60E9306000793E754
:1020D0004700E31ED6E291466391D50C930384003A
:1020E0000C40504016CA3AC23EC01EC8AA870147DB
:1020F000C146B9A093065007630AD6069306800727
:1021000045BF18408D66930344009385C68411C370
:10211000BA85324716CA1EC8BE862A862245EFF007
:102120003FB815A091466395D502930384000C40F7
:10213000504016CA3AC23EC01EC8AA870547A946E3
:102140002245EFF0DFD5C243AA941E84D242C1B328
:10215000B2460C4016C836C23AC011042A878546DA
:1021600029462245EFF03FC2AA9449B39146639DA8
:10217000D500930384000C40504016CA3AC23EC0BA
:102180001EC8AA87014765BFB2460C4016C836C2B2
:102190003AC011042A878146E1B7B24616C80C40FE
:1021A000414636C23AC011042A8781465DBF914636
:1021B000639ED500930384000C40504016CA3AC277
:1021C0003EC01EC8AA870147A1469DBFB2460C402B
:1021D00016C836C23AC011042A878146214651B733
:1021E0000C401306840040403AC22A87224532C878
:1021F0003EC02286B687A94616CAEFF09FCAAA94A7
:102200004244A9B71301C1FD2EC832CAAA851008DD
:10221000014506C636CC3ACE3ED032C0EFF0BFC83C
:10222000B240130141028280130141FD32CE3ED4FF
:102230002AC67008FD57480006CC36D03AD202C2F2
:102240003EC432C0EFF03FC6E2401301C1028280BB
:10225000797106D622D426D202C02A8763CE05120F
:1022600063DD06000245B337C000B306D040134516
:10227000F5FF2AC09D8E3306C040B2843A84AE82F8
:102280006399060E63F7C516C1666363D624B70665
:102290000001B336D600B306D040E19AE106B3534D
:1022A000D600170500001305255B1E950821930332
:1022B0000002AA963385D340638CD300B392A50065
:1022C000B356D700B314A600B3E256003314A700E8
:1022D00093D70401BE8516853EC216C8EFD09FDF96
:1022E000139704014183AA852AC43A853AC6EFD0E0
:1022F0007FDCC2429245AA86168536C8EFD05FE0E1
:10230000C246420513570401498F637BD700A24799
:1023100026971386F7FF636497006367D74232C43A
:102320009245158F3A853ACAEFD0DFDAAA852AC8D6
:10233000324542044180EFD0FFD7524792452A866A
:102340003A8532C2EFD0DFDB92474205498CC24664
:10235000637BF40026941387F6FF63659400F916F7
:102360006363F400BA86A2470147C20733E5D7008A
:1023700029A063FDD502014701458247BA8581CB7B
:10238000B337A000B305E0409D8D3305A040B250A7
:102390002254925445618280B337A000B305B04007
:1023A0009D8DFD573307A0403EC05DBDC16763E80A
:1023B000F620B7070001B3B7F600B307F040E19B82
:1023C000E107B3D2F600170500001305E54816959E
:1023D0000821930200023E95B387A2403EC2639655
:1023E000A21E63E4B634B337C70013C51700014714
:1023F00069B76305060EC1666371D63213350610E0
:10240000134515000E05B352A600970600009386EB
:10241000A6449696942293030002AA96B382D340D0
:10242000639DD30C935706013EC293170601C183E7
:10243000B386C5403EC40547924536853ACA36C87C
:10244000EFD05FC9A2452AC6EFD0DFC6C24692458B
:102450002A86368532C8EFD0BFCA42464205935617
:102460000401C98E524763FBC600B247A696938506
:10247000F7FF63E4960063E5C62C2EC692453386CB
:10248000C64032853ACA32C8EFD0DFC4A2452AC45A
:102490004204EFD03FC242469245AA82328516C21C
:1024A000EFD01FC6924742054180498CA246524751
:1024B000637BF40026941386F6FF63659400F91697
:1024C0006363F400B286B247C20733E5D70075B53F
:1024D0009336061093C616008E06D1B38142970636
:1024E0000000938666379696942201459303000276
:1024F000AA96B382D340E387D3F2B314560093D79E
:10250000040133D6D500B3935500B356D700B3E6D4
:102510007600BE853285331457003EC232CA36C6B5
:10252000EFD05FBB139704014183AA852AC83A857F
:102530003AC4EFD03FB852469245AA86328536CA91
:10254000EFD01FBCB246420513D70601D246498FD1
:10255000637DD700C24726971386F7FF636E971CEB
:10256000637CD71CF9173EC826979245158F3A858C
:102570003ACAEFD03FB6AA852ACC2245EFD09FB306
:1025800052479245AA823A8516CAEFD07FB7348661
:10259000D2424205C98E624663FB5600A6961307D7
:1025A000F6FF63E7961863F556187916A696C247A4
:1025B000B38656409395070133E7C500B5BD93B781
:1025C000061093C717008E07EDBB92473354A60041
:1025D00033D3A500B396F600558CB352A700BE8640
:1025E00093540401B397F500B3E7F2001A853ACE8D
:1025F000A6853317D6003EC41ACC3AC8EFD09FAD9B
:10260000131704014183AA852AC63A853ACAEFD036
:102610007FAA6243AA86A6851A8536CCEFD05FAE24
:10262000A247E2464205C183C98F724763FED700C5
:10263000B245A2971386F5FF63E2871063F0D710C7
:102640001386E5FF32C6A297958FA6853E853AD0C0
:102650003ECEEFD03FA8AA852ACC5245EFD09FA509
:10266000F247AA86A6853E85B684EFD07FA934843A
:1026700042056246C98E025763FB9600A2969307F5
:10268000F6FF63E9860A63F7960A7916A296B247BF
:1026900041639302F3FFC207D18F424633F45700E0
:1026A000B3849640B37256009356060193D3070144
:1026B00036C422859685EFD0FF9F2AC6A245228583
:1026C000EFD05F9F2A8496851E85EFD0BF9EAA8299
:1026D000A2451E85EFD01F9EB2461694C182A296D7
:1026E00063F356001A9513D606012A9663E3C402D3
:1026F0006385C4003E85014749B1B24541667D16F8
:10270000F18E6D8E9245C206B2963317B700E37311
:10271000D7FE1385F7FF01478DB1B7060001637936
:10272000D602935206014145CDB101470545B1B1ED
:102730003A86B5BD3E86A1BF32C805BD32C629B7AF
:10274000F9173EC6A6961DBBF9173EC42697C9BE0B
:1027500093528601614555B921112A8332852E860F
:10276000B68206CA22C826C61A87AA86814781452C
:1027700081431AC032C22AC43306770013F316000D
:102780003384F5001355F7018582B334E6008607DC
:1027900063050300B283B38584000607C98FE9FE91
:1027A000124602432245AE8709C6B285EFD09F90FC
:1027B000AA97638702001A859685EFD0BF8FAA97E4
:1027C000D2404244B2441E85BE8561018280AA8700
:1027D0009823850775FF3385A7407D15828000000B
:1027E0003F3F20526563656269646F3A202564202B
:1027F0006279746573202D3E2025730A0000000065
:1028000025643B25643B25643B25643B25643B25CF
:10281000643B25643B25643B25642E0D0A000000C3
:1028200001010000000000010100000000010000A3
:1028300000000100BE110000EC110000F2110000C8
:10284000F8110000FE110000C0110000286E756C28
:102850006C290000000102020303030304040404C2
:10286000040404040505050505050505050505051C
:1028700005050505060606060606060606060606FC
:1028800006060606060606060606060606060606E8
:1028900006060606070707070707070707070707CC
:1028A00007070707070707070707070707070707B8
:1028B00007070707070707070707070707070707A8
:1028C0000707070707070707070707070707070798
:1028D000070707070808080808080808080808087C
:1028E0000808080808080808080808080808080868
:1028F0000808080808080808080808080808080858
:102900000808080808080808080808080808080847
:102910000808080808080808080808080808080837
:102920000808080808080808080808080808080827
:102930000808080808080808080808080808080817
:102940000808080808080808080808080808080807
:042950000808080863
:1029540001FFC904010000000000000002000000A3
:10296400010203040506070801020304050607081B
:10297400006CDC020204060804080C10081018207D
:10298400102030402040608001020304050607083F
:08299400010203040506070817
:00000001FF
