:100000006F10600B00000000020F0000040F0000E2
:1000100000000000000000000000000000000000E0
:1000200000000000000000000000000000000000D0
:100030006E04000000000000B4100000000000008A
:10004000B4100000B4100000B4100000B4100000A0
:10005000AC040000B4100000B4100000B4100000A4
:10006000B4100000B4100000B4100000B410000080
:10007000B4100000B4100000B4100000B410000070
:10008000B4100000B4100000B4100000B410000060
:10009000B4100000B4100000B41000000000000014
:1000A000511126C022C206C4828282441244A24058
:1000B000310182802A86014593F6150091C232955E
:1000C00085810606F5F9828000000000634E050276
:1000D00063C305042E86AA857D5515C285466378BF
:1000E000B6006356C00006068606E36CB6FE014500
:1000F00063E4C500918D558D85820582F5FA828075
:100100008682C93F2E8582823305A04063D70500D1
:10011000B305B040C1B7B305B0408682653F330533
:10012000A0408282868263C70500634905005D376F
:100130002E858282B305B040E35B05FE3305A04007
:10014000513F3305B040828200003D432A876373EC
:10015000C3029377F700BDEFADE5937606FF3D8AC6
:10016000BA960CC34CC30CC74CC74107E36BD7FE10
:1001700011E28280B306C3408A0697020000969679
:100180006780A6002307B700A306B7002306B700C1
:10019000A305B7002305B700A304B7002304B700E5
:1001A000A303B7002303B700A302B7002302B700DD
:1001B000A301B7002301B700A300B7002300B700D5
:1001C000828093F5F50F93968500D58D9396050162
:1001D000D58D61B793962700970200009696868288
:1001E000E78086FA9680C1171D8F3E96E374C3F8A8
:1001F000A5B7B7070020054723A0E70482808547FD
:1002000063EAA700B707002023A0A704B7070020D0
:1002100023A2B7048280EFF2BFE83704002003274F
:100220004404814731CF03A58180938481802524B4
:100230001307104E85476375A704370700208347CF
:1002400007009306F00F1304440413070700639B91
:10025000D7021C40860793F7F70F1CA389E7FD57C9
:10026000232004001CA3B7070020938717008823CE
:100270001335150088A3EF00206CD92A88C0854764
:100280003E8525B5FD17C1BFEFF29FE13704002081
:10029000130404041C4089C705476388E70031B58F
:1002A0009D3F75FD85471CC0DDBF0145EF00C0685F
:1002B000FDB781C99397250093850181BE95854738
:1002C0009CC18280EFF2DFDD511102C002C2231413
:1002D000010093870181014701440546A9468C43EB
:1002E0006399C5006C00A2950504238AE5FE13748A
:1002F000F40F05079107E314D7FE1DC003A5818302
:1003000093848183892A89679387077163FAA70099
:1003100085476319F4000C800145D535152A88C03E
:10032000310161B39387C18098237C0001453E97DA
:10033000834547FFE9359387C1809823631587007C
:1003400023800700E1BF050798A3C9BF0A0593876B
:100350000181AA9788437D15133515008280EFF23D
:100360003FD4B7F700E023A00700B707002003A59C
:100370008701D16593850588B13B7D15B7070001DD
:100380006364F5001385F7FFB7F700E023A40700C7
:1003900088CB2D4798C3B7E700E0056723A0E71097
:1003A000054723A6E18623A401869387018423A021
:1003B00007002392070023A407002396070023A821
:1003C0000700239A070023AC0700239E070023A001
:1003D000070223920702D1B903C6C1832947938636
:1003E000C1836317E60293870184138687028545DC
:1003F0009843631AB700DA237D1742074183DAA3D3
:1004000019E323A00700A107E394C7FE2380060099
:100410008280914763E7A702EFF29FC825471384C4
:100420000184931735006366B7003E9423200400CF
:10043000ADB92E85A9453E94713985474AA01CC0A7
:10044000C5BF82800E0593870184AA978843828066
:1004500003A58186828003A7C18685476317F700BD
:1004600083A781863385A740828001458280B7F7C4
:1004700000E023A20700938781869843050798C36D
:100480009387C1839823050798A373002030EFF268
:100490003FC171651305052023AE0186EF10C0260C
:1004A00061468145138541894D3101B19387C187EB
:1004B0009843050798C373002030EFF27FBE03C74F
:1004C00001887111AA87138401889384218809EF18
:1004D0002AC0374501409305A00A130505802380F3
:1004E0000400EF10602182471820BA978C239C20CB
:1004F0003747014013050780AE979CA0EF10C01F3F
:100500001C20DD460145850793F7F70F1CA03747F0
:10051000014063F1F6028C2013050780EF10C01D27
:100520003747014013050780A945EF10E01C05453A
:1005300023000400110195BEEFF29FB62A843745CF
:10054000014013050580EF10A01B9387418B984352
:1005500085461375F50F6305D70209CB89466307F6
:10056000D7048D46630DD704014581B61307A00A51
:10057000E31CE5FE94C3A3800188A3810188EDB745
:100580001386118818229386818BBA9688A2938647
:1005900031888C2205071377F70F2E9588A218A2B1
:1005A000BD46E3F3E6FC094798C37DBF03C7318826
:1005B0006314A7000D47CDBF23A0070075B723A084
:1005C0000700A947E312F5FA41469385818B2285FE
:1005D000EF10C070054551BFEFF29FAC711111458E
:1005E00095359384818C1384018B09E9896585474E
:1005F0009385057111459CA01CA0213D9C200547B9
:10060000639BE700138541893EC0453D82476314E3
:10061000F5002380040018208547631AF70013852E
:100620004188193F8547E31CF5FE230004001101B2
:10063000ADBCEFF2FFA6511101446353A006814601
:10064000130640069355F5412A84EF1080628546D3
:100650002A87AE876303D4000584A9441353F44169
:100660009A8622863A85BE851AC43AC03EC2EF10E9
:10067000000F2243B306850033B5A6009A952E9548
:100680001356F501B29633B6C6002A967E068582C9
:10069000D18E63878600FD14368402479247DDFCC5
:1006A0002285310119B4EFF2BF9F03C781879307F9
:1006B000F00A311193840187631CF71405457931E1
:1006C0006305051409455931630105140D45BD390C
:1006D000630D051203C50189892C0145312C8C401D
:1006E000D53A2A840545092CCC40ED322AC093071F
:1006F000200363F58700A1450545653EC167635545
:10070000F40002476345F700A14505455D36054500
:1007100035229D6593850553713A9305F03F7D32EF
:1007200093160501C186014536C88564012A938563
:10073000843849329305F03F513AFD779387C76378
:100740003E9593171500AA978E07AA9786071D4511
:100750003EC6ED2093858438EFF0DF959385A47F26
:10076000EFF0DF9603A6C1872AC205821317260081
:100770003A9613174600118F9384C18A88400E075A
:100780003AC4D1392247AA853A85EFF0BF9493172E
:100790000501C1833EC46D39B24788C0C24663D8E3
:1007A00007008945014536C62936B24681470567A7
:1007B0001307479C6348D700854501453EC6D53C95
:1007C000B247814693844189D6A036859CC0BE85B8
:1007D000EFF05F8E9305803EEFF05F8F824723A39B
:1007E000A40023A5840023A7F400A247BEA8B7074E
:1007F000002083D52700924713951700EFF01F8D37
:100800000D3DC8C851016FF05F8A01453122F1B535
:10081000138441881C203D47638DE7001307F00FC8
:10082000E39DE7EA5C409CC01C44DCC0230004005C
:100830006DB50145C1280545F120CDBF060593875B
:10084000418EAA978A238280B707002023A2A7009F
:100850008280EFF2FF847111894537150140EF0066
:10086000B03341C9E144014485453715014005468F
:10087000EF0030338945371501400604EF00D031D1
:1008800011C10504FD14014685453715014093F457
:10089000F40FEF001031E9F8B707002083A44700F8
:1008A0008147B334900085040546854537150140DE
:1008B0003EC0EF00102F0146854537150140EF007F
:1008C000502E82473707002013074700850793F70C
:1008D000F70FE39B97FC9317840063D50700B707D6
:1008E00000FF5D8C1C43139727009387418FBA97B5
:1008F00080C311016FF06FFB0A059387418FAA97A0
:10090000884382800A051387418F2A97184393876B
:10091000C18EAA9798C38280EFF28FF8D14511E17A
:1009200081450545B9296FF04FF8EFF26FF7AA85B9
:10093000054581296FF06FF7EFF28FF6954511E1CC
:10094000814519453D296FF04FF603A5418D896713
:10095000938707DBAA97942385471387418D639F6D
:10096000F606EFF2EFF39384818D3386A4000C2218
:100970009D477111931615001384C18C63E1B70470
:1009800036C0A52C82461387418D10439387C18DB5
:10099000BE968AA2931616003694B6979E2316200A
:1009A000B294B6971EA09C2085079CA01C43894644
:1009B000850763E2F6021CC311016FF00FEF369456
:1009C0009387418EB697162023000600231004005B
:1009D0008D8296A3E1BF23200700F9BF1C438946FF
:1009E000850763E4F6001CC3828023200700828011
:1009F000EFF20FEB993FB13D6FF02FEBEFF24FEAC3
:100A0000130181FD614681450808EFF00FF485452B
:100A100013050020EF0070263165EF00B01A854500
:100A200011453714014002C202C402C6EF00F0248F
:100A30009147130504804C007C8202C6EF00100E23
:100A400085451145EF0070238947130504804C004C
:100A50007C8202C6EF00900C854513050002EF0072
:100A6000D021C147130504404C007C8202C6896432
:100A7000EF00D00A81470144938404DB8546254773
:100A80003386F40010226315D60005041374F40FA6
:100A90008507E397E7FE371702405C4BB706024035
:100AA000717693E717005CCB9C4679163725014099
:100AB000F18F09661306065AD18F9CC6C0C69307EC
:100AC000C5449CCA93870191DCCA13050540EF0019
:100AD000806985473ECA3ECCB7070E0023028102DB
:100AE00002C83ECE02D001470544B387E4009423F8
:100AF00085479375F70F639FF600372501402286DF
:100B00009D46130505403AC0EF00007302470504F7
:100B10001374F40F0507A147E319F7FC2286372465
:100B200001409D46A14513050440EF00E0700C080C
:100B300013050440EF008065854513050440EF0070
:100B4000C06A854513050440EF0020691305044081
:100B5000EF00C06A930404402685EF00C06A6DFD73
:100B60001305044037240140EF00606A93040440F9
:100B70002685EF00606A6DFD370502408545210539
:100B8000EF002077854513050440EF0060691301ED
:100B900081026FF08FD1EFF2AFD00945EF00A07660
:100BA00039C90945EF000077896601478147938677
:100BB00006DB85431386C18F93850191A14233855E
:100BC000E6000821631F7500139317002E9303534B
:100BD000030013151700329585072310650093F75E
:100BE000F70F0507E31D57FC138701918607BA9796
:100BF0009A232396E1906FF04FCB9D4763E9A700BE
:100C0000931715001385C18F3E950A2182800145F7
:100C10008280EFF2EFC8130740062A8403D5619360
:100C2000930740066363B700AE8793F5F70FEFF0C5
:100C30006FC893054006EFF06FC94205416793877F
:100C40004192418113070706954698C3EAA363E9D9
:100C50008602239407008547631DF4009385419223
:100C600037050040EF00F00BA14537050040EF00CD
:100C70003019854537050040EF00F0166FF0EFC2E0
:100C800009479AA799476314F40237340140854510
:100C9000130504C0EF00D01393854192130504C0DF
:100CA000EF003008A145130504C0EF00701537357B
:100CB00001408545130505C0C1B7EFF26FBEAE8791
:100CC000B7060020960503A486019D8D8A05311183
:100CD000BE952AC28E0522853EC002C402C62318D4
:100CE0000100EFF02FBF9304F5FFC1668247124762
:100CF00063E4D4009384F6FFBE85138514003AC0E4
:100D0000EFF04FBBAA852285EFF0CFBC7D15C16700
:100D100002476364F5001385F7FF13140501931769
:100D20001700938641934180B69782A319C78547E0
:100D3000630BF70251016FF04FB705658545130549
:100D40000580EF0080733735014060866484231787
:100D5000010023150100230801002C00130505C024
:100D6000EF004077C1BF85450545EF00E0722C00DC
:100D700060866484231701002315010037050040B5
:100D8000C5B79D4763E7A700EFF28FB159356FF004
:100D9000CFB18280EFF2CFB0511102C002C202C4C3
:100DA0000144896405049D476311F402373501400D
:100DB0008545130505C0EF00300085453705004027
:100DC000EF00807F31016FF04FAE9387C4DBA297B5
:100DD0009C230547E398E7FC61473AC40D473AC2B4
:100DE000630DF40099476307F4029305C0030545BA
:100DF000E935A9452285713775B785451305000288
:100E0000AD2D37150140A1478A85130505407C802B
:100E10003123E1BF854545458D25B7070140D843BE
:100E20008A85371501401377F7F3D8C3D843136782
:100E3000070CD8C3930700087C80CD218565938576
:100E400005FA01459D3D81451945E133A1BFEFF20A
:100E50002FA57111054523AC0192892BF522EFF0E6
:100E60000FD0EFF00FB9EFF07FB92D37EFF02FE291
:100E70000145EFF07F9DEFF0AFDDAA8413848193ED
:100E8000EFF08FD5EFF0DFB639331C401547636DB7
:100E9000F70409678A07130747DCBA979C438287E0
:100EA0001CC0BA84F1BFEFF02FF3EFF06FDA2AC065
:100EB0002685EFF04FDAA54763FBA70283A7C1930E
:100EC000914602478507E3FDF6FC23200400D1BFCD
:100ED000EFF06FFDD9BFEFF0BFB1C1BFEFF08FBE34
:100EE000E9B7EFF06FBAD1B7232004007DBF1C40F3
:100EF00015476384E70023AEF19295471CC026870F
:100F00004DB701A0B707EFBE37E700E093870708AA
:100F10003CC701A0EFF2CF98371402401C403707BE
:100F2000FFF8611193E717001CC05C404145F98F41
:100F30005CC01C403707F7FE7D17F98F1CC01C40B2
:100F40003707FCFF7D17F98F1CC05C4041777D1788
:100F5000F98F5CC0B7079F001CC4A1291C4C370641
:100F6000020093E707021CCCB717014003A7074014
:100F7000938607401377F7F023A0E74003A70740C5
:100F80001367070823A0E74089479CCA02C002C232
:100F90001C4C37070140A16693E717001CCC5C434B
:100FA000D58F5CC31C404167B7160240D98F1CC067
:100FB00009679C42F18F3EC2824785073EC0924737
:100FC00081E78247E397E7FEB71702409C431397F8
:100FD000E7006359070685473EC2124785476310FD
:100FE000F706B72702409843C176FD16719B98C358
:100FF00098431367170098C3B7170240D843D8C364
:10100000D843758FD8C3D843C166558FD8C398438A
:10101000B7060001558F98C3984393166700E3DD28
:1010200006FED843B7160240719BD8C3D843136756
:101030002700D8C32147DC42B18BE39EE7FE2101A4
:101040006FF0AF8602C251BFEFF28F8537170240B3
:101050005C43370400209146B18B130484016385FF
:10106000D700A1466382D704B7376E019387076024
:101070001CC0B7160240DC420840918313F7F7000A
:10108000B707002093878700BA978C23DC4293F53B
:10109000F50F93F707083357B50081E7EFF08F831B
:1010A0002A8718C06FF06F805C43B777DC029387A4
:1010B00007C07DBF01A097F1FF1F9381A178138125
:1010C00001FC1305000A97F5FF1F9385A5F317F69A
:1010D000FF1F130626F363FAC5008322050023A031
:1010E000550011059105E3EAC5FE1715000013052B
:1010F00025DF97F5FF1F9385E5F017F6FF1F130611
:1011000066F463FAC5008322050023A0550011058B
:101110009105E3EAC5FE17F5FF1F1305A5F29385B8
:1011200041946377B500232005001105E36DB5FEFA
:10113000B722000093820288739002308D42739030
:10114000428097F2FFFF9382E2EB93E232007390CA
:101150005230EFF03FDC97020000938282CF739011
:10116000123473002030B727014093870740631E75
:10117000F500EFE2FFF28545130500202D2E814595
:10118000130500200D2E6FE05FF282805C4137076F
:10119000F1FF1307F7EF7D8FDC419441A207D58F54
:1011A000D98F5CC11C4537F7F1FF1307D77FD445B2
:1011B0007D8F9C49D58F94458606D58FD98F1CC5C8
:1011C0005C55370710FF7D177D8FDC29FD1793F7DE
:1011D000F70FD207D98F5CD582801C4589C593E76C
:1011E00017001CC58280F99BEDBF1C4589C593E79C
:1011F00007101CC5828093F7F7EFE5BF1C4593E706
:1012000087001CC5828008450D81058982801C45A8
:1012100093E747001CC582800845098105898280C3
:101220001C4591C537075000D98F1CC582803707F0
:10123000B0FF7D17F98FD5BFA54763F8B7041387B3
:1012400065FF931717008322C500BA971D43331318
:10125000F3001343F3FF33735300B397F600B3E780
:1012600067005CC5994763E3C7047D1693172600A2
:101270003E965859FD47B397C70093C7F7FFF98FBC
:10128000B395C500DD8D4CD982809397150003235B
:101290000501AE971D473317F7001347F7FF337764
:1012A0006700B397F6005D8F18C96DBFB14763E261
:1012B000C7026516931726003E961859FD47B39747
:1012C000C70093C7F7FFF98FB395C500DD8D0CD923
:1012D00082804D161317260054553A96FD47B39752
:1012E000C70093C7F7FFF58FB395C500DD8D4CD5CB
:1012F00082801C4189C593E717001CC18280416729
:101300007917F98FDDBFB70702409C437D8D3335D8
:10131000A0008280B7070240C8C38280944593F73B
:10132000060193F2F60081C7DC41B3E2F20083D3F9
:10133000050093F7F30FA5C303230500611122C233
:1013400026C08147130480029304800405473316A6
:10135000F70033F7C3006312E602939527003D4779
:101360003317B7001347F7FF33736700B395B20025
:1013700033E36500639D860050C985072147E397E5
:10138000E7FC124423206500824421018280E39619
:1013900096FE10C9DDB7828008456D8D3335A000FB
:1013A000828019C20CC982804CC9828023A0A1947A
:1013B0008280371702401C430E0593F777F05D8D4E
:1013C00008C38280B7160240DC4241771307F77FDB
:1013D000F98F5D8DC8C28280EFE29FCC3717024043
:1013E0005C4391462A84B18B6385D700A146638014
:1013F000D708B7376E01938707601CC0B716024045
:10140000DC42918313F7F700B707002093870703A7
:10141000BA978C23DC42184093F5F50F93F7070831
:101420003355B70081E73A85EFE0DFCA48C008C40A
:1014300048C4B7170240DC438D46AD83FD8B13D7FC
:1014400037008A07F18BD98F13F6370113F737006E
:1014500063F4C600138747FFB70700209387C701CF
:10146000BA978C23EFE01FC708C86FE01FC45C4326
:10147000B777DC02938707C049B799C53717024091
:101480001C4F5D8D08CF8280B7170240984F1345DF
:10149000F5FF798D88CF828099C5371702405C4F60
:1014A0005D8D48CF8280B7170240D84F1345F5FFB6
:1014B000798DC8CF828099C5371702405C475D8D12
:1014C00048C78280B7170240D8471345F5FF798D8A
:1014D000C8C782801E2137370140130707C0C207E3
:1014E000C1836306E500370700406316E500BA21B3
:1014F00093F7F7F8D98FFA2193F7F7CFC207C18393
:10150000D98F1EA1DE215EB59E211EB5B7370140E1
:10151000938707C06314F5009C251EB985475EA913
:1015200082801E3165771307F7CFC207C183BD9B49
:10153000C207C1831EB11E31562103D38500C207E5
:1015400013960601162DC18393F7F7FD758F96212B
:101550004182A206558FB62142074183B3E6660059
:101560009206D58FB7360140C207938606C0C18365
:10157000631ED502B62593F7F7F703D3C50092068D
:10158000D58FD621C207C183920693F7F7FBD58F7B
:10159000FD769386F63FF18EF225C207C18333664E
:1015A00066000A06D18E13960601418252A11AAD39
:1015B000FA2118DD1EB182801E2189C593E717002C
:1015C0001EA18280C207C183F99BC207C183CDBF20
:1015D0008357450491C52167D98F2312F504828072
:1015E000C607C583DDBF1E2189C593E707081EA175
:1015F0008280C207C18393F7F7F7C207C183C5BFD3
:101600001A2DFD779387F77FF98FA205CD8FC2073B
:10161000C1831EAD8280EFE2BFA81629F577FD17C2
:10162000F58FF621DA252111D58F1EA95625FD77D4
:101630009387379FF58FD6212A842EC0D58F962584
:10164000D58FB625D58F5EA55E29C207C18393F7D6
:10165000F7CF5D8F5AA948004133B74701409387C0
:10166000078082456312F406C2475A241395170077
:101670003E9542070E0541873E958C41635807040D
:101680008605EFE03FA5930540062AC0EFE09FA442
:10169000824793144500930540063E85EFE05FA620
:1016A0005E24C207C18763D507020E059305400675
:1016B00013052503EFE01FA21D89C98CC204C18058
:1016C00006A461016FE07F9EB24745B78A0555BF0A
:1016D00012059305400613052503EFE0BF9F3D89E2
:1016E000E9BF91C55E250967D98F5EA582805A251D
:1016F000F977FD17F98FD5BF93F5F51F4EA18280BD
:101700004A211375F51F8280EFE29F992A841165A3
:1017100011118545130505028D33930700027C8066
:10172000371501408D473EC28A85E14713050540C4
:101730003EC4EFF0BFBE22C637440140B7070800E1
:101740006C00130504803ECA02C8231C0100E13569
:10175000854513050480713771016FE01F9579711C
:1017600006D622D426D202C02E83AA8763CA0510C9
:1017700063DD060082453306C0403337C000B30640
:10178000D04093C5F5FF2EC0998EB684B2823E84B8
:101790001A876397061E6370C310C1666363D626FB
:1017A000B70600016369D64893558601E144970660
:1017B00000009386E662AE969422B69493060002E9
:1017C000858E99CA3313D300B3D49700B312D600D1
:1017D00033E764003394D70093D40201A6853A8599
:1017E00016C43AC2EFE0DF91A24212472AC893978B
:1017F0000201C1833A85A68516C63EC2EFE09F8DE1
:10180000AA852AC41245EFE0FF8AC2469357040115
:101810002247C206D58FB24263FAA7009697930675
:10182000F7FF63E4570063EEA7423687898FA685EA
:101830003E853AC816CA3EC6EFE09F8CB247A685E1
:101840002AC43E85EFE01F89AA85AA841245420476
:101850004180EFE03F86A2464247C206558C637C3A
:10186000A400D2429387F4FF169463655400F914E0
:101870006363A400BE8413150701458D014791A23F
:10188000B307A0403337F0003303B0403303E340E5
:101890007D573AC0F1BD11EA814505453EC41AC2E3
:1018A000EFE05F83A2471243AA82416763E2E2143A
:1018B0003707000163E5E23893D68201E144170758
:1018C00000001307E7513697182393060002269766
:1018D000998E6391061493970201C1833303534099
:1018E00093D402013EC20547A6851A853ACA16C896
:1018F0001AC4EFE0FF8022432AC6A6851A85EFE0CE
:101900006FFD92452AC4EFE0EFFAB2469357040107
:10191000C242C206D58F524763FBA7002246969764
:101920009306F6FF63E4570063E0A73436C4898F5B
:10193000A6853E853ACA16CC3EC8EFE06FFCC2478A
:10194000A6852AC63E85EFE0EFF89245AA844204B8
:10195000EFE04FF6B24641805247C206558C637C99
:10196000A400E2429387F4FF169463655400F914CF
:101970006363A400BE84A24713950701458D91A01F
:10198000636FD302416763EDE6043707000163E04C
:10199000E62A93D5860161451707000013074744DF
:1019A0002E970C2313070002AA950D8F63160712BA
:1019B00063EB6628B3B4C70013C5140019A0014730
:1019C00001458247BA8581CB3305A040B337A000DB
:1019D000B305E0409D8DB2502254925445618280FF
:1019E0001307F00F6374D72693D5860021456DB792
:1019F0001307F00F9686E37457EC93D68200A14448
:101A00007DBD9306F00FB285E3F3C6DA93558600E9
:101A1000A14471BBB392D2003356E30093D40201C8
:101A20003313D3003394D70033D7E70093970201E1
:101A300033676700C183A68532853AC416CA3EC2A1
:101A400032C6EFE0EFEB32462AC8A6853285EFE0DA
:101A50006FE8AA852AC61245EFE0CFE52247C246C5
:101A6000D24293570701C206D58F324763FBA700C6
:101A700096979306F7FF63E4571E63F2A71E791744
:101A80009697898FA6853E853ACC16CA3EC6EFE06A
:101A90002FE7B2472AC8A6853E85EFE0AFE3AA85C7
:101AA0002AC61245EFE00FE142433484B2474203B5
:101AB0003363D300D2426247637BA30016939386BD
:101AC000F7FF636A53186378A318F9171693420750
:101AD0003303A3405D8F09BD3355B600B396E600CE
:101AE000C98E13D406013316E600B354B300B3D342
:101AF000B7003313E3003ACC1397060141833ECE7F
:101B0000A285B3E7630026853EC232C636CA3AC410
:101B1000EFE00FDF2AC8A2852685EFE0AFDBAA85BC
:101B2000AA842245EFE00FD992474243D24613D60A
:101B3000070142033366C3006247F247637BA60096
:101B400036969385F4FF636AD6106378A610F9146D
:101B50003696098EA28532853ECE3ACC36D032CA30
:101B6000EFE00FDA5246A2852AC83285EFE08FD621
:101B7000AA852A842245EFE0EFD342432C826247B4
:101B8000131603014D8EF247637CA600825693051F
:101B9000F4FF3696636FD60A637DA60A79143696EB
:101BA000C1661383F6FFB246C204C18CB3F364006E
:101BB000098E33F3660032C493D2040113D40601B4
:101BC0001E859A85EFE00FCF2AC2A2851E85EFE021
:101BD0006FCEAA839A851685EFE0CFCD2A83A285A2
:101BE0001685EFE02FCD92469A93C182B69363F4A7
:101BF0006300C166369593D603013695A24663E429
:101C0000A6026385A6002685014765BBC16612460C
:101C1000FD16B3F3D300C203F18EB397E700338709
:101C2000D300E3F2E7FE1385F4FF014759BB93D5D8
:101C30000601414595B393550601C1448DBE93D627
:101C40000201C144ADB901470545A5BBB6850145B3
:101C5000A1B32E84B1B7B6879DBDAE84DDBD3687F6
:101C60000DB579179697D9B69306E6FF36C49697C1
:101C70007DB921112AC236C006CAAA8622C826C644
:101C8000328732C48147014501433386660093732E
:101C900017003304F50093D2F6010583B3346600D0
:101CA0008607638503003385840032838606B3E7A5
:101CB000570061FFAA8789C52245EFE0AFBFAA9709
:101CC000024711C71245BA85EFE0CFBEAA97D240AE
:101CD0004244B2441A85BE8561018280B3C7A50023
:101CE0008D8B3307C50081E78D4763E7C702AA875D
:101CF000637EE50A942185078505A38FD7FEE3EB74
:101D0000E7FE8280942185078505A38FD7FEE3EB4C
:101D1000E7FE02441101828093763500AA8789CAC2
:101D2000942185078505A38FD7FE93F63700C5BF9D
:101D30009376C7FF138606FE63F5C706711122C0AE
:101D4000C04903A3050083A38500C0CB804D23A019
:101D5000670003A3450080CFC04D23A2670083A284
:101D6000C50003A3050193854502C0CF03A4C5FFA9
:101D700023A4770023A6570023A867009387470270
:101D800023AE87FEE3EEC7FAE3F3D7F8904191075D
:101D9000910523AEC7FECDBF90419107910523AEBB
:101DA000C7FEE3EBD7FEE3E7E7F482808280000022
:101DB000010100000000000101000000000100001E
:101DC00000000100A60E0000D00E0000D60E00009C
:101DD000DC0E0000E20E0000AA0E0000000102026C
:101DE00003030303040404040404040405050505B3
:101DF000050505050505050505050505060606068F
:101E00000606060606060606060606060606060672
:101E1000060606060606060606060606070707075E
:101E20000707070707070707070707070707070742
:101E30000707070707070707070707070707070732
:101E40000707070707070707070707070707070722
:101E5000070707070707070707070707080808080E
:101E600008080808080808080808080808080808F2
:101E700008080808080808080808080808080808E2
:101E800008080808080808080808080808080808D2
:101E900008080808080808080808080808080808C2
:101EA00008080808080808080808080808080808B2
:101EB00008080808080808080808080808080808A2
:101EC0000808080808080808080808080808080892
:0C1ED000080808080808080808080808A6
:101EDC00FF01C90402000000010203040506070803
:101EEC000102030405060708006CDC020204060864
:101EFC0004080C100810182010203040204060807E
:101F0C00010203040506070801020304050607087D
:00000001FF
